:020000040800F2
:10000000E09B002065010008EB170008411500087F
:10001000E917000819030008D918000800000000BB
:10002000000000000000000000000000EF170008C2
:100030001B03000800000000ED170008F11700087E
:100040007F0100087F0100087F0100087F01000890
:100050007F0100087F0100087F0100087F01000880
:100060007F0100087F0100087F0100087F01000870
:100070007F0100087F0100087F0100087F01000860
:100080007F0100087F0100087F0100087F01000850
:100090007F0100087F0100087F0100087F01000840
:1000A0007F0100087F0100087F0100087F01000830
:1000B0007F0100087F0100087F0100087F01000820
:1000C0007F0100087F0100087F0100087F01000810
:1000D0007F0100087F0100087F0100087F01000800
:1000E0007F0100087F0100087F0100080000000078
:1000F0000000000000000000000000000000000000
:1001000000000000000000007F0100087F010008DF
:100110007F0100087F0100087F0100087F010008BF
:100120007F0100087F0100087F0100087F010008AF
:100130007F0100086D0300087F0100087F010008AF
:100140007F0100087F0100087F0100087F0100088F
:10015000DFF80CD000F0CEF800480047456E0008EC
:10016000E09B00200648804706480047FEE7FEE780
:10017000FEE7FEE7FEE7FEE7FEE7FEE7FEE7FEE757
:1001800085180008510100082DE9F05F05460020A0
:1001900092469B4688460646814640241BE02846F8
:1001A00041464746224600F020F853465A46C01AB8
:1001B000914110D311461846224600F08BF82D1AB3
:1001C00067EB01084F4622460120002100F082F82B
:1001D00017EB00094E41201EA4F10104DFDC484664
:1001E00031462A464346BDE8F09F202A04DB203AE8
:1001F00021FA02F00021704721FA02F3D040C2F147
:10020000200291400843194670470000004870479B
:1002100070E100080649074A0868504343F2390272
:1002200010440860400870470149086070470000AA
:10023000000100206D4EC64140EA01039B0703D038
:1002400009E008C9121F08C0042AFAD203E011F815
:10025000013B00F8013B521EF9D27047D2B201E0D7
:1002600000F8012B491EFBD270470022F6E710B5BB
:1002700013460A4604461946FFF7F0FF204610BD14
:10028000421C10F8011B0029FBD1801A704730B5C1
:1002900004460020034600E05B1C934203D2E05C6E
:1002A000CD5C401BF8D030BD30B50B460146002078
:1002B0002022012409E021FA02F59D4205D303FA28
:1002C00002F5491B04FA02F52844151EA2F10102A9
:1002D000F1DC30BD202A04DB203A00FA02F10020D4
:1002E00070479140C2F1200320FA03F31943904074
:1002F00070470000064C074D06E0E06840F001033F
:1003000094E8070098471034AC42F6D3FFF724FF77
:1003100094E20008B4E20008FEE77047064908B519
:1003200009684FF4FA52B1FBF2F14143009100BF6A
:10033000491E0091FBD208BD2400002038B50446B8
:10034000006800F58050816941F480118161206866
:1003500000F58050806900900120FFF7DFFF2068E2
:10036000009900F58050816138BD0000014800F01F
:100370005BB90000684900202DE9F041044621B135
:100380004FF40060E060C000A060E0690025002834
:1003900061D028462368402619683A4A1140D4E9BA
:1003A00002273A43024342F4007008431860206871
:1003B0000768012000F072F8206807602068466036
:1003C00020684668012000F069F8206846602068CF
:1003D00085602068C560216888694FF641721040C9
:1003E00040F08000886120688669012000F056F89E
:1003F000206886612068C5612068C569012000F019
:100400004DF82068C561226802F5805290691E4946
:1004100008401E4901439161206800F580508569BC
:10042000012000F03BF8206800F5805085612068CD
:10043000174900F580500160206800F5805005687C
:10044000012000F02BF8206800F580500560A069BD
:10045000012803D009E04FF480609BE7206800F595
:100460008050C1690B4A1143C16160690A498288A1
:100470000A640278D0F8010042EA00204864BDE82E
:10048000F08100000F8120FF233FDEF804002002EE
:100490000020C102400001000080024070B5044607
:1004A00000F088FC0546601C02D004480078044433
:1004B00000F080FC401BA042FAD370BD1800002061
:1004C0002DE9F04390F845400025012C0DD04FF068
:1004D000010C80F845C0022480F8444044F2F457EF
:1004E0004FF000495E1E816217E00220BDE8F083F4
:1004F00001EB0514C4F80090C5EBC51808EB4808DB
:1005000002EB8808C4E90178B54204D204F110086E
:10051000C4F80C8000E0E1606D1C9D42E8D30268E5
:1005200002F58052D16080F844C0002180F8451067
:100530000846DBE72DE9F043914690F8452000247A
:10054000012A0AD0012680F84560022280F8442062
:100550004FF4801C5D1EC1621BE00220BDE8F083E9
:1005600001EB0412C2F800C0C4EBC41707EB470844
:1005700009EB88079760C7691FB9176847F44007F8
:100580001760AC4203D202F11007D76000E0D160DF
:10059000641C9C42E4D3026802F58052116180F829
:1005A0004460002180F845100846D7E7704710B531
:1005B00090F84510012913D0012280F8452002212E
:1005C00080F84410816A0C680023002C27DB0C683B
:1005D000E40518D5846B641C8463012C02D002E00E
:1005E000022010BD016341630C68C4F30D44241F55
:1005F000C463046BA4680464C96840F8281F0277C8
:100600004377002010BD0C68A40503D58263C0E9C0
:100610000C1302E0846B641C8463C968816200F877
:10062000442F4370012010BD70B50446006800F5EA
:10063000805041694FF0000549064FF0010608D58A
:10064000204600F0C3F92068402100F58050416148
:1006500009E04069C0070AD0204600F07EFA206811
:1006600000F58050466184F8446084F84550206865
:100670004FF4803100F580504161206800F58050D2
:10068000406900040CD52046FFF790FF20684FF426
:10069000004100F58050416184F8446084F8455081
:1006A00070BD00002DE9F8434FF000050400A94695
:1006B000009503D094F8440018B107E00120BDE88C
:1006C000F88384F84550204600F0BEF85948416848
:1006D00021F4000141604168226A114341602068B1
:1006E00000F58050016841F00101016000F062FBFB
:1006F00006464FF4FA7708E000F05CFB801BB84236
:1007000003D9032004F8440F57E0206800F5805017
:100710000068C007F0D12068006920F01C0600F0D6
:100720007DFC4549454A0144914202D246F0080603
:1007300006E0434908444349884201D246F00C068A
:10074000206806614FF400420021204600F006FABE
:100750000126A8BBFF20FFF7A1FE606888B300F068
:1007600029FB804641F288376A460121204600F085
:10077000EBF800F01FFBA0EB0800B84217D8009878
:100780004007F1D54FF480520021204600F0E6F9F1
:10079000B0B900F00FFB80466A460121204600F008
:1007A000D3F800F007FBA0EB0800B8420AD90121FA
:1007B0002046FFF7E1FD04F8446F032065707EE7F3
:1007C00024E018E000988006E6D56A46102120460D
:1007D00000F0BAF8D0B90098410703D54FF4006192
:1007E000E16000E0E560800701D5A56019E04FF405
:1007F0008040A06015E0E068A168C00840EA5100B0
:1008000082B20021204600F0A9F930B10121204632
:10081000FFF7B2FD84F8446050E740F6FF70FFF741
:100820003DFE49462046FFF7A7FD84F844600020BE
:1008300045E700000000014000D3CEFEC0E1E40027
:1008400040F1E9FD40787D012DE9F04186B00024BA
:10085000009401940294039400683649884265D15B
:100860003548416941F480414161416901F4804169
:100870000491416941F400414161416901F4004141
:100880000491416941F480314161416901F4803151
:100890000491816941F010018161816901F01001C9
:1008A0000491816941F004018161816901F00401D1
:1008B0000491816941F0080181618069022500F09D
:1008C0000800009503260195CDE90360DFF86C80F0
:1008D0006946404600F07EF98220CDE90004184FB9
:1008E00069463846029400F075F90420CDE9000508
:1008F00069460396384600F06DF93020CDE90004D2
:1009000069464046029400F065F94FF46050CDE925
:100910000005694603960B4800F05CF90022114679
:100920003D2000F0B3FA3D2000F0A2FA06B0BDE889
:10093000F0810000008002400010024000100140E1
:1009400000080140000C01402DE9F047044690F8F2
:100950004400914682281DD0822084F844002268F9
:1009600010694FF6FF7500F01C03208A05EAC020CD
:1009700018434FF4F86303EA8111014321F00200A8
:1009800040F00105156100F015FA064601274FF405
:10099000803810E00220BDE8F08700BF00F00AFABE
:1009A000801B404505D304F8447F0020607003207D
:1009B000F1E720680569E807F0D12068406981B255
:1009C000C9F8001084F844700020E4E77047F8B5D7
:1009D000044690F84500012839D0012584F8455097
:1009E000022084F8440020680026016841F00801D4
:1009F00001602068006800902846FFF78FFC21689E
:100A0000009808602068016841F0040101602068D6
:100A1000006800900120FFF781FC216800980860C1
:100A20002046FFF78BFC206800F58050816941F477
:100A300000518161206800F58050816941F0020118
:100A4000816184F8445084F845600020F8BD02209C
:100A5000F8BDF0B590F845200023012A11D00127F8
:100A600080F84570022280F84420002459B1C66AFB
:100A70003268002A0ADA122100F8441F447001206B
:100A8000F0BD0220F0BD00F8447FF7E740F2F455D6
:100A9000A9420BD9B1FBF5FCB1FBF5F205FB1C1C1F
:100AA000BCF1000F00D0521C012A43D1326842F041
:100AB00040523260C26AC1F30C015160C16A0A68D7
:100AC00042F000420A60C16AC968C16234E0D6F8E7
:100AD00000C02CF0405CC6F800C033B9C66AD6F836
:100AE00000C04CF0805CC6F800C0C66A7560561E37
:100AF000B34214D1C66AD6F800C04CF0005CC6F808
:100B000000C0C2F10106C6EBC61606EB4606D0F8D9
:100B10002CC001EB8606C6F30C06CCF80460C66A4E
:100B2000D6F800C04CF0004CC6F800C0C66A5B1C8A
:100B3000F668C6629342CAD3016801F580514A69DA
:100B4000520705D504224A61016801F580514C60C5
:100B500000F8447F44700020F0BD70472DE9F0415B
:100B6000044690F8440042281ED0422084F84400F5
:100B7000236818694FF6FF7600F01C05208A06EA04
:100B8000C02028434FF4F86505EA8111014390B273
:100B900041F0030558612068056100F00BF9064635
:100BA00001274FF4803810E00220BDE8F08100BF3B
:100BB00000F000F9801B404505D304F8447F002075
:100BC00060700320F1E720680569E807F0D184F838
:100BD0004470EAE72DE9F84FDFF8B891002409F1F5
:100BE000040A0AF1040B23460F270BF1040EC9E097
:100BF0000125A5402A40AA427DD1674ED1F804C004
:100C0000ACEB0608B44532D014DCBCF1030F3AD08B
:100C100009DCBCF1000F2AD0BCF1010F1CD0BCF1E3
:100C2000020F31D11DE0BCF1110F17D0BCF1120F32
:100C30002AD119E0B8F5881F19D006DCB8F5803F35
:100C400015D0B8F5801F1FD111E0B8F5001F0ED0E8
:100C5000B8F5041F18D10AE0CB6815E0CB681B1D5E
:100C600012E0CB6808330FE0CB680C330CE08B68E4
:100C70002BB1012B4FF0080303D0456104E004239E
:100C800002E0056100E00023FF2A01D8064601E0EA
:100C900000F104064FEA840501D9A5F12005D6F834
:100CA000008007FA05FC28EA0C0803FA05F548EA73
:100CB0000508C6F800804D68ED0062D5374DAE6975
:100CC00046F00106AE61AD6924F0030605F00105AA
:100CD0000095334D06EB050CDCF80850A607360FDF
:100CE00007FA06F825EA0805DFF8B880404503D181
:100CF0004FF0000817E044E0DFF8AC80404502D137
:100D00004FF001080FE0DFF8A480404502D14FF01A
:100D1000020808E0DFF89880404502D14FF0030850
:100D200001E04FF0040808FA06F848EA0508CCF894
:100D300008804D68D9F80060ED034D4601D5164393
:100D400000E096432E604D68DAF80060AD0355462A
:100D500001D5164300E096432E604D68DBF8006035
:100D6000ED025D4601D5164300E096432E604D68C6
:100D7000DEF80060AD02754601D5164300E09643EB
:100D80002E60641C0D682A46E5407FF431AFBDE853
:100D9000F88F000000040140000011100010024014
:100DA0000000014000080140000C0140001001401B
:100DB00000140140014880687047000018000020BE
:100DC0000248816802781144816070471800002051
:100DD000074810B5016841F010010160032000F0E0
:100DE00075F8002000F006F800F024F8002010BD8F
:100DF0000020024070B50D4D04464FF47A712878FA
:100E0000B1FBF0F00A490968B1FBF0F000F084FB97
:100E100048B9102C07D200222146501E00F036F8A7
:100E200000206C6070BD012070BD00001800002023
:100E3000240000200C4808B5816941F0010181615E
:100E4000816901F001010091C16941F08051C161E6
:100E5000C06900F0805000900448416821F0E061D2
:100E600041F00071416008BD0010024000000140E7
:100E7000002809DB00F01F02012191404009800099
:100E800000F1E020C0F8001170470000F0B40E4BF4
:100E90001B680C46C3F30223C3F10705042D00D9D8
:100EA0000425191D072901D2002300E0DB1E0126BD
:100EB00006FA05F1491E214099409E40761E1640D3
:100EC0003143F0BC00F01ABD0CED00E0064900F023
:100ED000070208684FF6FF03184040EA0220034A61
:100EE00010430860704700000CED00E00000FA05B8
:100EF0002DE9F0470F46050061D0434E306800F001
:100F00000700B84209D2306820F00700384330604B
:100F1000306800F00700B84251D128683B4C810787
:100F200012D5400703D5606840F4E060606028781F
:100F3000000703D5606840F4605060606068A9688D
:100F400020F0F000084360602878C00728D0686867
:100F5000012810D02168022810D0890700292EDA34
:100F6000616821F0030101436160FFF723FF8046C0
:100F700041F288390DE021688903EFE78901EDE747
:100F8000FFF718FFA0EB0801494502D90320BDE88F
:100F9000F0876068696800F00C00B0EB810FEFD15A
:100FA000306800F00700B8420BD9306820F0070025
:100FB00038433060306800F00700B84201D00120AB
:100FC000E5E72878400705D56068E96820F4E06027
:100FD000084360602878000706D56068296920F416
:100FE000605040EAC100606000F01EF86168084A85
:100FF000C1F30311515CC840064908600648006807
:10100000FFF7F8FE0020C2E7002002400010024077
:10101000A2DC0008240000201C0000200148006819
:101020007047000024000020F0B524A289B00FCA48
:1010300004AC84E80F0025A10FC98DE80F002748F4
:10104000416801F00C02042A04D0082A04D0244884
:1010500009B0F0BD2348FBE704AAC1F38343C903E9
:10106000D45C28D5C16AC26A01F00F011DF80110D5
:10107000D20316D5C26AC06AC2F30312521CA2FB85
:101080000123C0F30320801CA0FB0415154F00268C
:10109000A1FB070C05FB07C501FB0651FFF774F820
:1010A00003E010486043B0FBF1F09DF81D10A14231
:1010B000CED14008CCE70C486043C9E700000405E6
:1010C0000607080900000000000D000001020304EB
:1010D00005060708090A0B0C0D0E0F100010024040
:1010E00000127A0040787D0100093D0030B585B0DE
:1010F0000020029002200190032003900B4C4FF43B
:1011000080700090A0690D4640F00400A061A069C5
:10111000694600F0040004900548FFF75BFD606835
:1011200020F070602843606005B030BD00100240C0
:10113000000801402DE9F84F040070D02078F14DEF
:10114000C00749D06868C0F38100012807D06868EB
:10115000C0F38100022809D16868C00306D5286859
:10116000800339D5A0680028E7D035E0A068B0F545
:10117000803F0BD010B1B0F5A02F11D0286820F41B
:1011800080302860286820F4802002E0286840F43D
:1011900080302860A06890B1FFF70CFE06460AE098
:1011A000286840F480202860F0E700BFFFF702FEC7
:1011B000801B642876D828688003F7D50CE0FFF7F9
:1011C000F9FD064605E000BFFFF7F4FD801B64282B
:1011D000F0D828688003F7D42078CB4E80074FF0F2
:1011E00001094FF000073AD5686810F00C0F07D0DE
:1011F0006868C0F38100022809D16868C00306D47A
:101200002868800715D56069012808D111E0606958
:10121000B8B1C6F80090FFF7CDFD804606E042E188
:10122000FFF7C8FDA0EB08000228C3D82868800794
:10123000F6D52868A16920F0F80040EAC1002860CE
:101240000DE03760FFF7B6FD804605E0FFF7B2FD21
:10125000A0EB08000228ADD828688007F6D42078D3
:1012600000072ED5A948E169E9B1C0F80090FFF761
:10127000A1FD804606E000BFFFF79CFDA0EB080043
:10128000022897D8686A8007F6D5A1484FF4FA512A
:101290000068B0FBF1F0009000BF0098411E009183
:1012A000FAD20EE0B0E00760FFF784FD804605E06B
:1012B000FFF780FDA0EB0800022889D8686A800744
:1012C000F6D42078400763D5E8694FF00008C000E5
:1012D00009D4E86940F08050E861E8694FF00108FE
:1012E00000F0805000908B480168C90512D4016855
:1012F000834641F480710160FFF75CFD824605E0A2
:10130000FFF758FDA0EB0A0064287DD8DBF8000049
:10131000C005F5D5206901280AD008B1052813D0E9
:10132000286A20F001002862286A20F0040002E008
:10133000286A40F001002862206941F2883B98B198
:10134000FFF738FD82460BE0286A40F0040028626F
:10135000EEE700BFFFF72EFDA0EB0A01594553D879
:10136000286A8007F6D50CE0FFF724FD824605E0E9
:10137000FFF720FDA0EB0A01594545D8286A8007F0
:10138000F6D4B8F1000F03D0E86920F08050E8618E
:10139000E06AD0B36968C90307D56968C1F3810100
:1013A000022902D1E96AC9037DD4022808D0E86A7B
:1013B00020F48030E862B766FFF7FCFC80463BE033
:1013C0002868C00005D5E86A616B00F0F00088422B
:1013D00069D1B766FFF7EEFC804605E0FFF7EAFC4F
:1013E000A0EB0800642874D828680001F6D4E86AE5
:1013F000616B20F0F0000843E862E86A216B20F49A
:1014000070600843E86201E063E018E0C6F86890A5
:10141000FFF7D0FC804605E0FFF7CCFCA0EB08000E
:10142000642856D828680001F6D508E0FFF7C2FC0A
:10143000A0EB080064284CD828680001F6D4206A84
:1014400090B36968C1F38101022949D00228376647
:1014500003D0FFF7AFFC04463EE0FFF7ABFC0746C6
:1014600005E000BFFFF7A6FCC01B022831D82868A2
:101470008001F7D4606AB0F5803F09D1E86A6168FD
:101480000843E862E86AE16820F00F000843E86278
:10149000D4E909010843696821F4741108436860BC
:1014A000C6F8609001E028E029E0FFF783FC0446DD
:1014B00005E000BFFFF77EFC001B022809D8286862
:1014C0008001F7D51BE000BFFFF774FC001B02286A
:1014D00002D90320BDE8F88F28688001F4D40EE01B
:1014E0000128F7D06868626A00F48031914204D123
:1014F000A16A00F47010884201D00120EAE70020C0
:10150000E8E700000010024000004242800442422E
:10151000240000200070004010B5401EB0F1807F14
:1015200001D3012010BD4FF0E02460610F2160174E
:1015300000F0E4F90020A06107202061002010BD28
:10154000FEE7000070B50546046800F03DF8287C11
:10155000092815D1206AC00202D50AA007F088FD2B
:101560002946134808F0A6FC607A4FF47A71484384
:101570002A460F4908F0E4FB206A40F480102062FC
:1015800070BD0000617373657274696F6E206C6367
:10159000705F6563686F5F74696D65725F72756EA9
:1015A0006E696E673D3D30206661696C6564000060
:1015B000B515000801680A6AD30204D522F4801226
:1015C0000A62FFF7BFBF70472DE9FC41046805467A
:1015D00004F16406A27A002A17D094F8D21091423E
:1015E00013D3287C274609280CD118A007F008FA45
:1015F0001EA007F0DAFA092087F8210025A1384655
:1016000004F0DCFB002084F8D200287C09281AD1E1
:10161000B06801AB010E8DF80410010C8DF80510B7
:10162000010A8DF806108DF807000420009014F8C8
:10163000D32F0921501C04F80109284602F050F864
:101640002078401C2070BDE8FC8100004E6F2072A5
:101650006573706F6E736520746F202564206563F9
:10166000686F2D7265717565737473005365726967
:10167000616C206C696E6B206170706561727320A3
:10168000746F20626520646973636F6E6E65637446
:1016900065642E0050656572206E6F7420726573EC
:1016A000706F6E64696E670000B585B000200290AF
:1016B0001248816941F010018161816901F01001D6
:1016C0000491816941F004018161816901F00401A3
:1016D0000491816941F0080181618069694600F0E7
:1016E000080004904FF480700090022001900320C5
:1016F00003900348FFF76EFA05B000BD00100240EA
:10170000000801400EB505F06BFB2E490868C9784A
:1017100003BA0A0603F47F4342EA032203BA00BA7B
:101720000843284903F47F0342EA13220C3142EABA
:101730001060086008390868C97803BA0A0603F41B
:101740007F4342EA032203BA00BA08431D4903F467
:101750007F0342EA1322103142EA10600860083920
:101760000868C97803BA0A0603F47F4342EA0322F1
:1017700003BA03F47F0300BA42EA13220843114973
:1017800042EA10601431104A0860104900208DE8C8
:1017900007000C4B0E4814331A1F111F05F0D0FE22
:1017A0000B4805F06FFF0A4890F82B0040070848E7
:1017B00003D5BDE80E4005F0BBBFBDE80E4005F007
:1017C00067BF000000000020612C00081D2E0008EB
:1017D0000801002010B5034801F064FBBDE810408B
:1017E00008F07EBA08010020FEE770477047704796
:1017F000FFF7E6BA30B593B038216846FEF735FDFD
:1018000014210EA8FEF731FD012420040421CDE9A6
:1018100002010225CDE908500094019005944FF48F
:10182000E010CDE90A054FF4C0600C9040200D9007
:101830006846FFF77FFC0F20CDE90E050020A102CE
:10184000CDE91001129002210EA8FFF751FB0022F2
:101850004FF030611046FFF749FC0848C16A21F09B
:10186000F00141F04001C162C16A21F4704141F4CC
:101870000041C1620248046713B030BD001002404D
:10188000000042421048016841F0010101604168D6
:101890000E4A1140416001680D4A11400160016823
:1018A00021F480210160416821F4FE01416001685A
:1018B00021F0A05101604FF47F0181600021C162DD
:1018C0000449C00308607047001002400000FFF0A8
:1018D000FFFFF6FE08ED00E0FEE700000FB4054B49
:1018E00010B503A9044A029800F028F810BC5DF86E
:1018F00014FB0000C72E0008040100200907090E90
:10190000002804DB00F1E02080F80014704700F0AC
:101910000F0000F1E02080F8141D704702E008C8B5
:10192000121F08C1002AFAD170477047002001E059
:1019300001C1121F002AFBD1704700002DE9FF4FA3
:101940008BB09A460F460546002606E025280BD0A8
:1019500052460D9990476D1C761C28780028F5D1C9
:101960000FB03046BDE8F08F0024A0460122604948
:1019700000E0044315F8013F203B02FA03F008425F
:10198000F7D128782E2817D115F8010F44F0040458
:101990002A280ED06FF02F022878A0F130010929F3
:1019A0000AD808EB880102EB410100EB01086D1C2D
:1019B000F2E757F8048B6D1C287869283ED006DCC6
:1019C0000028CDD063280BD0642804D136E07328DA
:1019D00010D075284BD052460D999047761C85E063
:1019E00017F8040B8DF8000000208DF80100E9467F
:1019F000012003E057F8049B4FF0FF3061074FF0E0
:101A0000000401D40AE0641C44450DDA8442FADB88
:101A100019F804100029F6D106E0641C8442FCDBAE
:101A200019F804100029F8D1264404E019F8010B34
:101A300052460D999047641EF8D257E001CF4FF0FF
:101A40000A0B002802DA40422D2102E0210504D5CC
:101A50002B218DF82410012103E0E10705D020217E
:101A6000F7E70DF1200908910CE00021F9E701CF1B
:101A70004FF00A0BF9E75946FEF716FC01F1300268
:101A800009F8012D0028F6D1ADEB090000F1200B7B
:101A9000600701D44FF00108D84502DDA8EB0B0028
:101AA00000E000208046002406E009A85246005DC0
:101AB0000D999047641C761C08988442F5DB04E07D
:101AC000302052460D999047761CB8F10001A8F1DC
:101AD0000108F5DC05E019F8010B52460D99904715
:101AE000761CBBF10001ABF1010BF4DC6D1C34E79B
:101AF0000928010070B514460D46002000F070F969
:101B00000068A84203D10849002000F041FA0120F2
:101B100000F066F90068A04203D10349012000F0FB
:101B200037FA012070BD0000E4E0000810B5044B56
:101B3000C069044A194605F081FD012010BD00006E
:101B4000E4E00008E8E000082DE9F0410546002443
:101B50004FF440470F4E0CE00188B94208D281692A
:101B600031B12846884795F8D400401C85F8D40048
:101B7000641C56F824000028EED195F8D400002803
:101B800005D12846BDE8F04103A104F017B9BDE82E
:101B9000F081000078DD00084E6F206E6574776F6D
:101BA000726B2070726F746F636F6C732072756EDE
:101BB0006E696E670000000010B5044640688047FB
:101BC00022462068BDE81040014908F0B9B800007D
:101BD000B91B00082DE9F35FDFF88880064600EBAB
:101BE0000611A8F58869002509EB0114AA4604F13D
:101BF000100B00BF05EB4507404658F8273053B19E
:101C000000EB87010A7AB24205D14A685846019929
:101C1000984748F827A06D1CEDB2042DEAD30021A7
:101C200004254846B1420DD001EB011200EB02122F
:101C3000937A022B06D1D27BE37B9A4202D1E573E1
:101C4000BDE8FC9F491CC9B20429EBD3E07B042802
:101C5000F6D2054E56F820000BF0A8FCE17B46F8C2
:101C600021A0ECE724610020D45C00202DE9F041A4
:101C70000746344E00EB071006EB0014042F06D382
:101C800031A34FF47E723CA142A0FFF727FEA07A59
:101C9000002854D000254FF0010801280CD002285C
:101CA00021D0032845D0BDE8F04127A340F23742B8
:101CB00042A138A0FFF712BEFEF7ACFA81B20020B5
:101CC00000EB001206EB0212937A022B02D112896A
:101CD0008A42F1D0401CC0B20428F1D321810220F5
:101CE000A072E5721CE0207B401E10F0FF00207304
:101CF00025D1607B401CC0B26073042805D02073DE
:101D00003846BDE8F04100F079B8E07A0146401C61
:101D1000022809D2314A02EB8101496821B1E072FF
:101D200084F80C806573EBE700213846FFF752FF1B
:101D300004E0206810B1401E206000D1A572BDE80B
:101D4000F0810000E45C00202E2E2F4D6964646C4D
:101D50006577617265732F54686972645F50617250
:101D600074792F4C7749502F7372632F636F7265AC
:101D70002F646E732E630000617272617920696E48
:101D8000646578206F7574206F6620626F756E646D
:101D900073000000417373657274696F6E202225B1
:101DA0007322206661696C6564206174206C696EC1
:101DB0006520256420696E2025730A00756E6B6EA0
:101DC0006F776E20646E735F7461626C6520656E00
:101DD0007472792073746174653A000054000020B5
:101DE000022803D2024901EB800070470148704786
:101DF00054000020E4E00008704700002DE9FF5F78
:101E00000446454900EB041001EB0015E87A02286E
:101E100006D342A340F2ED224CA152A0FFF75EFD93
:101E2000E97A5A48002650F8210038B305F110002D
:101E30000446FEF725FA123081B20022104605F062
:101E4000BFFC5FEA000A62D00096019602962889DC
:101E500004F0C4FFADF8000001208DF802004FF43B
:101E6000807BADF804B00C226946504606F00EFCAB
:101E70000C26641E641CA04600270BE000212046AF
:101E8000FFF7A8FEAE72002004B0BDE8F09F7F1CF3
:101E9000FFB2641C20782E2801D00028F7D1A4EBD3
:101EA00008001FFA80F93A463146504606F0BEFA5D
:101EB000701C83B24A464146504606F0A5FCF01914
:101EC000401C86B220780028D4D1002231465046EA
:101ED00006F0ACFA761CADF80CB0B3B2ADF80EB0AB
:101EE000042203A9504606F08FFCEA7A2749E87BD2
:101EF00001EB820208493523103951F82000514680
:101F00000BF06CFB0446504606F030F901E04FF050
:101F1000FF342046B8E70000E45C00202E2E2F4D51
:101F20006964646C6577617265732F546869726463
:101F30005F50617274792F4C7749502F7372632F01
:101F4000636F72652F646E732E630000646E73207E
:101F5000736572766572206F7574206F662061728A
:101F600072617900417373657274696F6E20222506
:101F70007322206661696C6564206174206C696EEF
:101F80006520256420696E2025730A005400002016
:101F9000022805D2044A02EB800011B109680160F1
:101FA00070470249FAE7000054000020E4E000080E
:101FB00010B500242046FFF759FE641CE4B2042C3F
:101FC000F8D310BD70B505460C46880706D006A3A9
:101FD0004FF4CE7210A118A0FFF780FCA86800682B
:101FE0002060A868046070BD2E2E2F4D6964646C5B
:101FF0006577617265732F54686972645F506172AE
:1020000074792F4C7749502F7372632F636F726509
:102010002F6D656D702E63006D656D705F66726506
:10202000653A206D656D2070726F7065726C7920F5
:10203000616C69676E656400417373657274696F82
:102040006E2022257322206661696C6564206174AC
:10205000206C696E6520256420696E2025730A0056
:1020600010B580680468002C0CD021680160A007BE
:1020700006D005A34FF4A4720FA118A0FFF72EFC01
:10208000204610BD002010BD2E2E2F4D6964646CBB
:102090006577617265732F54686972645F5061720D
:1020A00074792F4C7749502F7372632F636F726569
:1020B0002F6D656D702E63006D656D705F6D616C69
:1020C0006C6F633A206D656D702070726F70657211
:1020D0006C7920616C69676E65640000417373659B
:1020E0007274696F6E2022257322206661696C65A7
:1020F00064206174206C696E6520256420696E20FF
:1021000025730A0070B50A4D0646002404EB44000E
:1021100005EBC000017D29B18068B04202D12046A4
:1021200000F034F9641CE4B20A2CEFD370BD000057
:10213000EC9600202DE9F74F84B04FF00A0B0024F5
:102140000646DA465F46D94602940194CDF800402F
:102150004F4904EB440001EBC008039098F8145079
:102160000A2F16D0002D24D0012D08D0022D06D222
:1021700048A340F2251255A164A0FFF7AFFB66B15A
:102180003168D8F80400814207D160B207B0BDE8D9
:10219000F08F002DE8D167B20BE0012D17D0022D92
:1021A00007D3B8F812000099884202D34FFA84FA94
:1021B0000090641CE4B20A2CCAD3059881074FF042
:1021C000FF30E3D40A2F18D01ADAFCB242E03048CC
:1021D000039950F831000028B8F8120006D002998F
:1021E0008842E6D34FFA84F90290E2E701998842E7
:1021F000DFD34FFA84FB0190DBE70599C907C5D00F
:10220000BAF10A0F0FDA0AF0FF04214804EB440187
:1022100050F8310090B11FA340F26F1245A13BA0CE
:10222000FFF75CFB0AE0BBF10A0F02DA0BF0FF04D8
:1022300004E0B9F10A0FA9DA09F0FF040A2C06D369
:1022400014A340F2811241A130A0FFF747FB2046C2
:1022500000F09CF80A2C06D30EA340F285123BA195
:102260002AA0FFF73BFB0A4804EB440100EBC10541
:10227000287D30B107A34FF4C37239A123A0FFF723
:102280002DFB0EB130686860002068827DE7000099
:10229000EC9600202E2E2F4D6964646C6577617278
:1022A00065732F54686972645F50617274792F4C42
:1022B0007749502F7372632F636F72652F69707641
:1022C000342F6574686172702E63000073746174DA
:1022D00065203D3D204554484152505F5354415480
:1022E000455F50454E44494E47207C7C20737461C5
:1022F0007465203E3D204554484152505F5354413F
:1023000054455F535441424C45000000417373658E
:102310007274696F6E2022257322206661696C6574
:1023200064206174206C696E6520256420696E20CC
:1023300025730A006172705F7461626C655B695D30
:102340002E71203D3D204E554C4C000069203C2014
:102350004152505F5441424C455F53495A45000039
:102360006172705F7461626C655B695D2E7374612C
:102370007465203D3D204554484152505F535441BF
:1023800054455F454D5054590000000070B5074C4E
:1023900000EB4005002654F8350018B105F0E6FEC4
:1023A00044F8356004EBC500067570BDEC9600205E
:1023B0002DE9F04385B00D00074609D07C684FF445
:1023C00080782088404539D12079062836D109E027
:1023D0001CA34FF4227229A12CA0FFF77FFA05B0AD
:1023E000BDE8F0836079042828D16088082825D1C9
:1023F000D4F80E000490A169686820B1814202D12E
:102400000126334601E00026022304F1080291462A
:1024100004A9284600F096FBE08840450ED16EB135
:10242000022204ABCDE90232291DCDE9001905F1E4
:10243000250319464A46284600F086FA384605F034
:1024400095FECCE72E2E2F4D6964646C6577617222
:1024500065732F54686972645F50617274792F4C90
:102460007749502F7372632F636F72652F6970768F
:10247000342F6574686172702E6300006E65746934
:102480006620213D204E554C4C0000004173736581
:102490007274696F6E2022257322206661696C65F3
:1024A00064206174206C696E6520256420696E204B
:1024B00025730A00FEB515460E46040006D142A358
:1024C00040F21B324EA152A0FFF708FA36B93EA3E4
:1024D0004FF4477258A14EA0FFF700FA35B93AA35E
:1024E00040F21D3257A14AA0FFF7F8F921462868AB
:1024F00001F028FB08B1574B39E02868C0F30311FD
:102500000E291FD0A168636800EA01020B409A42BD
:1025100008D080B2A0F57E41A93903D0E06880B32D
:1025200004F10C054C4A4D49137803EB430001EBD1
:10253000C000077D022F28D32F684068874224D12E
:102540001A4631E001208DF8040000208DF80500C6
:102550005E208DF80600687801AB00F07F008DF8F2
:102560000700A8788DF80800E8788DF809004FF486
:102570000060009004F125023146204600F0D2FBB5
:10258000FEBDFFE76FF00300FAE7002000EB400319
:1025900001EBC3031F7D022F0BD32F685B689F42A3
:1025A00007D1C0B2107002463146204600F058F8FC
:1025B000E6E7401C40B20A28E8DB324629462046BE
:1025C00000F0D6F8DCE700002E2E2F4D6964646C15
:1025D0006577617265732F54686972645F506172C8
:1025E00074792F4C7749502F7372632F636F726524
:1025F0002F697076342F6574686172702E630000E5
:102600006E6574696620213D204E554C4C000000DB
:10261000417373657274696F6E2022257322206680
:1026200061696C6564206174206C696E6520256445
:1026300020696E2025730A007120213D204E554CE3
:102640004C00000069706164647220213D204E5589
:102650004C4C0000D4DF0008F4000020EC96002071
:102660002DE9F8430646154688461C4802EB45010D
:1026700000EBC104207D022806D219A34FF43B725F
:1026800025A131A0FFF72AF9144A05EB4501207D69
:1026900002EBC1050C35022813D1608A0327B0F57F
:1026A0008E7F04D9211D304600F006FA07E0B0F510
:1026B000877F06D32A46211D304600F003FA00B971
:1026C00027754FF4006000902B4606F12502414625
:1026D000304600F027FBBDE8F8830000EC960020B0
:1026E0002E2E2F4D6964646C6577617265732F546B
:1026F000686972645F50617274792F4C7749502F0A
:102700007372632F636F72652F697076342F6574EF
:10271000686172702E6300006172705F7461626C38
:10272000655B6172705F6964785D2E737461746556
:10273000203E3D204554484152505F53544154453A
:102740005F535441424C4500417373657274696F25
:102750006E2022257322206661696C656420617495
:10276000206C696E6520256420696E2025730A003F
:102770002DE9FC5F824625300190884608681446A2
:102780004FF0FF364FF0000B514601F0DBF9002807
:1027900028D1D8F80000C0F303110E2922D0B8F1D7
:1027A000000F1FD000281DD0524601214046FFF7E0
:1027B000C1FC070018D4394907EB470901EBC905EB
:1027C000287D002812D0012808D0022806D234A380
:1027D00040F2C73240A14AA0FFF780F8BBF1000FDA
:1027E0000AD108E06FF00F00BDE8FC9F01202875BA
:1027F000C5F808A000E034B94146504600F05CF945
:102800000646002CF0D0287DDFF8908002280DD3FA
:10281000454805F10C03214607704FF40060009015
:102820005046019A00F07EFA064635E0012833D181
:1028300025464FF47B7668892989884207D1286824
:1028400028B117A3324639A12DA0FFF747F8287BFE
:1028500001280ED029890022022004F0B1FF0500D2
:1028600018D0214605F084FA58B1284605F07EFCC0
:1028700010E02D68002DDED12546204605F0B2FE81
:1028800045B158F8390008B105F070FC48F83950E6
:10289000002601E04FF0FF363046A5E7EC96002019
:1028A0002E2E2F4D6964646C6577617265732F54A9
:1028B000686972645F50617274792F4C7749502F48
:1028C0007372632F636F72652F697076342F65742E
:1028D000686172702E6300006172705F7461626C77
:1028E000655B695D2E7374617465203D3D205045C4
:1028F0004E44494E47206F7220535441424C45008C
:10290000417373657274696F6E202225732220668D
:1029100061696C6564206174206C696E6520256452
:1029200020696E2025730A00F40000206E6F20706D
:1029300061636B65742071756575657320616C6C7E
:102940006F776564210000002DE9FF4F81B0984644
:10295000DDE90FA9DDF838B006004FF0000706D119
:102960002BA34FF48B6238A13BA0FEF7B7FF0022E8
:102970001C21022004F024FF050046D068891C2891
:1029800006D223A340F263423DA133A0FEF7A6FF87
:102990006C68119804F022FAE08096F8240006286A
:1029A00006D01BA340F26A4242492BA0FEF796FFD5
:1029B000D8F80010A160B8F80400A081DAF800107F
:1029C000C4F81210BAF80400E082DBF80000C4F882
:1029D0000E00D9F80000A0614FF48070208008201C
:1029E0006080062020710420607140F60600DDE959
:1029F000022300902946304600F094F9284605F05D
:102A0000B5FB384605B0BDE8F08F4FF0FF30F9E771
:102A10002E2E2F4D6964646C6577617265732F5437
:102A2000686972645F50617274792F4C7749502FD6
:102A30007372632F636F72652F697076342F6574BC
:102A4000686172702E6300006E6574696620213DB6
:102A5000204E554C4C000000417373657274696FD1
:102A60006E2022257322206661696C656420617482
:102A7000206C696E6520256420696E2025730A002C
:102A8000636865636B20746861742066697273742F
:102A900020706275662063616E20686F6C642073BD
:102AA0007472756374206574686172705F686472B3
:102AB0000000000050E20008014A00F003B80000E6
:102AC000D4DF00087FB5064D031D0124CDE9003594
:102AD000CDE9021421331946FFF736FF04B070BD6B
:102AE000DADF000870B5164D002400BF04EB440087
:102AF00005EBC002107DF0B1518A491C89B25182A8
:102B0000B1F5967F0AD2012806D003280AD00428FE
:102B10000AD001280BD00EE0052908D32046FFF784
:102B200035FC08E0042000E00220107503E0111DD0
:102B30009068FFF7C1FF641CE4B20A2CD6D370BDC5
:102B4000EC960020F8B5044690F824001F4616467F
:102B50000D46062806D020A340F2AB122CA135A0CA
:102B6000FEF7BCFE9DB3286888B3214600F0EAFF5B
:102B700068BB2878C0F303100E2829D022463946B6
:102B80002846FFF7D7FA002820DB00EB4001334846
:102B9000022300EBC102137594603368D360B388DD
:102BA00013820023538250F8315075B140F8313010
:102BB0004FF400600090334604F125022946204678
:102BC00000F0B0F8284605F0D1FA0020F8BDFFE784
:102BD0006FF00F00FAE700002E2E2F4D6964646C31
:102BE0006577617265732F54686972645F506172B2
:102BF00074792F4C7749502F7372632F636F72650E
:102C00002F697076342F6574686172702E630000CE
:102C10006E657469662D3E6877616464725F6C6589
:102C20006E203D3D204554485F4857414444525F23
:102C30004C454E00417373657274696F6E20222596
:102C40007322206661696C6564206174206C696E12
:102C50006520256420696E2025730A00EC9600200B
:102C600070B5044640890D460E2844D96068017845
:102C70008689CA0714D0012905D006222849FDF704
:102C800006FB48B10CE0417851B980785E2807D145
:102C9000607B40F0100002E0607B40F00800607351
:102CA0006FF00D01082E0BD0B6F5C16F18D0A6F548
:102CB0006276B6F5C04627D0B6F5807F1BD128E0F6
:102CC00095F82B00000716D560890E2813DB2046E7
:102CD00005F014FB78B92946204601F075F81CE090
:102CE00095F82B00000706D560890E2803DB2046E7
:102CF00005F004FB18B1204605F038FA0DE029462E
:102D00002046FFF755FB08E02146284606F05EFA0C
:102D100003E02146284606F0FBF9002070BD0000C4
:102D2000D4DF00082DE9F04104461F4690460E46C8
:102D3000069804F053F805460E21304605F0DEFAF9
:102D400018B16FF00100BDE8F081706885813968C5
:102D50000160B9888180D8F80020C0F80620B8F852
:102D60000410418194F82400062806D006A340F2FE
:102D70002B1213A11FA0FEF7B1FD31462046A26918
:102D8000BDE8F041104700002E2E2F4D6964646CA1
:102D90006577617265732F54686972645F50617200
:102DA00074792F4C7749502F7372632F6E65746955
:102DB000662F65746865726E65742E63000000008E
:102DC0006E657469662D3E6877616464725F6C65D8
:102DD0006E206D757374206265203620666F7220D8
:102DE00065746865726E65745F6F75747075742153
:102DF00000000000417373657274696F6E202225B4
:102E00007322206661696C6564206174206C696E50
:102E10006520256420696E2025730A0010B5040022
:102E200006D10BA340F217220EA112A0FEF756FD09
:102E3000732084F82C00742084F82D0017486061FA
:102E40001748A061204603F095FE002010BD000049
:102E50002E2E2F5372632F65746865726E657469C8
:102E6000662E63006E6574696620213D204E554CC8
:102E70004C000000417373657274696F6E202225E7
:102E80007322206661696C6564206174206C696ED0
:102E90006520256420696E2025730A00B52400088A
:102EA000316D000870B5054603F0E4FE040009D05A
:102EB0002A6929469047002804D02046BDE8704082
:102EC00005F054B970BD38B504468DF80000694668
:102ED0000320ABBE204638BD70B50D0004468560AA
:102EE00008D02846FDF7CCF9FF2805D22846FDF783
:102EF000C7F902E0002000E0FF202076207C0A28AD
:102F00000CD2DFE800F00B050B070B090C0C0C0CC6
:102F1000002002E0022000E00420207470BD204662
:102F2000BDE8704004210AF0BDB9002102680174B7
:102F300041748174D279C27501767047F8B5134631
:102F400004460D46042A33DB0878691C11F801CBCE
:102F500011F8012B11F8016B46EA02260A46042EED
:102F600026DB9E4224DC217C361F002920D001294B
:102F70001ED008283AD2DFE800F039040C14141CE3
:102F8000242901B033462046BDE8F040614600F0F8
:102F9000F3B901B033462046BDE8F040614600F089
:102FA000EBB81346014662462046009600F052F9FF
:102FB000F8BD01B033462046BDE8F040614600F060
:102FC0006DBA2046BDE8F84000F03ABA1046042E2B
:102FD000EEDB027843786068816B10A006F048F859
:102FE000207C0728E4D106202074F8BD61684F6B6F
:102FF0003FB113460146624620460096B847002876
:10300000F3D1361D0096A07C2B46401CC2B2A274A0
:103010000721204600F064FBF8BD000025733A202C
:103020005263766420436F64652D52656A656374EC
:1030300020666F7220636F64652025642C206964AC
:103040002025640070B5017C044600200125891EFE
:10305000082906D2DFE801F004060F11111111183A
:10306000207470BD25746068416A0029F9D020463B
:10307000BDE870400847207400E025742146BDE893
:103080007040054806F016BF6068016A09B1204625
:103090008847257470BD00006937000810B50446E4
:1030A000007C30B101280CD1607C400703D503209F
:1030B00006E0022004E00021204600F049FA062044
:1030C000207410BD10B50446007C0A281BD2DFE82E
:1030D00000F0051A0F1D1B1A1A1A1A1D0120207460
:1030E0006068416A00290ED02046BDE810400847BC
:1030F000607C400701D5032004E00021204600F059
:1031000027FA0620207410BD05202074607C8007FB
:10311000F9D52046FFF796FF2046BDE81040FFF79F
:10312000BDBF000010B50446007C801E08281FD2D9
:10313000DFE800F0080E040A0A0A0A1821460D48C2
:1031400006F0B8FE022004E021460A4806F0B2FE6E
:10315000032020746068816A002909D02046BDE8F8
:10316000104008472046BDE8104005210AF09AB8F3
:1031700010BD0000693700082DE9F84304460568D2
:10318000C07C0E461F469046B04229D1207B0028C5
:1031900026D16068C3682BB13A464146204698471D
:1031A00008B107E037B13A464146BDE8F84320A0F0
:1031B00005F01CBC012020730020A075217C06278F
:1031C000891E08290CD2DFE801F004040B0B0D1254
:1031D00017280090F2B200230621204600F080FA62
:1031E000BDE8F8830720207468792075F8E7214648
:1031F000174806F05FFE15E02146154806F05AFE16
:1032000009202074687920756068C1690029E7D0B9
:1032100001B02046BDE8F04308476068016A09B183
:10322000204688470021204600F092F92774D7E70E
:1032300052656365697665642062616420636F6EC0
:103240006669677572652D61636B3A2025500000D1
:10325000693700082DE9F8430446C07C1646DDF8BE
:1032600020901F46B04244D1207B002841D18046A7
:1032700003290BD084F816806068436953B34A462B
:10328000394620469847050024D012E0A07D401C16
:10329000C0B2A075E17D884201D3012300E0002384
:1032A0006068056995B14A4639462046A847050039
:1032B0000CD001202073207C0627801E082818D2FD
:1032C000DFE800F00F0F17171928192D4A46394665
:1032D00018A002E04A4639461EA0BDE8F84305F0B2
:1032E00085BBF2B2002306212046CDF8008000F015
:1032F000F7F9BDE8F88321461E4806F0DBFD002DF6
:1033000002DA03202074F4E72046BDE8F8430021E8
:1033100000F01EB92146174806F0CCFD04E06068B5
:10332000016A09B1204688470021204600F010F9C3
:103330002774DEE7526563656976656420626164BF
:1033400020636F6E6669677572652D6E616B3A20DA
:10335000255000005265636569766564206261648A
:1033600020636F6E6669677572652D72656A3A20B3
:1033700025500000693700082DE9FF430446007C12
:1033800000270626801E81B091468846082819D25B
:10339000DFE800F004130B0B1818180E0023424648
:1033A00006212046009700F09BF905B0BDE8F083A8
:1033B0006068016A09B1204688470021204600F074
:1033C000C7F826746068856965B1607DE17D8842D3
:1033D00001D3012300E0002304AA49462046A84760
:1033E000054604E0049808B1042500E0022504988D
:1033F0000090E9B24B464246204600F071F9207C2D
:10340000022D08D0072800D02674032DCDD1607D71
:10341000401C6075C9E7072803D008202074677531
:10342000C3E72146054806F045FD09202074606881
:10343000C1690029F3D020468847F0E769370008C2
:1034400070B50446007C042811D0052815D0062547
:1034500007280AD0092809D16068016A09B1204605
:1034600088470021204600F073F8257470BD21467E
:10347000094806F01FFD022004E02146064806F038
:1034800019FD032020746068816A0029EED020466F
:10349000BDE870400847000069370008F8B50446E9
:1034A0000568007C00269C460F46072804D00828A3
:1034B00002D0092825D102E00620207421E06068AE
:1034C000BCF1000F816B05DD1346624611A005F0CB
:1034D00097FA02E017A005F093FA267505202074EC
:1034E0006068016A09B1204688472146174806F0FE
:1034F000E1FC28794FF47A7148432246134906F0DB
:103500001FFCFAB2002306212046009600F0E8F8DE
:10351000F8BD00002573207465726D696E61746575
:10352000642062792070656572202825302E2A7605
:10353000290000002573207465726D696E617465E1
:1035400064206279207065657200000069370008A8
:10355000F8B504460668007C00250F4606280AD008
:10356000072808D0082806D06068016809B12046FD
:1035700088476575A5752FB970792075A07C401CAA
:10358000A074E07425736068416859B1806848B1DF
:10359000204688470090B6F8D010091F814202DA11
:1035A000009100E0009500980322083081B20420C9
:1035B00004F006F9050006D028896989884203D0FD
:1035C000284604F0D3FDF8BD6968FF2001F8010B1F
:1035D000032001F8010BE089000A01F8020BA07B2F
:1035E00001F8010C012001F8040BE07C01F8030C48
:1035F0000098001D000A01F8020C0098001D01F857
:10360000010C0098002810D060686A468368204644
:103610009847688900990838884206D00DA340F27F
:10362000F22219A123A0FEF759F92946304605F0E8
:1036300029FD207D2146401E2075284806F03AFCD1
:1036400030794FF47A7148432246244906F078FBDA
:10365000F8BD00002E2E2F4D6964646C6577617291
:1036600065732F54686972645F50617274792F4C6E
:103670007749502F7372632F6E657469662F70706F
:10368000702F66736D2E630063696C656E203D3D1F
:1036900020702D3E6C656E202D20484541444552DA
:1036A0004C454E202D205050505F4844524C454EC2
:1036B00000000000417373657274696F6E202225EB
:1036C0007322206661696C6564206174206C696E88
:1036D0006520256420696E2025730A00693700087B
:1036E0002DE9FF5FD0F8009080468A46B9F8D000F7
:1036F0000E9F011F9346B94200DA071F3D1D281D8A
:1037000081B20322042004F05BF806002AD030893D
:103710007189884205D004B03046BDE8F05F04F0FE
:1037200025BD74682FB13A4604F108000399FCF7EF
:1037300083FDFF20207003206070B8F80E00314632
:10374000000AA07098F80E00E07084F804A084F8D5
:1037500005B0280AA071E57104B04846BDE8F05FE5
:1037600005F090BCBDE8FF9F38B504460568007CB5
:10377000011F052921D2DFE801F0030328282800D2
:10378000217DD9B1207E0090A07CA368401CC2B2EC
:10379000A274E27405212046FFF7A2FF21461D48CE
:1037A00006F088FB28794FF47A714843224619497C
:1037B00006F0C6FA207D401E207538BD042802D0D0
:1037C000032020741CE00220FBE7207D00286068B5
:1037D0000DD0016B09B12046884701212046FFF733
:1037E000B7FE207C0728E8D10620207438BD816B05
:1037F00009A005F03DFC03202074607CC007F5D1D2
:103800006068816A0029F1D001B02046BDE83040EF
:10381000084700006937000825733A2074696D6510
:103820006F75742073656E64696E6720436F6E6692
:1038300069672D5265717565737473004FF0FF30C1
:1038400070470A46032100F0F3B800002DE9FE4F4F
:103850008A4643490546D1F8088098F800000007D9
:10386000840E142C76D36889042873D36868007892
:1038700000286FD008286DD1486901F11407C0F302
:1038800003120E2A66D08946096800F05BF9002809
:1038900060D1288908285DD304F10E010E46284620
:1038A00004F02CFD00282DD028890022204481B26C
:1038B000022003F085FF06004CD0718904F1080056
:1038C000814216D3224641467068FCF7B5FC61423E
:1038D000304604F013FD002806D022A3AF222FA10A
:1038E0003CA0FDF7FBFF04E02946304604F040FA17
:1038F00018B1304604F03AFC2CE0284604F036FCBF
:1039000035460CE07142284604F0F8FC002806D049
:1039100014A3C02239A12FA0FDF7E0FF1AE0214631
:1039200028466E6804F0EAFCA0B968683968FF228E
:10393000C160D9F8101001610021317071800272EC
:10394000418101228DE806040A46FF2339462846B4
:1039500000F00CFB2846BDE8FE4F04F007BC000059
:10396000546100202E2E2F4D6964646C657761725E
:1039700065732F54686972645F50617274792F4C5B
:103980007749502F7372632F636F72652F6970765A
:10399000342F69636D702E630000000069636D70E1
:1039A0005F696E7075743A206D6F76696E6720720C
:1039B0002D3E7061796C6F616420746F2069636D56
:1039C0007020686561646572206661696C65640A6F
:1039D00000000000417373657274696F6E202225C8
:1039E0007322206661696C6564206174206C696E65
:1039F0006520256420696E2025730A0069636D7057
:103A00005F696E7075743A20726573746F72696E57
:103A100067206F726967696E616C20702D3E7061FE
:103A2000796C6F6164206661696C65640A000000EE
:103A30002DE9FF47914688460646002224210120B1
:103A400003F0BEFE050031D06889242806D218A3F1
:103A500040F2611224A12FA0FDF740FF6C68776847
:103A60001C2284F8008084F801904FF00008A4F82C
:103A70000480A4F80680686871680830FCF7DCFBF5
:103A8000F868039003A800F011FC60B1A4F802806C
:103A90000122CDF80080CDE90120FF2303AA0021F7
:103AA000284600F063FA284604F060FBBDE8FF8773
:103AB0002E2E2F4D6964646C6577617265732F5487
:103AC000686972645F50617274792F4C7749502F26
:103AD0007372632F636F72652F697076342F696319
:103AE0006D702E6300000000636865636B2074686E
:103AF00061742066697273742070627566206361F8
:103B00006E20686F6C642069636D70206D657373DF
:103B100061676500417373657274696F6E20222559
:103B20007322206661696C6564206174206C696E23
:103B30006520256420696E2025730A000A460B2142
:103B4000FFF776BF421C12D088B191F82B20920764
:103B50000BD54B68834208D0896800EA01020B400C
:103B60009A4202D10143491C01D000207047012034
:103B7000704700002DE9F74F86B0044607980025EE
:103B80001427408CAE1F1438C11700EB5170C0F3DE
:103B9000CF0B60680590017801F00F01052904D072
:103BA00056A340F2E12264A10BE0C08803F016F9AD
:103BB000C0F30C01029180040AD550A340F2E62222
:103BC00067A16EA0FDF78AFE304609B0BDE8F08F10
:103BD000208914381FFA80F880E000BFB8EBCB0FC3
:103BE00001D34FEACB0080B20390002214210220BF
:103BF00003F0E6FD5FEA000A78D06089142806D257
:103C00003EA34FF4427267A15CA0FDF767FE142249
:103C1000DAF804000599FCF70FFBDAF804000490C9
:103C2000039E2BE06089C01B85B2AE4200D23546B0
:103C300015B3052003F032FC5FEA000953D0606839
:103C40004B463844CDE9000502222946042003F002
:103C500075FF0090F0B3204604F0C4FC5949C9E94F
:103C600004145046009903F0D9FF701B0604360C6B
:103C700006D000272468D5E724680027002ED1D17C
:103C8000781987B20798418C029814394145C0F3DE
:103C90000C0001DA40F4005003F0A0F80499C88049
:103CA0000398143080B203F099F80499488004987E
:103CB0000021418107985146089A43699847504628
:103CC00004F054FA0398A8EB00001FFA80F8029859
:103CD000584401E00DE009E080B20290B8F1000024
:103CE0007FF47CAF71E7504604F040FA4FF0FF30AC
:103CF0006BE7484600F008FBF5E700002E2E2F4D3D
:103D00006964646C6577617265732F546869726465
:103D10005F50617274792F4C7749502F7372632F03
:103D2000636F72652F697076342F6970345F6672C5
:103D300061672E63000000006970345F667261671E
:103D4000282920646F6573206E6F742073757070FE
:103D50006F7274204950206F7074696F6E73000029
:103D600069705F6672616728293A204D4620616C50
:103D70007265616479207365740000004173736536
:103D80007274696F6E2022257322206661696C65EA
:103D900064206174206C696E6520256420696E2042
:103DA00025730A0074686973206E65656473206109
:103DB000207062756620696E206F6E65207069657F
:103DC00063652100115A00082DE9F05F4568064639
:103DD0000F4628780421B1EB101F03D0304604F0C1
:103DE000C5F98DE000F00F004FF6FF7101EA800881
:103DF000688802F0F3FF04463089A04203D92146C7
:103E0000304604F023FB71894145E7D33089A04255
:103E1000E4D3B8F1140FE1D32969DFF848A1C1F365
:103E200003100E28CAF81410EA68CAF8102014D03B
:103E3000DFF834B14FF001093C4600BF94F82B0085
:103E4000C00712D0616881B1DAF81400884220D02E
:103E50002146FFF777FEE0B907E097F82B00C0078F
:103E60000FD0786868B13C4613E0B9F1000F0AD072
:103E70009AF814007F2804D04FF00009DBF80040C6
:103E800002E0002405E02468BC4200D12468002C34
:103E9000D4D13946DAF81000FFF754FE00289DD13E
:103EA0009AF81000D146C0F303100E2896D0002CCB
:103EB00094D0E88830F0C00005D0304600F01CF9FE
:103EC00006001DD07568C9F80850C9E9004729786F
:103ED00030460907890EA9F80C10C8F1000104F05A
:103EE0000DFA687A012818D0062811D011280AD0B6
:103EF0004F462146D9F81400FFF724FE90B11FE089
:103F00000020BDE8F09F3946304609F067FA1AE014
:103F10003946304606F056FC15E039463046FFF784
:103F200095FC10E0387DC0F303100E2808D0414600
:103F3000304604F0E6F9022130467560FFF781FC57
:103F4000304604F013F90021C9F80010C9F8041034
:103F5000C9F80810A9F80C10C9F81010C9F8141005
:103F6000CEE700005461002090000020FEB5DDE99E
:103F70000954089E1AB109B10F6807B9211D0096AE
:103F8000CDE9015400F002F8FEBD00002DE9F84F24
:103F90000546DDE90BA8C089DDF828B01F461646A6
:103FA0008946012806D02CA340F2333237A13AA02B
:103FB000FDF794FC002E38D01421284604F09EF919
:103FC00018B16FF00100BDE8F88F68896C6814289B
:103FD00006D221A34FF4587239A12FA0FDF77EFC21
:103FE000277284F809A0306820614520207084F889
:103FF00001B0288902F0F2FE3D4F60804FF0000AC8
:10400000A4F806A0388802F0E9FEA0803888401C99
:104010003880B9F1000F05D0D9F80000E060A4F8AD
:104020000AA006E033480068F8E768686E46006951
:104030000090B8F8220040B12989814205D9324662
:1040400041462846FFF796FDBDE7D8F814304046B4
:10405000324629469847B6E72E2E2F4D6964646C88
:104060006577617265732F54686972645F5061721D
:1040700074792F4C7749502F7372632F636F726579
:104080002F697076342F6970342E6300702D3E7264
:104090006566203D3D203100417373657274696F20
:1040A0006E2022257322206661696C65642061742C
:1040B000206C696E6520256420696E2025730A00D6
:1040C000636865636B2074686174206669727374D9
:1040D00020706275662063616E20686F6C64207367
:1040E00074727563742069705F6864720000000008
:1040F000F6000020E4E000082DE9F05F4568834603
:10410000287800F00F0005287DD1E88802F066FECF
:10411000C004070C688802F061FE297801F00F01E5
:10412000494200EB81001FFA80F8584603F017FE61
:104130005D4C0646208830440A2809D93146284675
:1041400000F080FB00285ED0208830440A285AD82E
:10415000A14664684FF0000A0CE06069E968884293
:1041600007D1A0692969884203D1A089A98888421A
:1041700003D02468002CF0D106E02CB1E88802F0CE
:104180002DFEC0041BD025E0042003F087F90400B5
:104190000AD13146284600F055FBB0427FDB0420AF
:1041A00003F07CF904007AD02021FCF75EF80320AC
:1041B000E077D9F804102160C9F8044004E0E089F0
:1041C00002F00CFEC00405D01422294604F10800B8
:1041D000FCF732F8A87940F340156D1C08D007EBC6
:1041E000080080B2B8425AD34FF6EB71884256D8D5
:1041F0002A465946204600F0CFF8411C4FD0B9F866
:104200000020324400E04AE0A9F8002035B107EB75
:104210000801A183A17F41F00101A17701283CD1D0
:10422000A08B14221430A083606804F10801456853
:1042300028462E68FCF700F8A08B02F0CFFD6880BE
:10424000A5F806A0A5F80AA06FF01308656809E0B4
:1042500041463046776804F051F83146284603F06D
:10426000DDFC3E68002EF3D1D9F804104E468C4296
:1042700005D1002105E00868A04202D001460029CE
:10428000F9D1204600F0B8F9284603F068FD3188DE
:10429000081A30802846BDE8F09F0020FBE758460A
:1042A00003F064FFF9E70000F800002070B5044651
:1042B000134813E090F82B10CA070FD04A070DD50A
:1042C00043685BB182682568134005EA02069E4296
:1042D00014D0890702D4C1688D420FD0006800282D
:1042E000E8D10848006840B190F82B10CA0704D004
:1042F000490702D54168002900D1002070BD0000A7
:10430000900000209400002010B5040006D106A300
:1043100040F2AE2213A116A0FDF7E0FA2146BDE857
:104320001040052003F002B82E2E2F4D6964646CF6
:104330006577617265732F54686972645F5061724A
:1043400074792F4C7749502F7372632F636F7265A6
:104350002F697076342F6970345F667261672E63DF
:10436000000000007020213D204E554C4C00000004
:10437000417373657274696F6E2022257322206603
:1043800061696C6564206174206C696E65202564C8
:1043900020696E2025730A002DE9F0474C68064617
:1043A00092460F4600254FF00108608802F016FD86
:1043B000217801F00F01494200EB8109E08802F009
:1043C0000DFDC0047C68010C0020206001EB090099
:1043D000A18083B2E380726826E05068B0F804C020
:1043E000614515D222606DB1B5F806C061457BD339
:1043F0008088834278D82F60A088844506D04FF00B
:10440000000803E0808883426ED8776072B12DE0A7
:104410006AD0C288914267D325B1EA88624501D04B
:104420004FF0000802680546002AD6D1002D12D0B0
:10443000E888A188884206D932A340F2AB1240A195
:1044400047A0FDF74BFA2F60E888A18888420DD07D
:104450004FF000080AE07068002806D029A340F257
:10446000B31249A13EA0FDF739FA7760BAF1000F07
:1044700002D1B07FC00732D0B8F1000F32D07268DD
:10448000002A2FD05068808800282BD12168204630
:1044900029B14C68C088A1888842F7D022E0B8F1E1
:1044A000000F1FD032B917A34FF4EA7244A12CA019
:1044B000FDF714FA70684068A04206D111A340F2DB
:1044C000D5123FA126A0FDF709FA206830B10DA34F
:1044D00040F2D7123EA122A0FDF700FA0120BDE86C
:1044E000F08701E00020FAE7384603F038FC014687
:1044F00040480288511A0180384603F037FE4FF0D9
:10450000FF30ECE72E2E2F4D6964646C6577617285
:1045100065732F54686972645F50617274792F4CAF
:104520007749502F7372632F636F72652F697076AE
:10453000342F6970345F667261672E63000000007B
:10454000636865636B20667261676D656E74732066
:10455000646F6E2774206F7665726C617000000066
:10456000417373657274696F6E2022257322206611
:1045700061696C6564206174206C696E65202564D6
:1045800020696E2025730A006E6F2070726576694F
:104590006F757320667261676D656E742C20746828
:1045A0006973206D75737420626520746865206678
:1045B0006972737420667261676D656E74210000A4
:1045C00073616E69747920636865636B0000000035
:1045D00076616C69646174655F646174616772615E
:1045E0006D3A6E6578745F70627566213D4E554C0C
:1045F0004C000000F800002070B504460C480D4641
:104600004168A14202D1216841600AE0002D06D133
:1046100008A340F2451216A11CA0FDF75FF920681F
:1046200028602146BDE87040042002F07FBE0000F3
:10463000F80000202E2E2F4D6964646C657761723E
:1046400065732F54686972645F50617274792F4C7E
:104650007749502F7372632F636F72652F6970767D
:10466000342F6970345F667261672E63000000004A
:1046700073616E69747920636865636B206C696E21
:104680006B6564206C69737400000000417373658E
:104690007274696F6E2022257322206661696C65D1
:1046A00064206174206C696E6520256420696E2029
:1046B00025730A002DE9F047054600240F46A9425C
:1046C00005D12FA3AB223DA13FA0FDF707F9002F95
:1046D00008D03868A84205D029A3AD2244A13AA049
:1046E000FDF7FCF86E684FF4803870688188002907
:1046F0001AD100686860142205F108017068FBF7A0
:104700009BFD01213046FFF719FA304603F027FBE5
:104710000446404505D31AA3BC223AA12AA0FDF7BE
:10472000DDF8304603F022FD6E6812E07068B14695
:104730000668484603F013FB0444444505D310A320
:10474000CC2230A120A0FDF7C9F8A4B2484603F05E
:104750000DFD002EEAD139462846FFF74DFF314DB9
:104760002888A04205D206A3D2222FA116A0FDF7C9
:10477000B5F82888001B28802046BDE8F087000097
:104780002E2E2F4D6964646C6577617265732F54AA
:10479000686972645F50617274792F4C7749502F49
:1047A0007372632F636F72652F697076342F69702F
:1047B000345F667261672E63000000007072657678
:1047C00020213D2069707200417373657274696FB6
:1047D0006E2022257322206661696C6564206174F5
:1047E000206C696E6520256420696E2025730A009F
:1047F000707265762D3E6E657874203D3D2069703F
:104800007200000070627566735F66726565642091
:104810002B20636C656E203C3D20307866666666B2
:1048200000000000F800002069705F72656173731A
:104830005F70627566636F756E74203E3D20636CB9
:10484000656E00002DE9F0471D4F8946064600249D
:104850000022134611461546786822E0D0F814C0AD
:10486000D6F80C80C4450BD1D0F818C0D6F810800B
:10487000C44505D1B0F80CC0B6F80480C44509D0D1
:104880006D1C2AB190F81FC092F81F80C44501D852
:1048900002461946D0F800C0BCF1000F00D0034614
:1048A00060460028DAD11AB11046FFF703FF04442E
:1048B0004C4501DA012DCBDC2046BDE8F087000035
:1048C000F800002070B50948002544680BE0E07F3F
:1048D00020B1401EE0772546246804E02046246885
:1048E0002946FFF7E7FE002CF1D170BDF80000204B
:1048F00070B50C46006841F2182145181646286824
:10490000C10732D1800730D5B2F10A067ED414F83F
:10491000011B14F8010B0A2878D1012976D114F86B
:10492000010B010214F8010B0843010214F8020BF9
:104930000843010214F8010C084302F04DFA6968BB
:10494000814263D114F8010B010214F8010B0843F2
:10495000010214F8020B0843010214F8010C084389
:1049600002F03AFAA968814250D12868010724D59B
:10497000C10601D5042100E00621761A7BD414F883
:10498000012B14F8013B8B4275D1022A73D114F824
:10499000011B0A0214F8011B1143AA8A8A426AD138
:1049A000C1060AD414F8011BAA7D8A4263D114F807
:1049B000011BC0F340128A425DD1C0071CD0B61F54
:1049C00059D414F8011B14F8010B062853D10329FC
:1049D00051D114F8010B010214F8010B0843010234
:1049E00014F8020B0843010214F8010C084302F00A
:1049F000F3F9696881423ED12888C0051ED5B61FEB
:104A000039D414F8010B14F8011B00E033E0062937
:104A100031D181282FD114F8010B010214F8010BB8
:104A20000843010214F8020B0843010214F8010CB8
:104A3000084302F0D1F9E96881421CD12888800539
:104A400018D5B61F17D414F8010B14F8011B06294A
:104A500011D183280FD12078010260780843010228
:104A6000A07808430102E078084302F0B5F929690B
:104A7000814200D10EB1002070BD012070BD2DE932
:104A8000F0411646006841F2182284183568206803
:104A9000C20725D1820723D50A2D1EDB012001F88C
:104AA000010B0A2008704F1C606802F095F9010E96
:104AB0003970010C7970010AB970F870A06802F0C1
:104AC0008BF9010E3971010C7971010A07F8061F83
:104AD000791C0A3D01F8010B02E020F00200206081
:104AE0002268100722D5D00601D5042000E0062058
:104AF000854218DB022201F8012B01F8010BA28A82
:104B0000120A01F8022B227D01F8012C2278D2062C
:104B100007D4A27D01F8012B2278C2F3401201F8DC
:104B2000012B2D1A02E022F00800206020684FF0CF
:104B30000608C2071AD0062D15DB032001F8010B69
:104B40004F1C81F80080606802F046F9010E07F8FA
:104B5000011B010C07F8011B010A3970791CAD1FFC
:104B600001F8010B02E020F0010020602068C2057E
:104B700018D5062D13DB8120087081F801804F1CA9
:104B8000E06802F029F9010E7970010CB970020A8F
:104B900007F8032F791CAD1F01F8010B02E020F488
:104BA000807020602068820515D5062D10DB8320DB
:104BB000087081F801804F1C206902F00DF9010E88
:104BC0007970010CB970010AF9703871AD1F02E0FB
:104BD00020F4007020603068401B3060BDE8F08138
:104BE00030B5016841F21820084401F5905241F2B5
:104BF000482319440368DC0709D09C0707D50C68D3
:104C0000E50704D1A40702D523F00103036012785D
:104C100012070ED51A461B070BD4D30609D40B680E
:104C20001C0706D5DB0604D542F018020260898A0B
:104C300081820068C10703D1810701D50A2100E004
:104C40000021020705D5C20601D5042202E0062292
:104C500000E000221144C20700D006221144C20520
:104C600001D5062200E000221144800501D506206E
:104C700000E00020084430BD41F2E4121044FEF789
:104C80002BB970B5046841F24820261841F218206B
:104C90002518206A410306D520F4802020622121B6
:104CA000204602F056FD00231A461946204605F01C
:104CB00002F8204604F0E1FF20466968B268FCF77C
:104CC00035FFD5E903122046BDE87040FCF712BF5E
:104CD0000068016A8A0305D521F4003101622121AF
:104CE00002F044BD7047000070B5014641F2E41087
:104CF0000D1841F230200E1848F221002960E88199
:104D00001348686001F590542846FEF70EF96420B8
:104D1000E875206840F00200410861F3000040F0AF
:104D2000080020602D20A0820F21A175206840F08E
:104D3000200020603068B17540F00200420862F344
:104D4000000040F0080040F02000306070BD00001E
:104D5000B4DC000841F2E4131844FEF7EFB841F266
:104D6000E4110844FEF76EB941F2E4110844FEF77D
:104D700095B900002DE9F04381460C46006841F2E8
:104D8000182145188DB01F46164618216846FBF7B6
:104D90006CFA1822294606A8FBF74EFA2868C107C4
:104DA0003BD1800739D560780A2836D10A2E34DB0A
:104DB0002078012831D1A0780A3E0102E07808432A
:104DC00001022079084301026079084302F004F8E7
:104DD0008046A0790102E07908430102207A084365
:104DE0000102607A0A34084301F0F6FF009941F0AD
:104DF0000201009127B1069820F0020006900CE015
:104E00002978490604D5B8F1000F01D0CDF81C80EF
:104E10002978090601D500B108902878000739D50E
:104E20006178042901D0062934D18E4232DB207802
:104E300002282FD1A078761A0202E0781043009A57
:104E4000241D42F0080200921FB1069820F00800CD
:104E50001FE006290AD02D2801D03728F5D1069960
:104E600041F010010691ADF82C0013E014F8011B7D
:104E70002D2814F8012BE8D1069820F01000069098
:104E8000A87D884201D98DF82E101AB9069820F015
:104E9000200006902878C00724D06078062821D109
:104EA000062E1FDB207803281CD1A078B61F010234
:104EB000E078084301022079084301026079A41DCB
:104EC000084301F089FF009941F00101009127B1E9
:104ED000069820F00300069004E02978490601D5E1
:104EE00000B107902888C00520D5607806281DD11C
:104EF000062E1BDB2078812818D1A078B61F01026E
:104F0000E078084301022079084301026079A41D7A
:104F1000084301F061FF009941F48071009127B1CD
:104F2000069820F48070069000E00990288880059B
:104F30001ED5607806287DD1062E7BDB207883285D
:104F400078D1A078B61F0102E078084301022079E9
:104F5000084301026079A41D084301F03DFF009958
:104F600041F40071009127B1069820F4007006907A
:104F700060E00A905EE000BF14F8011B14F8010B1A
:104F800002287DD3361A7BD42718BF1E032960D090
:104F900004DC012915D002294BD104E0812970D00D
:104FA000832946D19DE02978090769D4009909072A
:104FB00066D4062801D0042862D1009840F0080089
:104FC00036E02968CA0701D1890759D400998907B1
:104FD00056D40A2854D1069820F00100069014F8FF
:104FE000010B010214F8010B0843010214F8020B33
:104FF0000843010214F8010C084301F0EDFE18B15A
:105000002978490600D50790207801026078084386
:105010000102A0780843E17841EA002001F0DCFEBB
:1050200018B12978090600D50890009840F00200D0
:1050300000903C46022E9FDA99F81000092804D00F
:10504000182206A92846FBF7F7F801200DB0BDE8A5
:10505000F0832978C9074CD10099C90749D106289E
:1050600047D1069820F0020006902078010260786F
:1050700008430102A0780843E17841EA002001E0FA
:1050800037E011E001F0A8FE20B12978490601D5EA
:10509000079001E0079818B1069840F001000690CB
:1050A000009840F00100C3E72988C90521D4009980
:1050B000C9051ED406281CD1207801026078084357
:1050C0000102A0780843E17841EA002001F084FE63
:1050D0000990069840F480700690009840F4807023
:1050E000A6E72988890504D40099890501D40628F2
:1050F00001D00020AAE7207801026078084301026D
:10510000A0780843E17841EA002001F065FE0A90AA
:10511000069840F400700690009840F4007087E70D
:1051200010B5044641F2E4102044FDF7CBFF206A9D
:1051300040F40030206210BD41F2E4110844FDF754
:1051400081BFF0B507460C46006841F218214618A9
:1051500087B01546182231466846FBF76DF830686F
:10516000C10731D180072FD560780A282CD10A2DAC
:105170002ADB2078012827D1A0780A3D0102E078B7
:10518000084301022079084301026079A41D084305
:1051900001F022FE716881427DD114F8010B0102F9
:1051A00014F8010B0843010214F8020B0843010232
:1051B00014F8010C084301F00FFEB16881426AD176
:1051C000009820F0020000903068010726D5617831
:1051D000C20601D5042200E0062291421ED1A94256
:1051E0001CDC2278022A19D16D1AA178E278241DDC
:1051F00042EA0122B18A914271D1C1060AD414F85F
:10520000011BB27D8A426AD114F8011BC0F340121F
:105210008A4264D1009921F008010091C0071CD096
:105220006078062819D1062D17DB2078032814D1C1
:10523000A078AD1F0102E0780843010220790843FD
:1052400001026079A41D084301F0C6FD7168814226
:1052500045D1009820F0010000903088C0051ED58F
:10526000607806281BD1062D19DB2078812816D1FD
:10527000A078AD1F0102E0780843010220790843BD
:1052800001026079A41D084301F0A6FDF168814286
:1052900025D1009800E022E020F480700090308852
:1052A00080051BD56078062818D1062D16DB2078DE
:1052B000832813D1A078AD1F0102E07808430102D2
:1052C00020790843617941EA002001F085FD3169C8
:1052D000814204D1009820F40070009015B10020A4
:1052E00007B0F0BD387C092804D018226946304642
:1052F000FAF7A2FF0120F3E72DE9FF4F07688FB00F
:1053000041F248203844039041F2302038440B9059
:105310001198884607F590590668022518210398C8
:10532000FAF7A3FF4446C34694E102200C90584686
:10533000CDF804B0022E04DB4178022901D3B1423A
:1053400003DD1FFA86FA002677E110F8022B8A4661
:10535000A6EB0A06D344032A70D004DC012A07D046
:10536000022AF1D10BE1812A01D0832AECD1CFE0CE
:105370000B9909788907E7D503990978C907E3D11B
:10538000BAF10A0FE0D110F8011B0A0210F8011B54
:1053900011430A0210F8021B11430A0210F8011C03
:1053A00000901143084601F017FD0A90D9F8080053
:1053B0000A99884219D019B199F80010090616D433
:1053C00003210C91129991B90099091F009101F0E4
:1053D00003FD0099020E0A700099020C4A70020A3D
:1053E0008A70C870091D009101E001B9F8B10098F8
:1053F000007802020098417811430A028178114333
:105400000A02C178001D11430090084601F0E4FC37
:105410000690D9F80410814225D018B199F80000FF
:1054200040061DD403200C90129840B11BE0D9F81F
:10543000000020F00401C9F80010FEE020E0009810
:10544000001F0090084601F0C7FC0146020E0098BC
:10545000027000980A0C42700A0A8270C17002E061
:105460000698C9F804000398006840F00201039808
:10547000016003990A988860039906984860CFE014
:105480000B990978C90779D003990978890775D4E8
:10549000BAF1060F72D110F8011B0A0210F8011BB5
:1054A00011430A0210F8021B11430A0210F8011CF2
:1054B00000901143084601F08FFC0A90D9F80800CB
:1054C0000A99884217D019B199F80010090615D425
:1054D00003210C91129989B90099091F009101F0DB
:1054E0007BFC0099020E0A700099020C4A70020AB5
:1054F0008A70C87002E009B9002898D00398006843
:1055000040F001010398016003990A98886087E0E0
:10551000832A0AD000210B9A02EB81010691C96807
:1055200061B3BAF1060F29D101E00121F3E710F8C8
:10553000011B0A0210F8011B11430A0210F8021B9A
:1055400011430A0210F8011C00901143084601F0B3
:1055500043FC0699C96888426AD00098001F0090F1
:10556000084601F039FC0146020E009802700098CE
:105570000A0C42700A0A8270C1705CE05DE00B990F
:105580000978090759D5BAF1060F02D0BAF1040F0C
:1055900053D110F8011B0A0210F8011B11432D29E9
:1055A00004D0372949D1BAF1040F46D1039A039B9D
:1055B000BAF1060F126842F008021A60039B998242
:1055C00009D0039942F010000F228A7540F02001A3
:1055D000039801602CE00B9A10F8011B927D8A421F
:1055E00005D203230C93129B0BB900F8012C10F881
:1055F000012B6AB10B9B1B789B0609D403230C93E8
:10560000129B2BB999F80030C3F3401300F8013C0A
:105610000398817503980399006862F34510086048
:105620000C98022804D0032805D0042805D008E0EF
:10563000022D0FD105E01298B0B1042D01D0042540
:1056400044460198844204D0014652462046FAF767
:10565000F3FD5444002E7FF468AE042D2DD0039842
:105660000068C10706D028E0042DF3D0022DE8D150
:105670000325E5E7800720D4D9F8000041071CD5B1
:105680001299D1B93978490717D4022D05D120F0E4
:10569000040103254446C9F80010032020700620A9
:1056A0006070D9F8080001F097FB010EA170010CA1
:1056B000E170010A21716071A41D1198A4EB080129
:1056C000016013B02846BDE8F08F70B5046841F260
:1056D0001820251841F2302004F59051221808684E
:1056E000C30701D1830707D51268D30701D19207F9
:1056F00002D540F0040001E020F0040008604A6890
:1057000012B940F040000860886818B9086840F095
:10571000800008602278086862F34920420A62F338
:105720000820086018222846FAF786FD206AC00380
:1057300001D40020686041F248202044BDE8704058
:105740001821FAF792BD00002DE9F0418046066865
:1057500041F24820351841F218203418286806F51F
:105760009057C10703D1800701D4B868A8602068AA
:10577000C1070FD180070DD43868C10701D1800758
:1057800008D5786830B143A003F030F94BA1D8F8C0
:1057900000007BE0606810B1A86838B111E04DA04E
:1057A00003F024F94BA1D8F800006FE030784007EF
:1057B00007D4524801F010FB0146A86050A003F046
:1057C00057FC2088C1054FF0000000D4E06021881C
:1057D000890500D420613078C00707D0E16809B995
:1057E000206918B13046226904F02DFAA868A0B1EA
:1057F00001F0F2FA7F21B1EB106F07D00E21B1EB6F
:10580000107F03D00F21B1EB107F06D14AA0A96809
:1058100003F0ECF854A1304638E02878AB7DC0F3B3
:105820004012C0F3C001304604F045FA6068FEF74C
:1058300005F80346AA683046616804F012FA10B30E
:10584000304604F024FAF0B1606878604EA06168D8
:1058500003F0ABF9A96811B151A003F0A6F9E16812
:1058600011B155A003F0A1F9216911B159A003F0BC
:105870009CF92121304601F095FF306A40F48020E8
:105880003062BDE8F081D8F8000059A1BDE8F041D0
:10589000FFF7F2B9506565722072656675736564CD
:1058A00020746F20616772656520746F206F757258
:1058B0002049502061646472657373005265667597
:1058C000736564206F75722049502061646472654D
:1058D00073730000436F756C64206E6F7420646591
:1058E0007465726D696E65206C6F63616C204950E0
:1058F0002061646472657373000000004040400AD8
:10590000436F756C64206E6F742064657465726D8E
:10591000696E652072656D6F746520495020616401
:1059200064726573733A2064656661756C74696E40
:105930006720746F202549005065657220697320C7
:105940006E6F7420617574686F72697A6564207413
:105950006F207573652072656D6F74652061646476
:105960007265737320254900556E617574686F7296
:10597000697A65642072656D6F7465204950206195
:1059800064647265737300006C6F63616C202049FE
:105990005020616464726573732025490000000023
:1059A00072656D6F7465204950206164647265731F
:1059B00073202549000000007072696D61727920C2
:1059C0002020444E5320616464726573732025491E
:1059D000000000007365636F6E6461727920444E4D
:1059E00053206164647265737320254900000000D0
:1059F000496E7465726661636520636F6E66696780
:105A000075726174696F6E206661696C656400000F
:105A100010B5040006D108A34FF42E7215A118A0EA
:105A2000FBF75CFF606908B102F0A0FB2046BDE80F
:105A30001040FEF769BC00002E2E2F4D6964646C87
:105A40006577617265732F54686972645F50617223
:105A500074792F4C7749502F7372632F636F72657F
:105A60002F697076342F6970345F667261672E63B8
:105A70000000000070637220213D204E554C4C0008
:105A8000417373657274696F6E20222573222066DC
:105A900061696C6564206174206C696E65202564A1
:105AA00020696E2025730A0070B5006850F8643FC5
:105AB0005C0716D54488A4F5A065DC3D11D0121F03
:105AC0007ED411F8015B11F8016B042E78D1012D01
:105AD00076D111F8015B2E0211F8015B3543AC421F
