:020000040800F2
:10000000B08F0020650100085D2300088D1F0008E7
:1000100059230008350500083925000800000000B4
:10002000000000000000000000000000C9230008DC
:1000300089050008000000005F230008CD230008A8
:100040007F0100087F0100087F0100087F01000890
:100050007F0100087F0100087F0100087F01000880
:100060007F0100087F0100087F0100087F01000870
:100070007F0100087F0100087F0100087F01000860
:100080007F0100087F0100087F0100087F01000850
:100090007F0100087F0100087F0100087F01000840
:1000A0007F0100087F0100087F0100087F01000830
:1000B0007F0100087F0100087F0100087F01000820
:1000C0007F0100087F0100087F0100087F01000810
:1000D0007F0100087F0100087F0100087F01000800
:1000E0007F0100087F0100087F0100080000000078
:1000F0000000000000000000000000000000000000
:1001000000000000000000007F0100087F010008DF
:100110007F0100087F0100087F0100087F010008BF
:100120007F0100087F0100087F0100087F010008AF
:100130007F010008190600087F0100087F01000800
:100140007F0100087F0100087F0100087F0100088F
:10015000DFF80CD000F054F90048004755CE0008F5
:10016000B08F00200648804706480047FEE7FEE7BC
:10017000FEE7FEE7FEE7FEE7FEE7FEE7FEE7FEE757
:10018000D5240008510100082DE9F05F0546002044
:1001900092469B4688460646814640241BE02846F8
:1001A00041464746224600F020F853465A46C01AB8
:1001B000914110D311461846224600F0DAF82D1A64
:1001C00067EB01084F4622460120002100F0D1F8DC
:1001D00017EB00094E41201EA4F10104DFDC484664
:1001E00031462A464346BDE8F09F202A04DB203AE8
:1001F00021FA02F00021704721FA02F3D040C2F147
:10020000200291400843194670470000004870479B
:100210005CE801080649074A0868504343F239027E
:1002200010440860400870470149086070470000AA
:10023000400100206D4EC64140EA01039B0703D0F8
:1002400009E008C9121F08C0042AFAD203E011F815
:10025000013B00F8013B521EF9D27047D2B201E0D7
:1002600000F8012B491EFBD270470022F6E710B5BB
:1002700013460A4604461946FFF7F0FF204610BD14
:1002800030B505462A460B4612F8010B13F8014B10
:1002900008B1A042F8D01CB1002802D06D1CF1E7D3
:1002A000284630BDCAB2401E10F8011F8A4202D053
:1002B0000029F9D100207047421C10F8011B0029C9
:1002C000FBD1801A704710B5002200E0521C835CFD
:1002D0008C5CA34201D1002BF8D1D8B2E1B2401A14
:1002E00010BD30B504460020034600E05B1C93427D
:1002F00003D2E05CCD5C401BF8D030BD034611F862
:10030000012B00F8012B002AF9D11846704730B5AF
:1003100005460020034600E05B1C934205D2EC5CDE
:10032000C85C201A01D1002CF6D130BD70B506464C
:1003300002F030F9046805460A220021304600F038
:1003400027F82C6070BD30B50B46014600202022F6
:10035000012409E021FA02F59D4205D303FA02F5D2
:10036000491B04FA02F52844151EA2F10102F1DC32
:1003700030BD202A04DB203A00FA02F10020704749
:100380009140C2F1200320FA03F3194390407047D3
:100390002DE9F04791460F4680460446002614F8A2
:1003A000015B2DB1FFF732FF0068405DC007F6D159
:1003B0002B2D02D02D2D18D0641E4A4639462046DA
:1003C00000F030F827B13968A14201D1C7F80080A8
:1003D00071054FF002040BD54042002803DD02F006
:1003E000D9F80460A007BDE8F08746F48066E4E72A
:1003F0000028F8DA02F0CEF804606FF00040F2E76F
:10040000064C074D06E0E06840F0010394E8070061
:1004100098471034AC42F6D3FFF79EFED8EA0108A5
:10042000F8EA01082DE9F05F8246007800271546BA
:100430008B460AF10104B946302801D09DB113E082
:1004400014F8010B0127782803D0582801D045B1B2
:100450000AE00DB1102D07D10027102514F8010B6B
:1004600002E0082500E00A250026B0460EE005FB64
:10047000080005FB06F1012701EB10461FFA80F882
:10048000B6F5803F00D3B94614F8010B294600F0B9
:1004900018F80028EBDABBF1000F05D00FB1641E8D
:1004A00000E05446CBF80040B9F1000F06D002F04E
:1004B00071F802210160C81EBDE8F09F48EA0640BD
:1004C000FAE73A2800D2303820F02002412A01D33E
:1004D000A2F13700884201D34FF0FF30704770B56A
:1004E0008C1810F8015B15F0070301D110F8013BDF
:1004F0002A1106D110F8012B03E010F8016B01F866
:10050000016B5B1EF9D12B0705D40023521E0DD4BD
:1005100001F8013BFAE710F8013BCB1A921C03E00B
:1005200013F8015B01F8015B521EF9D5A142D8D343
:10053000002070BD00BFFEE72DE9F04105460E46E4
:1005400017461C460B482168FFF7BDFE78B12068AE
:10055000FFF7B2FE32280AD2012007490870322183
:100560000448FFF782FE03482168FFF7C7FE03A097
:10057000BDE8F08160010020000000202F646E7350
:100580002E7368746D6C00007047016801F580512E
:10059000896941F00202016801F580518A61704762
:1005A000016801F58051896941F40052016801F543
:1005B00080518A617047000008B508490968C90878
:1005C0004FF47A72B1FBF2F14143009100BF00BFDA
:1005D00000994A1E00920029F9D108BD4800002068
:1005E00038B5044600200090206800F580508069EE
:1005F00040F48011206800F580508161206800F58A
:100600008050806900900120FFF7D6FF0099206894
:1006100000F58050816138BD10B5024800F05CFAE9
:1006200010BD0000F849002030B503461479557913
:1006300044EA0520084C0C442064D47824069578BC
:1006400044EA0544557844EA0524157844EA05004F
:10065000014C0C44606430BD0080024070B5ACB009
:1006600004460E46002526B14FF40061E160C90042
:10067000A16000200F901090119012901390149090
:10068000E06918B94FF48060159001E000201590E2
:100690004FF40070169000201790189019901A903F
:1006A0001B9040201C9000201D901E901F902090B9
:1006B0002190229023902490802025900020269045
:1006C0002790289029902A902B90206805686F48E1
:1006D0000540DDE90F0108431199084312990843C9
:1006E000A16808431399084314990843E168084333
:1006F0001599084316990843179908431899084310
:1007000019990843054320680560206805680120A1
:1007100000F0ECF820680560DDE91A0108431C9937
:1007200008431D9908431E9908431F9908432099BF
:1007300008432199084321684860206845680120E2
:1007400000F0D4F8206845602298216888602398DA
:100750002168C860206885694FF641700540DDE971
:10076000241040EA01402699084327990843289914
:1007700008432999084305432068856120688569F5
:10078000012000F0B3F820688561DDE92A01084303
:100790002168C8612068C569012000F0A7F82068B9
:1007A000C561002000904FF0007001900020029081
:1007B0004FF40010039000200490059006900790DD
:1007C00004200890C005099040120A9080010B9007
:1007D00040120C9000200D900E90206800F5805083
:1007E00085692B480540DDE900010843029908436B
:1007F0000399084304990843059908430699084357
:1008000007990843089908430543206800F580507C
:100810008561206800F580508569012000F066F848
:10082000206800F580508561DDE9090108430B99D6
:1008300008430C9908430D9940EA81000E9908433A
:1008400040F40001206800F580500160206800F548
:1008500080500568012000F049F8206800F58050BC
:100860000560A069012809D1206800F58050C069A1
:1008700008490843216801F58051C86100212046DC
:100880006269FFF7D1FE2CB070BD00000F8120FF20
:10089000233FDEF84000010038B5044600200090F8
:1008A0002068006840F00400216808602068006843
:1008B00000900120FFF780FE00982168086038BD95
:1008C00038B50446002000902068006840F0080019
:1008D000216808602068006800900120FFF76CFE26
:1008E00000982168086038BD7047000070B5044664
:1008F00000F012FE06462546681C10B10448007838
:10090000054400BF00F008FE801BA842FAD370BD6A
:100910004400002070B504460D461646002200BF74
:1009200094F84500012801D1022070BD012084F80F
:10093000450000BF022084F84400A56200221FE0A9
:1009400005EB02114FF00040086044F2F45048609B
:10095000C2EBC21000EB400006EB80008860A0698B
:10096000012803D1486820F000404860581E90429A
:1009700004D905EB02101030C86000E0CD60521CB5
:100980009A42DDD3206800F58050C560012084F8CC
:10099000440000BF002084F8450000BF00BFC4E74A
:1009A00070B504460D461646002200BF94F8450077
:1009B000012801D1022070BD012084F8450000BF4C
:1009C000022084F84400E56200221BE005EB0211DE
:1009D0004FF480100860C2EBC21000EB400006EB41
:1009E00080008860E06918B9086840F44000086039
:1009F000581E904204D905EB02101030C86000E088
:100A0000CD60521C9A42E1D3206800F58050056108
:100A1000012084F8440000BF002084F8450000BF96
:100A200000BFC8E770470146002200BF91F84500AB
:100A3000012801D102207047012081F8450000BF44
:100A4000022081F84400886A006800F00040002815
:100A500038D1886A006800F48070F0B1886B401C5F
:100A60008863886B012801D1886A08638B6A4B63AD
:100A7000886A0068C0F30D40021FCA63086B836870
:100A80000B64886AC0688862012081F8440000BF56
:100A9000002081F8450000BFCDE7886A006800F4B7
:100AA000007048B1886A086300234B6301238B639D
:100AB000886AC068886205E0886B401C8863886A21
:100AC000C0688862012081F8440000BF002081F8DE
:100AD000450000BF0120AEE710B50446206800F5D0
:100AE0008050406900F0400040280FD1204600F0BF
:100AF0005AFA4021206800F580504161012084F8B5
:100B0000440000BF002084F8450016E0206800F58E
:100B10008050406900F0010078B1204600F00CFBE5
:100B20000121206800F580504161012084F84400D3
:100B300000BF002084F8450000BF4FF480312068DA
:100B400000F580504161206800F58050406900F454
:100B50000040B0F5004F10D12046FFF763FF4FF47F
:100B60000041206800F580504161012084F8440074
:100B700000BF002084F8450000BF10BD2DE9F843F8
:100B800004460025002000908C4E0027804614B9B2
:100B90000120BDE8F88394F8440028B9002084F8C7
:100BA0004500204600F012F98548406820F4000016
:100BB0008349486008464068216A08438049486084
:100BC000206800F58050006840F00101206800F5C1
:100BD0008050016000F0A0FC07460FE000F09CFC94
:100BE000C01BB0F5FA7F09D9032084F8440000BF88
:100BF000002084F8450000BF0320CAE7206800F504
:100C00008050006800F001000028E7D120680569E5
:100C100025F01C0500F01EFE06466A48864205D3F4
:100C20006948864202D245F0080509E066488642D6
:100C300005D36248864202D245F00C0500E000BFB1
:100C4000206805614FF400420021204600F075FA4B
:100C500048B14FF0010841462046FFF7FFFC012054
:100C600084F8440095E7FF20FFF740FE6068002805
:100C700071D000F051FC074600BF6A4601212046B2
:100C800000F048F900F048FCC01B41F2883188426E
:100C90000FD94FF0010841462046FFF7DFFC012045
:100CA00084F8440000BF002084F8450000BF032002
:100CB0006FE7009800F004000428DED182020021D2
:100CC000204600F03AFA48B14FF00108414620466C
:100CD000FFF7C4FC012084F844005AE700F01CFC34
:100CE000074600BF6A460121204600F013F900F0D4
:100CF00013FCC01B41F2883188420FD94FF0010824
:100D000041462046FFF7AAFC012084F8440000BFBA
:100D1000002084F8450000BF03203AE7009800F067
:100D200020002028DED16A461021204600F0F2F88B
:100D300048B14FF0010841462046FFF78FFC0120E3
:100D400084F8440025E7009800F0040020B14FF437
:100D50000061E16002E00DE00021E160009800F038
:100D60000200022802D10021A1601EE04FF4804160
:100D7000A1601AE0E068C0F3CF00A168C1F34F01A1
:100D800040EA01020021204600F0D7F948B14FF0B7
:100D9000010841462046FFF761FC012084F8440029
:100DA000F7E640F6FF70FFF7A1FD41462046FFF74A
:100DB00055FC012084F844000020EAE600879303F4
:100DC00000000140002D3101C00E160210B586B0A2
:100DD0000446002002900390049005904849206842
:100DE00088427DD100BF00BF4648406940F4804042
:100DF000444948610846406900F48040019000BFC2
:100E000000BF00BF0846406940F400404861084602
:100E1000406900F40040019000BF00BF00BF0846D9
:100E2000406940F4803048610846406900F48030F1
:100E3000019000BF00BF00BF00BF0846806940F0BE
:100E4000100088610846806900F01000019000BF22
:100E500000BF00BF0846806940F004008861084672
:100E6000806900F00400019000BF00BF00BF084689
:100E7000806940F0080088610846806900F0080039
:100E8000019000BF00BF0220029003900320059054
:100E900002A91D4800F09AF98220029000200390D8
:100EA000049002A9194800F091F904200290022050
:100EB00003900320059002A9144800F087F9302020
:100EC000029000200390049002A90F4800F07EF9E0
:100ED0004FF460500290022003900320059000E040
:100EE0000BE002A90A4800F071F9002211463D20EA
:100EF00000F098FB3D2000F085FB06B010BD00001F
:100F00000080024000100240001001400008014033
:100F1000000C01402DE9F04104460E46174600251D
:100F2000A84694F84400822802D10220BDE8F0814E
:100F3000822084F844002068056905F01C05208A99
:100F40004FF4784101EAC0200543481100EA8610B9
:100F5000054325F0020545F001052068056100F014
:100F6000DBFA804612E000F0D7FAA0EB0800B0F5FB
:100F7000803F09D3012084F8440000BF002084F89A
:100F8000450000BF0320D1E72068056905F0010096
:100F90000028E8D12068406980B23860012084F8D8
:100FA00044000020C2E7704710B5044600BF94F823
:100FB0004500012801D1022010BD012084F8450020
:100FC00000BF022084F844002046FFF779FC204649
:100FD000FFF762FC2046FFF703FB2046FFF7E0FA2D
:100FE0002046FFF7D2FA012084F8440000BF002019
:100FF00084F8450000BF00BFDEE770B5024600235D
:101000000025002400BF92F84500012801D10220EC
:1010100070BD012082F8450000BF022082F8440024
:1010200049B9012082F8440000BF002082F8450041
:1010300000BF0120ECE7D06A006800F0004048B132
:10104000122082F8440000BF002082F8450000BF53
:101050000120DDE740F2F450814208D9B1FBF0F302
:10106000B1FBF0F600FB161010B15B1C00E0012391
:10107000012B13D1D06A006840F04050D66A30602E
:10108000C1F30C00D66A7060D06A006840F000407E
:10109000D66A3060D06AC068D06232E000242EE0A8
:1010A000D06A006820F04050D66A30602CB9D06A0F
:1010B000006840F08050D66A306040F2F450D66A42
:1010C0007060581EA04210D1D06A006840F00050F5
:1010D000D66A3060581EC0EBC01000EB4000A1EB98
:1010E0008005C5F30C00D66A7060D06A006840F0D5
:1010F0000040D66A3060D06AC068D062641C9C42EE
:10110000CED3106800F58050406900F0040048B16B
:101110000426106800F5805046610026106800F52E
:1011200080504660012082F8440000BF002082F811
:10113000450000BF00BF6BE770472DE9F041044652
:101140000E4617460025A84694F84400422802D1CE
:101150000220BDE8F081422084F84400206805693F
:1011600005F01C05208A4FF4784101EAC0200543B0
:10117000481100EA8610054345F0020545F00105D7
:10118000B8B2216848612068056100F0C5F9804661
:1011900012E000F0C1F9A0EB0800B0F5803F09D3E0
:1011A000012084F8440000BF002084F8450000BFFF
:1011B0000320CEE72068056905F001000028E8D18A
:1011C000012084F844000020C3E700002DE9F8471F
:1011D0000346002294466EE14FF0010808FA02F43B
:1011E000D1F8008008EA0400A0427DD1DFF8DCA23B
:1011F000D1F80480A8EB0A09D0453AD014DCB8F144
:10120000030F50D009DCB8F1000F31D0B8F1010F55
:101210001CD0B8F1020F49D120E0B8F1110F18D05D
:10122000B8F1120F42D11EE0B9F5881F25D006DCB7
:10123000B9F5803F20D0B9F5801F37D11AE0B9F554
:10124000001F18D0B9F5041F30D117E0D1F80CC039
:101250002DE0D1F80C8008F1040C28E0D1F80C80C6
:1012600008F1080C23E0D1F80C8008F10C0C1EE00A
:1012700000BF00BF00BF00BF00BF00BFD1F80880A3
:10128000B8F1000F02D14FF0040C0BE0D1F8088048
:10129000B8F1010F03D14FF0080C1C6102E04FF0D0
:1012A000080C5C6103E04FF0000C00E000BF00BFE1
:1012B000FF2801D8984601E003F104084646FF28BC
:1012C00002D84FEA820803E0A2F108084FEA880832
:1012D0004746D6F800804FF00F0909FA07F928EAC7
:1012E00009080CFA07F900E088E048EA0908C6F89E
:1012F0000080D1F8048008F08058B8F1805F7DD17B
:1013000000BFDFF8CC81D8F8188048F00108DFF87A
:10131000C091C9F81880C846D8F8188008F00108AC
:10132000CDF8008000BF00BF4FEAB9384FEA9209FC
:1013300058F829504FEA82784FEA18794FF00F0891
:1013400008FA09F825EA0805DFF88881434502D143
:101350004FF0000816E0DFF88081434502D14FF0DE
:1013600001080FE0DFF87481434502D14FF0020815
:1013700008E0DFF86C81434502D14FF0030801E03B
:101380004FF004084FEA82794FEA197908FA09F810
:1013900048EA0505DFF84C814FEA920948F82950E0
:1013A000D1F8048008F48038B8F5803F0AD1DFF81E
:1013B0003881D8F8008048EA0008DFF82C91C9F895
:1013C000008009E0DFF82081D8F8008028EA0008D2
:1013D000DFF81491C9F80080D1F8048008F40038CF
:1013E000B8F5003F10D1DFF8008108F10408D8F803
:1013F000008048EA0008DFF8F09000E05AE009F1C8
:101400000409C9F800800DE0DFF8DC8008F1040869
:10141000D8F8008028EA0008DFF8CC9009F1040928
:10142000C9F80080D1F8048008F48018B8F5801F4E
:101430000ED1DFF8B48008F10808D8F8008048EA37
:101440000008DFF8A49009F10809C9F800800DE050
:10145000DFF8948008F10808D8F8008028EA00082E
:10146000DFF8849009F10809C9F80080D1F80480F8
:1014700008F40018B8F5001F0ED1DFF86C8008F1F1
:101480000C08D8F8008048EA0008DFF85C9009F101
:101490000C09C9F800800DE0DFF84C8008F10C0859
:1014A000D8F8008028EA0008DFF83C9009F10C0920
:1014B000C9F80080521CD1F8008028FA02F8B8F16F
:1014C000000F7FF489AEBDE8F8870000000011101E
:1014D0000010024000080140000C014000100140D3
:1014E00000140140080001400004014002469368D6
:1014F0000B400BB1012000E000207047C2680A4099
:101500000AB1416100E0016170470AB1016101E087
:101510000B04036170470000014800687047000039
:101520003C00002003480068034909780844014949
:10153000086070473C0000204400002010B50848B7
:10154000006840F0100006490860032000F0A8F889
:10155000002000F007F800F02BF8002010BD00007C
:101560000020024070B504460E4800784FF47A71AE
:10157000B1FBF0F00C490968B1FBF0F5284600F02A
:10158000EBFC08B1012070BD102C07D200222146CF
:10159000501E00F047F80548046001E00120F2E722
:1015A0000020F0E744000020480000204000002018
:1015B00008B500BF1148806940F001000F498861FB
:1015C0000846806900F00100009000BF00BF00BF26
:1015D0000846C06940F08050C8610846C06900F004
:1015E0008050009000BF00BF00BF0549486820F050
:1015F000E06040F00070486000BF08BD001002408D
:101600000000014001460846002809DB00F01F03E6
:1016100001229A4043099B0003F1E023C3F8002113
:1016200000BF70472DE9F05F80460D461646002743
:1016300000F094FF074639462A46334601F007007A
:10164000C0F1070ABAF1040F02D94FF0040A01E011
:10165000C0F1070AD14600F1040ABAF1070F02D21D
:101660004FF0000A01E0A0F1030AD4464FF0010A4E
:101670000AFA09FAAAF1010A0AEA020A0AFA0CFAB3
:101680004FF0010B0BFA0CFBABF1010B0BEA030B58
:101690004AEA0B042146404600F068FFBDE8F09F8F
:1016A00000BF00F00702064B19684FF6FF03194010
:1016B000044B0B4343EA0221014B196000BF704702
:1016C0000CED00E00000FA0570B504460D460CB9BB
:1016D000012070BD5A48006800F00700A8420ED2F1
:1016E0005748006820F0070028435549086008461D
:1016F000006800F00700A84201D00120E9E7207847
:1017000000F0020002281DD1207800F00400042817
:1017100005D14C48406840F4E0604A494860207870
:1017200000F00800082805D14648406840F46050A1
:10173000444948604348406820F0F000A1680843ED
:1017400040494860207800F0010078B360680128C3
:1017500006D13C48006800F4003090B90120B8E799
:101760006068022806D13748006800F0007040B970
:101770000120AEE73348006800F0020008B90120FC
:10178000A7E73048406820F00300616808432D490E
:101790004860FFF7C1FE064609E0FFF7BDFE801B6B
:1017A00041F28831884202D9032092E707E02548B8
:1017B000406800F00C006168B0EB810FEDD120486B
:1017C000006800F00700A8420ED91D48006820F00C
:1017D000070028431A4908600846006800F007001F
:1017E000A84201D0012074E7207800F0040004280A
:1017F00007D11448406820F4E060E16808431149CB
:101800004860207800F00800082808D10D4840689A
:1018100020F46050216940EAC1000A49486000F0A4
:101820001FF808494968C1F30311074A515CC840D1
:101830000649086006480068FFF794FE002048E764
:1018400000200240001002406C62010848000020A5
:101850004000002001480068704700004800002058
:101860002DE9F04F8BB03CA2D2E901311068D2686B
:10187000CDE908310A9207903BA3D3E90020D3E9D0
:10188000021304AC0BC403924FF00009CB46CA46C6
:10189000002400200290019000903748D0F8049076
:1018A00009F00C0000284FD0042802D008284AD1A3
:1018B00002E0324802904AE007A8C9F38341445C41
:1018C00009F48030C0B32C48C06A00F00F0003A9AF
:1018D00011F800B02848C06A00F4803008B32648E8
:1018E000C06AC0F30310401C01902348C06AC0F3D3
:1018F0000320801C00900198A0FB0B5006461F4956
:101900000098A1FB00210023A2FB047C01FB04C181
:1019100002FB03112A4633463846FEF735FC824661
:1019200003E016486043B0FBFBFA9DF82900A04293
:1019300006D14FEA5A0A03E0FFE7114804FB00FA18
:10194000CDF808A003E000BF0E48029000BF00BF22
:1019500002980BB0BDE8F08F0000040506070809E7
:1019600000000000000D0000010203040506070846
:10197000090A0B0C0D0E0F100010024040787D017B
:1019800000093D0000127A0070B586B005460C468D
:1019900016460020029003900490059002200390C8
:1019A00003200590002004904FF48070029000BF47
:1019B0000C48806940F004000A4988610846806943
:1019C00000F00400019000BF00BF02A90648FFF725
:1019D000FDFB0448406820F07060204301494860E6
:1019E00006B070BD0010024000080140F8B5044682
:1019F0000CB90120F8BD207800F00100002878D053
:101A0000FD48406800F00C0004280CD0FA484068FB
:101A100000F00C00082811D1F748406800F480302D
:101A2000B0F5803F0AD1F448006800F40030002887
:101A30005FD0A06800285CD10120DBE700BFA06870
:101A4000B0F5803F06D1EC48006840F48030EA49A8
:101A5000086028E0A06858B9E748006820F48030A2
:101A6000E54908600846006820F4802008601AE014
:101A7000A068B0F5A02F0BD1DF48006840F48020AB
:101A8000DD4908600846006840F4803008600AE0DC
:101A9000D948006820F48030D749086008460068BB
:101AA00020F48020086000BFA06888B1FFF734FDF3
:101AB000054606E0FFF730FD401B642801D90320EE
:101AC00098E7CD48006800F400300028F2D010E01C
:101AD000FFF722FD054606E0FFF71EFD401B6428C8
:101AE00001D9032086E7C448006800F400300028CC
:101AF000F2D1207800F00200022857D1BE48406899
:101B000000F00C0050B1BC48406800F00C00082800
:101B100018D1B948406800F4803098B9B6480068D8
:101B200000F0020020B16069012801D0012061E7C6
:101B3000B148006820F0F800A16940EAC100AE4950
:101B4000086033E06069E8B10120AC490860FFF744
:101B5000E3FC054606E0FFF7DFFC401B022801D945
:101B6000032047E7A448006800F002000028F2D0F4
:101B7000A148006820F0F800A16940EAC1009E4930
:101B8000086013E000209D490860FFF7C5FC05468A
:101B900006E0FFF7C1FC401B022801D9032029E71A
:101BA0009548006800F002000028F2D1207800F08B
:101BB000080008282DD1E069B8B1012090490860DB
:101BC000FFF7AAFC054606E0FFF7A6FC401B02282B
:101BD00001D903200EE78848406A00F0020000287F
:101BE000F2D0012000F0BCFB13E000208449086023
:101BF000FFF792FC054606E0FFF78EFC401B02282B
:101C000001D90320F6E67C48406A00F00200002873
:101C1000F2D1207800F00400042873D10027764820
:101C2000C06900F0805070B900BF7348C06940F0CF
:101C300080507149C8610846C06900F0805000902A
:101C400000BF00BF01276F48006800F48070B0B982
:101C50006C48006840F480706A490860FFF75CFCDB
:101C6000054606E0FFF758FC401B642801D9032015
:101C7000C0E66448006800F480700028F2D000BF1D
:101C80002069012806D15C48006A40F001005A49E9
:101C9000086227E0206958B95748006A20F001001F
:101CA000554908620846006A20F00400086219E0FD
:101CB000206905280BD15048006A40F004004E49C5
:101CC00008620846006A40F0010008620AE04A48DB
:101CD000006A20F00100484908620846006A20F0C6
:101CE0000400086200BF2069A0B1FFF715FC05469B
:101CF00009E0FFF711FC401B41F28831884202D90C
:101D0000032077E622E03C48006A00F00200002849
:101D1000EFD012E0FFF700FC054608E0FFF7FCFB00
:101D2000401B41F28831884201D9032062E63248E3
:101D3000006A00F002000028F0D1012F05D12E48E2
:101D4000C06920F080502C49C86100BFE06AA0B390
:101D50002948406800F48030B0F5803F0ED1264815
:101D6000406800F00C00082808D12348C06A00F43D
:101D70008030B0F5803F01D101203BE6E06A0228C7
:101D800050D11D48006800F0805040B11A48C06A28
:101D900000F0F001606B814201D001202AE60020B2
:101DA00016498866FFF7B8FB054607E0FFF7B4FB66
:101DB000401B642802D903201CE64DE00E48006851
:101DC00000F000600028F1D10B48C06A20F0F0005C
:101DD000616B08430849C8620846C06A20F4706015
:101DE000216B08430449C862012004498866FFF753
:101DF00093FB05460FE00000001002400000424245
:101E00008004424200700040FFF786FB401B6428BC
:101E100001D90320EEE54E48006800F0006000287C
:101E2000F2D019E04A48C06A20F480304849C862BC
:101E3000002048498866FFF76FFB054606E0FFF77C
:101E40006BFB401B642801D90320D3E540480068A0
:101E500000F000600028F2D1206AE0B33C484068FE
:101E600000F00C0008285ED0206A022846D100202D
:101E700038490866FFF750FB054606E0FFF74CFBC4
:101E8000401B022801D90320B4E53148006800F066
:101E900000700028F2D1606AB0F5803F0DD12C4867
:101EA000C06A616808432A49C8620846C06A20F0CF
:101EB0000F00E16808432649C862D4E909010843D4
:101EC0002349496821F474110843214948600120DD
:101ED0002049086600E038E0FFF71EFB054606E0F3
:101EE000FFF71AFB401B022801D9032082E518489E
:101EF000006800F000700028F2D026E000201549AC
:101F00000866FFF709FB054606E0FFF705FB401BE7
:101F1000022801D903206DE50D48006800F000702B
:101F20000028F2D111E0206A012800D162E50848BA
:101F3000466806F48031606A814204D106F470116B
:101F4000A06A814201D0012054E5002052E5000042
:101F5000001002400000424270B504462546681E4B
:101F6000B0F1807F01D301200FE0681E4FF0E02127
:101F700048610F214FF0FF3000F0F8FA00204FF0D9
:101F8000E021886107200861002070BD00BFFEE7E6
:101F90002DE9F04105460E4617461C466068FEF7DF
:101FA0008BF918B16068FEF7C1F918B9012027490B
:101FB00008700AE00020254908706068FEF7B6F94D
:101FC0004FF47A71484322490860A068FEF774F91B
:101FD00020B94FF4FA701F49086004E0A068FEF7CA
:101FE000A5F91C49086020680078312809D1002231
:101FF0004FF400511848FFF788FA0020174908707D
:1020000013E020680078322808D1012251031248D9
:10201000FFF77BFA00201149087006E0206800787D
:10202000332802D101200D4908700C48007801289E
:1020300002D10BA0BDE8F0814FF400510648FFF734
:1020400055FA08B10BA0F5E70EA0F3E72D0000202C
:102050003400002030000020001001402C0000203F
:102060002F4C6564466C69636B65722E7368746D82
:102070006C0000002F4C65644F66662E7368746DAB
:102080006C0000002F4C65644F6E2E7368746D6C8D
:102090000000000070B504462568204600F08EF868
:1020A000207C092800D070BDE86AC0F3005010B150
:1020B0000CA00DF08DFB00BF214615480EF07CFAF8
:1020C000E97C4FF47A7201FB02F0224610490EF0CF
:1020D00095F900BFE86A20F4801000F58010E862EE
:1020E00000BFE0E7617373657274696F6E206C63A3
:1020F000705F6563686F5F74696D65725F72756E3E
:102100006E696E673D3D30206661696C65640000F4
:102110001521000870B5044626463568E86AC0F304
:10212000005030B1E86A20F48010E8622046FFF7E2
:10213000B1FF70BD70B504462568207C09280ED11A
:1021400095F8F21006A00CF003FF0DA00CF0ECFFC8
:10215000092085F82D0014A1284609F08BFA70BDDE
:102160004E6F20726573706F6E736520746F2025DB
:1021700064206563686F2D72657175657374730093
:1021800053657269616C206C696E6B20617070655B
:1021900061727320746F20626520646973636F6E6F
:1021A0006E65637465642E0050656572206E6F7491
:1021B00020726573706F6E64696E67002DE9FC4173
:1021C00007463C6804F18408207D50B194F8F20081
:1021D000217D884205DB3846FFF7ACFF002084F8FC
:1021E000F200387C09281ED1D8F8086001AD300E05
:1021F00005F8010B300C05F8010B300A05F8010B4E
:1022000005F8016B01A8281AF23400906178481C87
:1022100060700A4601AB0921384604F0A3FF20781C
:10222000401C04F8F209BDE8FC81000000B585B04F
:102230000020019002900390049000BF2348806921
:1022400040F01000214988610846806900F01000C4
:10225000009000BF00BF00BF0846806940F0040046
:1022600088610846806900F00400009000BF00BF4C
:1022700000BF0846806940F0080088610846806910
:1022800000F00800009000BF00BF00224FF4005192
:102290000F48FFF73AF94FF40050019001200290E7
:1022A000002003900220049001A90948FEF78EFF48
:1022B0004FF480700190022002900320049001A945
:1022C0000448FEF783FF05B000BD00000010024087
:1022D00000100140000801400EB50AF0E1FC0020AA
:1022E00012490860124908601249086012481349EF
:1022F0000022104BCDE9002102900D4A0B491048F5
:102300000BF010FA0E480BF0C3FA0D4890F82F00AE
:10231000C0F3800018B10A480BF031FB02E0084816
:102320000BF0BCFA064802F005F90EBD20000020B3
:1023300024000020280000204164000831660008C5
:102340009401002010B5034804F0BAF90EF00EF81D
:1023500010BD00009401002000BFFEE770477047E9
:1023600008B508490968C9084FF47A72B1FBF2F15F
:102370004143009100BF00BF00994A1E009200290E
:10238000F9D108BD4800002070B505460C46164638
:102390000848FDF791FF18B907A10648FDF7AEFF01
:1023A00004492046FDF7AAFF2046FDF785FF80B2CD
:1023B00070BD00004C0100203030302E3030302E07
:1023C0003030302E303030007047000010B51048EB
:1023D000006820B10E480068401E0D490860FFF7F4
:1023E000A1F80C48007890B10B480088401C0A49BD
:1023F00008800846008809490968884207D30020F8
:10240000054908804FF400510548FFF777F810BDE3
:10241000340000202C000020380000203000002074
:102420000010014000B593B0382105A8FDF71DFF4D
:1024300014216846FDF719FF01200590000407905C
:102440000420089001200A900004069002200D90BC
:10245000C1030E914FF4E0110F9110904FF4C06141
:1024600011914021129105A8FFF7C0FA08B1FEF7BB
:102470003BFA0F20009002200190002002904FF4C0
:10248000806003900020049002216846FFF71CF949
:1024900008B1FEF729FA00224FF030611046FFF72D
:1024A00073FA0A48C06A20F0F00040F04000074983
:1024B000C8620846C06A20F4704040F40040C86218
:1024C00001200349086713B000BD0000001002405E
:1024D000000042421448006840F0010012490860C0
:1024E00008464068114908400F494860084600689E
:1024F0000F4908400C4908600846006820F4802015
:1025000008600846406820F4FE00486008460068FD
:1025100020F0A05008604FF47F0088600020C8625F
:10252000C803044908607047001002400000FFF033
:10253000FFFFF6FE08ED00E000BFFEE70FB4054B1D
:1025400010B503A9044A029800F038F810BC5DF8F1
:1025500014FB00006767000844010020024800687F
:10256000C0F30220704700000CED00E010B5002819
:1025700004DB0A07130E054A135406E00A07140E7B
:10258000034A00F00F031B1FD45410BD00E400E009
:1025900018ED00E0004870474801002002E008C83C
:1025A000121F08C1002AFAD170477047002001E0CD
:1025B00001C1121F002AFBD1704700002DE9FF4F17
:1025C0008BB09A460F460546002606E025280BD01C
:1025D00052460D9990476D1C761C28780028F5D13D
:1025E0000FB03046BDE8F08F0024A04601226049BC
:1025F00000E0044315F8013F203B02FA03F00842D3
:10260000F7D128782E2817D115F8010F44F00404CB
:102610002A280ED06FF02F022878A0F13001092966
:102620000AD808EB880102EB410100EB01086D1CA0
:10263000F2E757F8048B6D1C287869283ED006DC39
:102640000028CDD063280BD0642804D136E073284D
:1026500010D075284BD052460D999047761C85E0D6
:1026600017F8040B8DF8000000208DF80100E946F2
:10267000012003E057F8049B4FF0FF3061074FF053
:10268000000401D40AE0641C44450DDA8442FADBFC
:1026900019F804100029F6D106E0641C8442FCDB22
:1026A00019F804100029F8D1264404E019F8010BA8
:1026B00052460D999047641EF8D257E001CF4FF073
:1026C0000A0B002802DA40422D2102E0210504D540
:1026D0002B218DF82410012103E0E10705D02021F2
:1026E000F7E70DF1200908910CE00021F9E701CF8F
:1026F0004FF00A0BF9E75946FDF725FE01F13002CC
:1027000009F8012D0028F6D1ADEB090000F1200BEE
:10271000600701D44FF00108D84502DDA8EB0B009B
:1027200000E000208046002406E009A85246005D33
:102730000D999047641C761C08988442F5DB04E0F0
:10274000302052460D999047761CB8F10001A8F14F
:102750000108F5DC05E019F8010B52460D99904788
:10276000761CBBF10001ABF1010BF4DC6D1C34E70E
:102770000928010070B504460D46072084F82D0095
:1027800002A1204608F076FF70BD00004661696C2A
:10279000656420746F2061757468656E7469636127
:1027A0007465206F757273656C76657320746F2025
:1027B00070656572000000002DE9F04104460E4688
:1027C00090460FA7A6F54040233810B901250DA764
:1027D00005E031460CA00CF0FBFF002500BF00BF58
:1027E000394614A00CF0A0FC608E28436086208E31
:1027F000A843208610B920460BF0D7F8BDE8F08139
:102800000000000050415000617574685F77697482
:1028100068706565725F737563636573733A20757D
:102820006E6B6E6F776E2070726F746F636F6C205B
:102830002578000025732061757468656E7469637E
:102840006174696F6E2073756363656564656400A8
:10285000F8B507460C461546002002F0A7FB0646D1
:10286000009430680099884203D10949002002F0A1
:10287000A7FD012002F09AFB0646009530680099FA
:10288000884203D10249012002F09AFD0120F8BDDF
:10289000D0E7010870B504460D461646034B044ABE
:1028A0001946A06A0AF0CFFF012070BDD0E70108E9
:1028B000D4E7010870B5044600260EE02888B0F57C
:1028C000404F09DAA86938B12046A969884794F8C9
:1028D000F400401C84F8F400761C064850F826509A
:1028E000002DEBD194F8F40018B903A1204608F0AC
:1028F000C1FE70BD486301084E6F206E6574776F2E
:10290000726B2070726F746F636F6C732072756E70
:102910006E696E670000000070B504462546686861
:1029200080472246024928680DF068FD70BD00000E
:102930001929000870B505460E4600BF002D09D1C3
:1029400000BF0CA340F27B3218A11CA0FFF7F6FDDC
:1029500000BF70BD00BF2C6A4CB1607A082806D158
:102960003068A16A884202D1284600F051FB00BFBE
:10297000EFE700002E2E2F4D6964646C657761725D
:1029800065732F54686972645F50617274792F4C5B
:102990007749502F7372632F636F72652F6970765A
:1029A000342F646863702E63000000006E657469E4
:1029B0006620213D204E554C4C000000417373654C
:1029C0007274696F6E2022257322206661696C65BE
:1029D00064206174206C696E6520256420696E2016
:1029E00025730A007CB5064600BF002E09D100BF42
:1029F00047A340F2FE3254A15AA0FFF79FFD00BF4B
:102A00007CBD00BF346A00BF002C09D100BF40A3C9
:102A10004FF480625DA153A0FFF790FD00BFEFE788
:102A200000BF00202084606B401C70B1606B1E30C2
:102A30003C21B0FBF1F5B5F5803F01D34FF6FF75B2
:102A40006584608C08B901206084A06B401C80B153
:102A5000A06B1E303C21B0FBF1F5B5F5803F01D3F2
:102A60004FF6FF752583208B08B901202083208B2A
:102A7000A083E06B401C80B1E06B1E303C21B0FBBA
:102A8000F1F5B5F5803F01D34FF6FF756583608B97
:102A900008B901206083608BE083208B618B8842C2
:102AA00004DB608B002801DD00202083E07A10B178
:102AB000E06A019010E094F828007F2802DCFF21F2
:102AC000019108E0C02803DB6FF07F41019102E033
:102AD0004FF6FF71019100BF206B0090009848B93C
:102AE00000BFA06A01990840009000BF009840F024
:102AF000807000900A21204601F014FD6B4601AA67
:102B000004F1280130460AF09EFE00BF78E700007D
:102B10002E2E2F4D6964646C6577617265732F5436
:102B2000686972645F50617274792F4C7749502FD5
:102B30007372632F636F72652F697076342F6468C8
:102B400063702E6300000000646863705F62696EEA
:102B5000643A206E6574696620213D204E554C4CC8
:102B600000000000417373657274696F6E20222546
:102B70007322206661696C6564206174206C696EE3
:102B80006520256420696E2025730A0064686370DF
:102B90005F62696E643A206468637020213D204E54
:102BA000554C4C002DE9F04105462C6A0821204681
:102BB00001F0B8FC002204F12801284603F0FCF8DB
:102BC0000746A07AFF2802DAA07A401CA0724FF4D0
:102BD000FA7606F2F310314690FBF1F0E082BDE8A0
:102BE000F081000070B5184805682AE02C6A34B3FB
:102BF000607A20B3608C68B1208C401C80B2208445
:102C0000618C884206D1284601F056FB284600F028
:102C1000E9FA14E0E08B40B1E18B481EE083012922
:102C200003D1284601F001FE09E0A08B38B1A18B49
:102C3000481EA083012902D1284601F0D5FD2D6848
:102C400000BF002DD2D170BDBC0000202DE9F041A5
:102C500007460C46164600BF002F0CD100BF6BA3E1
:102C600040F21D7277A17FA0FFF768FC00BF6FF0F4
:102C70000F00BDE8F08100BF00BF002C0AD100BFEB
:102C800062A340F21E7281A176A0FFF757FC00BF3D
:102C9000A01FEEE700BF00BFE068002808D000BF1B
:102CA0005AA340F21F7281A16EA0FFF747FC00BF3C
:102CB00000BF00BF2069002808D000BF53A34FF415
:102CC000E46284A167A0FFF739FC00BF00BF0022C7
:102CD0004FF49A7110460AF0B1FEE060E06810B956
:102CE0004FF0FF30C5E700BFE0684089B0F59A7F3C
:102CF00008D200BF45A340F2277280A159A0FFF778
:102D00001DFC00BF00BF032E02D1607A032808D14A
:102D1000A07A18B9FDF77EFA8849086087480068EC
:102D20002060E06840682061012021690870216905
:102D3000487097F828002169887000202169C870C0
:102D4000206809F099FF2169486000202169088105
:102D5000216948812169C860082E0BD0042E09D052
:102D6000072E07D0032E08D1607A052802D0607A9A
:102D7000042802D178682169C860002021690861AF
:102D8000216948612169886100250FE097F82800D2
:102D9000A84205DD062D03D207F12900405D00E0C1
:102DA000002021691C314855681C85B2102DEDD3D7
:102DB000002505E0002120692C304155681C85B2B2
:102DC000402DF7D3002505E0002120696C304155E6
:102DD000681C85B2802DF7D359482169C1F8EC00F1
:102DE0000020A082002504E02069F0304555681CD1
:102DF00085B2442DF8D301223521204600F0ACFBEA
:102E00003146204600F0FCFB002032E72E2E2F4DED
:102E10006964646C6577617265732F546869726464
:102E20005F50617274792F4C7749502F7372632F02
:102E3000636F72652F697076342F646863702E63D8
:102E400000000000646863705F6372656174655FB1
:102E50006D73673A206E6574696620213D204E557A
:102E60004C4C0000417373657274696F6E202225AB
:102E70007322206661696C6564206174206C696EE0
:102E80006520256420696E2025730A0064686370DC
:102E90005F6372656174655F6D73673A2064686330
:102EA0007020213D204E554C4C000000646863703A
:102EB0005F6372656174655F6D73673A2064686310
:102EC000702D3E705F6F7574203D3D204E554C4C0B
:102ED00000000000646863705F6372656174655F21
:102EE0006D73673A20646863702D3E6D73675F6F22
:102EF0007574203D3D204E554C4C00006468637055
:102F00005F6372656174655F6D73673A20636865BE
:102F1000636B2074686174206669727374207062D8
:102F200075662063616E20686F6C642073747275BF
:102F3000637420646863705F6D7367003001002004
:102F40006382536310B500BF0E480078002807DC89
:102F500000BF0DA3F3221AA122A0FFF7EFFA00BFD2
:102F600000BF08480078401E0649087008460078EF
:102F700030B92648006812F047FE00202349086057
:102F800010BD00002C0100202E2E2F4D6964646CB2
:102F90006577617265732F54686972645F506172FE
:102FA00074792F4C7749502F7372632F636F72655A
:102FB0002F697076342F646863702E630000000000
:102FC000646863705F7063625F726566636F756E7D
:102FD0007428293A20726566636F756E7420657275
:102FE000726F7200417373657274696F6E2022256F
:102FF0007322206661696C6564206174206C696E5F
:103000006520256420696E2025730A0028010020B0
:103010002DE9FC4105462C6A00260C21204601F0D2
:1030200081FA042221462846FFF710FE064616BB09
:1030300004223221204600F08FFAA06A09F01CFE1B
:1030400080464146204600F041FB204600F010FC3F
:10305000A28AF03291B2E0680BF0E6FB0F48CDE9AE
:10306000005043230E4A0F48E168006812F036FE14
:10307000204600F019F8A07AFF2802DAA07A401C56
:10308000A07242F2107707F2F3104FF4FA7190FB3E
:10309000F1F0E0823046BDE8FC810000D0E7010895
:1030A000D4E701082801002010B5044600BF002C19
:1030B00009D100BF17A340F26D7224A12BA0FFF726
:1030C0003DFA00BF10BD00BF00BFE068002808D176
:1030D00000BF10A340F26E722EA124A0FFF72EFABB
:1030E00000BF00BF00BF2069002808D100BF09A3AE
:1030F00040F26F7231A11DA0FFF720FA00BF00BFA0
:10310000E06810B1E0680BF0B9F90020E0602061E0
:1031100000BFD7E72E2E2F4D6964646C657761720E
:1031200065732F54686972645F50617274792F4CB3
:103130007749502F7372632F636F72652F697076B2
:10314000342F646863702E6300000000646863704D
:103150005F64656C6574655F6D73673A206468636E
:103160007020213D204E554C4C000000417373658A
:103170007274696F6E2022257322206661696C6506
:1031800064206174206C696E6520256420696E205E
:1031900025730A00646863705F64656C6574655FBD
:1031A0006D73673A20646863702D3E705F6F75744D
:1031B00020213D204E554C4C000000006468637097
:1031C0005F64656C6574655F6D73673A20646863FE
:1031D000702D3E6D73675F6F757420213D204E55D5
:1031E0004C4C00002DE9FC4105462C6A00270020CC
:1031F000A0620621204601F095F9012221462846C9
:10320000FFF724FD0746002F2ED102223921204648
:1032100000F0A2F9E98C204600F0D8FA0422372108
:10322000204600F099F9002606E01F48815D2046FF
:1032300000F0E6F9701CC6B2042EF6D3204600F06A
:1032400017FBA28AF03291B2E0680BF0EDFA174852
:10325000CDE900504323164A1648E168006812F091
:103260003DFD2046FFF720FFA07AFF2802DAA07A72
:10327000401CA072A07A062803DAA17A01208840B7
:1032800000E03C2000EB4001C1EBC0104FF6FF71A5
:1032900001EAC00808F2F3104FF4FA7190FBF1F064
:1032A000E0823846BDE8FC8124010020D0E7010817
:1032B000D4E701082801002070B50D48056813E027
:1032C0002C6A7CB1E08A012803DDE08A401EE0829E
:1032D00008E0E08A012805D1E08A401EE082284605
:1032E00001F0C7FA2D6800BF002DE9D170BD0000C4
:1032F000BC000020F8B50646346A0020E062206376
:103300002648C07810B12648C06860632348007919
:1033100018B123480069A06302E0606B4008A06315
:103320001E48407918B11E484069E06304E0606BB4
:10333000C0EBC000C008E06360680069A062174885
:10334000807938B11649886909F096FCE06201205D
:10335000E07201E00020E0721048C07920B110490D
:10336000C86909F089FC206300250DE005F108011A
:103370000B4A52F8210009F07FFC0090694628466C
:1033800002F01EF8681CC5B2022D05DA05F108002E
:103390000249085C0028E9D1F8BD0000A48A002099
:1033A0007C8A002070B50446256A0C21284601F06D
:1033B000B9F8054B1A46114620460AF044FA204651
:1033C000FFF710FF70BD0000D0E7010870B505469B
:1033D0002C6A0748807850B10649886809F04CFC8F
:1033E000606260680069A062284601F019F870BD4B
:1033F000A48A00207C8A002010B51E48007800288E
:1034000031D100BF1C480068002807D000BF1BA3B3
:10341000D92228A131A0FFF791F800BF00BF12F018
:10342000ADFB154908600846006810B94FF0FF3041
:1034300010BD11480068007A40F020000E4909686C
:10344000087244222F490C48006812F0FBF943220D
:103450002C490948006812F03FFA00222A49064820
:10346000006812F0CDFB03480078401C0149087049
:103470000020DDE72C010020280100202E2E2F4DFA
:103480006964646C6577617265732F5468697264EE
:103490005F50617274792F4C7749502F7372632F8C
:1034A000636F72652F697076342F646863702E6362
:1034B00000000000646863705F696E635F70636240
:1034C0005F726566636F756E7428293A206D656D4D
:1034D0006F7279206C65616B000000004173736549
:1034E0007274696F6E2022257322206661696C6593
:1034F00064206174206C696E6520256420696E20EB
:1035000025730A00D0E70108F940000870B50546A8
:103510002C6A04B970BD607A042809D003DC80B13C
:1035200003280FD107E0052803D00A280AD101E0BB
:1035300000BF00BF00BF0020A072284600F06EFD53
:1035400006E005E00020A0722846FFF74BFE00BF12
:1035500000BF00BFDEE7000070B504460E4615460A
:1035600000BFA08A801C2844442808D900BF0BA3B0
:103570004FF4AE62174918A0FEF7E0FF00BF00BF8E
:10358000A18A481CA0822069F0304654A18A481CB8
:10359000A0822069F030455470BD00002E2E2F4DC2
:1035A0006964646C6577617265732F5468697264CD
:1035B0005F50617274792F4C7749502F7372632F6B
:1035C000636F72652F697076342F646863702E6341
:1035D000000000004CEA0108417373657274696F62
:1035E0006E2022257322206661696C6564206174F7
:1035F000206C696E6520256420696E2025730A00A1
:1036000070B504460D4600BFA08A442808D300BF09
:1036100007A340F27B5214A122A0FEF78FFF00BF48
:1036200000BFA18A481CA0822069F030455470BDBB
:103630002E2E2F4D6964646C6577617265732F540B
:10364000686972645F50617274792F4C7749502FAA
:103650007372632F636F72652F697076342F64689D
:1036600063702E6300000000646863705F6F7074A5
:10367000696F6E5F627974653A20646863702D3E8D
:103680006F7074696F6E735F6F75745F6C656E20B9
:103690003C20444843505F4F5054494F4E535F4C79
:1036A000454E0000417373657274696F6E20222568
:1036B0007322206661696C6564206174206C696E98
:1036C0006520256420696E2025730A0070B50446C4
:1036D0000D4600BFA08A001D442808D900BF13A3CF
:1036E00040F28A521FA12FA0FEF728FF00BF00BFA3
:1036F000290EA28A501CA0822069F0308154C5F3A3
:103700000741A28A501CA0822069F0308154C5F381
:103710000721A28A501CA0822069F0308154A28A1D
:10372000501CA0822069F030855470BD2E2E2F4D84
:103730006964646C6577617265732F54686972643B
:103740005F50617274792F4C7749502F7372632FD9
:10375000636F72652F697076342F646863702E63AF
:1037600000000000646863705F6F7074696F6E5F63
:103770006C6F6E673A20646863702D3E6F70746979
:103780006F6E735F6F75745F6C656E202B203420D5
:103790003C3D20444843505F4F5054494F4E535F87
:1037A0004C454E00417373657274696F6E2022251B
:1037B0007322206661696C6564206174206C696E97
:1037C0006520256420696E2025730A0070B50446C3
:1037D0000D4600BFA08A801C442808D900BF0BA357
:1037E00040F28252174918A0FEF7A8FE00BF00BFA2
:1037F000290AA28A501CA0822069F0308154A28A32
:10380000501CA0822069F030855470BD2E2E2F4DA3
:103810006964646C6577617265732F54686972645A
:103820005F50617274792F4C7749502F7372632FF8
:10383000636F72652F697076342F646863702E63CE
:103840000000000008EA0108417373657274696F33
:103850006E2022257322206661696C656420617484
:10386000206C696E6520256420696E2025730A002E
:1038700010B5044600BF002C09D100BF20A340F2C0
:1038800082722DA135A0FEF759FE00BF10BD00BF0A
:1038900000BF2069002808D100BF19A340F283723D
:1038A00038A12EA0FEF74AFE00BF00BF00BFA08ACD
:1038B000442808D300BF12A340F284723CA127A081
:1038C000FEF73CFE00BF00BFFF21A28A501CA08271
:1038D0002069F030815406E00021A28A501CA082A9
:1038E0002069F0308154A08A442803D3207D00F061
:1038F000030010B1A08A4428EED300BFC6E7000041
:103900002E2E2F4D6964646C6577617265732F5438
:10391000686972645F50617274792F4C7749502FD7
:103920007372632F636F72652F697076342F6468CA
:1039300063702E6300000000646863705F6F7074D2
:10394000696F6E5F747261696C65723A2064686356
:103950007020213D204E554C4C0000004173736592
:103960007274696F6E2022257322206661696C650E
:1039700064206174206C696E6520256420696E2066
:1039800025730A00646863705F6F7074696F6E5F9F
:10399000747261696C65723A20646863702D3E6D63
:1039A00073675F6F757420213D204E554C4C0A00A3
:1039B000646863705F6F7074696F6E5F7472616961
:1039C0006C65723A20646863702D3E6F7074696F25
:1039D0006E735F6F75745F6C656E203C2044484366
:1039E000505F4F5054494F4E535F4C454E0A0000B4
:1039F0002DE9F34F89B089460020069005900A21F1
:103A0000FE48FCF732FCB9F80A002C2804D26FF00B
:103A100001000BB0BDE8F08FD9F80410099841609F
:103A20004FF0F00AB9F80800079000BF4C460AE0D2
:103A30006089AAEB00001FFA80FA61890798401A92
:103A400080B20790246814B160895045F0DD14B944
:103A50006FF00100DDE75746DDF81CB060680890A4
:103A6000BBE10898C05D049000264FF0FF38B81CF9
:103A700080B203906189781C814203DD791C08982B
:103A8000455C07E0206818B120684068007800E0D5
:103A9000002005462E460498342870D00BDC0328FD
:103AA0002BD003DC80B101286AD113E0062838D07E
:103AB0003328F9D165E0352872D0362871D03A28FC
:103AC00070D03B28F0D1CFE0002005460646781E96
:103AD00087B2DEE000BF042D0BD000BFC8A340F2C8
:103AE000F652D5A1D7A0FEF729FD00BF6FF0050063
:103AF0008FE700BF4FF00608CBE0042600BFB542B9
:103B00000BDA00BFBEA340F2FB52D8A1CDA0FEF756
:103B100015FD00BF6FF005007BE700BF4FF0070801
:103B2000B7E000BFE91705EB91718910A5EB8101A2
:103B300059B100BFB2A340F20162D1A1C1A0FEF70A
:103B4000FDFC00BF6FF0050063E700BF082D01DA40
:103B5000284600E00820064600BFB5420BDA00BF49
:103B6000A7A340F20462C1A1B6A0FEF7E7FC00BF24
:103B70006FF005004DE700BF4FF0080889E016E040
:103B800085E000BF042D0ED000BF9DA340F2096266
:103B9000A9A1ACA0FEF7D2FC00BF6FF0050038E78A
:103BA00029E03BE04DE000BF4FF0030871E000BFAB
:103BB000012D0BD000BF92A340F21762B4A1A1A0C7
:103BC000FEF7BCFC00BF6FF0050022E700BF00BF9E
:103BD000BAF1F00F0BD000BF89A340F21962AFA178
:103BE00098A0FEF7ABFC00BF6FF0050011E700BF27
:103BF0004FF000084DE000BF012D0BD000BF80A3A7
:103C000040F21D62A2A18FA0FEF798FC00BF6FF0EA
:103C10000500FEE600BF4FF001083AE000BF042DAA
:103C20000BD000BF76A340F2216283A185A0FEF7EE
:103C300085FC00BF6FF00500EBE600BF4FF0020807
:103C400027E000BF042D0BD000BF6DA340F225621A
:103C500079A17CA0FEF772FC00BF6FF00500D8E6EA
:103C600000BF4FF0040814E000BF042D0BD000BFCC
:103C700063A340F2296270A172A0FEF75FFC00BF4F
:103C80006FF00500C5E600BF4FF0050801E0002613
:103C900000BF00BFA81C384487B2002E78DD00208A
:103CA000029000BF00BFB8F1000F02DBB8F10A0FAD
:103CB00008DB00BF52A340F236627EA161A0FEF78E
:103CC0003DFC00BF00BF4D4810F8080000285ED141
:103CD000042E01DA304600E00420019002A92046BB
:103CE000039B019A0AF020FB01460198814202D011
:103CF0006FF001008DE6042E27DD00BFF11706EB03
:103D000091718910A6EB810159B100BF3CA340F22B
:103D10003E626DA14BA0FEF711FC00BF6FF00500E5
:103D200077E600BF0120354901F80800029808F045
:103D3000A3FF6B4941F82800301FC6B20398001D4D
:103D400080B2039008F10108ACE7042E04D1029878
:103D500008F092FF029012E000BF012E0BD000BFCE
:103D600027A34FF4C9625FA136A0FEF7E7FB00BFAF
:103D70006FF005004DE600BF9DF80800029001209D
:103D80001E4901F808005649029841F8280000BF72
:103D90006089B84220DC6089381A87B26089ABEB51
:103DA00000001FFA80FB5F4515DABBF1000F12D04F
:103DB000246800BF5CB900BF11A340F254624EA159
:103DC00020A0FEF7BBFB00BF6FF0050021E600BF9F
:103DD0006068089000E008E000BF34B15F4504DA95
:103DE0000898C05DFF287FF43CAE00BF0348007810
:103DF00010B13B49086889E09BE00000A48A0020DC
:103E00002E2E2F4D6964646C6577617265732F5433
:103E1000686972645F50617274792F4C7749502FD2
:103E20007372632F636F72652F697076342F6468C5
:103E300063702E63000000006C656E203D3D2034F1
:103E400000000000417373657274696F6E20222553
:103E50007322206661696C6564206174206C696EF0
:103E60006520256420696E2025730A006C656E202C
:103E70003E3D206465636F64655F6C656E000000A5
:103E80006C656E2025252034203D3D20300000004B
:103E90006C656E203D3D2031000000006F7665723C
:103EA0006C6F616420696E2066696C652F736E614A
:103EB0006D650000636865636B206465636F6465AE
:103EC0005F696478000000006465636F64655F6C1F
:103ED000656E2025252034203D3D20300000000067
:103EE0007C8A0020696E76616C6964206465636F0A
:103EF00064655F6C656E00006E6578742070627535
:103F00006620776173206E756C6C00000021134A87
:103F10001170012802D10121069109E0022802D185
:103F20000121059104E0032802D1012105910691A8
:103F300000BF069830B1002006904FF06C0AEC20CC
:103F4000079073E5059830B1002005904FF02C0ADA
:103F50006C2007906AE500205BE50000A48A002041
:103F60002DE9F84305462C6A0421204600F0DAFAD0
:103F7000032221462846FEF769FE074667BB022258
:103F800039212046FFF7E8FAE98C2046FFF71EFCAE
:103F9000042237212046FFF7DFFA002606E01C48FE
:103FA000815D2046FFF72CFB701CC6B2042EF6D3B1
:103FB0002046FFF75DFCA28AF03291B2E0680AF079
:103FC00033FC00954323134A1348E168006811F05D
:103FD0005BFE2046FFF768F8A07AFF2802DAA07A95
:103FE000401CA072A07A0A2804DAA07A4FF47A71F1
:103FF000484301E042F210701FFA80F808F2F31013
:104000004FF4FA7190FBF1F0E0823846BDE8F88396
:1040100024010020D4E70108280100202DE9F843FD
:104020000646346A0321204600F07CFA032221462A
:104030003046FEF70BFE0746002F3AD10222392107
:104040002046FFF789FA4FF410712046FFF7BEFBB8
:10405000042232212046FFF77FFAA06A08F00CFE06
:10406000814649462046FFF731FB0422372120468E
:10407000FFF772FA002506E01C48415D2046FFF775
:10408000BFFA681CC5B2042DF6D32046FFF7F0FB3B
:10409000A28AF03291B2E0680AF0C6FB0096432390
:1040A000134A1448E168006811F0EEFD2046FEF75F
:1040B000FBFFA07AFF2802DAA07A401CA072A07A47
:1040C0000A2804DAA07A4FF47A71484301E042F2F8
:1040D00010701FFA80F808F2F3104FF4FA7190FB99
:1040E000F1F0E0823846BDE8F883000024010020AA
:1040F000D4E70108280100202DE9F05F8346164629
:10410000DDF828A04C4847683C6AD6F804900CB10A
:10411000207A00B987E000BF00BF00BF60680028B8
:1041200008D000BF45A34FF4D56252A156A0FEF7B8
:1041300005FA00BF00BF70892C2800DA73E099F8F7
:104140000000022800D06EE000250AE007F12900F7
:10415000415D09F11C00405D814200D063E0681CB4
:10416000C5B297F82800A84203DD062D01D2102D14
:10417000ECD3D9F8040008F07FFD2168884200D014
:1041800051E031462046FFF733FC00B14BE0484890
:10419000407800B947E0474890F80480B8F1050F2F
:1041A00022D1607A01280FD13846FFF7A3F897F89B
:1041B0002F0000F0080018B13846FEF7F3FC31E09C
:1041C0003846FEF70FFC2DE0607A032805D0607AB0
:1041D000042802D0607A052824D13846FFF78AF8EF
:1041E0003846FEF7FFFB1DE0B8F1060F0FD1607AED
:1041F000032808D0607A012805D0607A042802D00C
:10420000607A052803D13846FFF7CCF80AE0B8F108
:10421000020F07D1607A062804D10020E0823846D8
:10422000FFF7D4F800BF0CB10020606030460AF000
:1042300025F9BDE8F09F0000C45400202E2E2F4D1C
:104240006964646C6577617265732F546869726420
:104250005F50617274792F4C7749502F7372632FBE
:10426000636F72652F697076342F646863702E6394
:10427000000000007265706C79207761736E27749E
:104280002066726565640000417373657274696FBE
:104290006E2022257322206661696C65642061743A
:1042A000206C696E6520256420696E2025730A00E4
:1042B000A48A00207C8A00202DE9FC4105462C6A56
:1042C0001CB96FF00F00BDE8FC81606A01902846C0
:1042D00000F076FA07460021204600F023F900207E
:1042E0006062A062E0622063E063A0636063608458
:1042F0002084E083A08307B9E5E70722214628460A
:10430000FEF7A4FC064606BB042236212046FFF732
:1043100023F9019808F0B0FC804641462046FFF79B
:10432000D5F92046FFF7A4FAA28AF03291B2E068EC
:104330000AF07AFA0095432301AA0848E168006868
:1043400011F0A2FC2046FEF7AFFE054B1A461146BF
:10435000284609F078FA3046B5E700002801002029
:10436000D0E701082DE9F84305462C6A05212046CF
:1043700000F0D8F8032221462846FEF767FC0746DE
:104380006FBB022239212046FFF7E6F8E98C204670
:10439000FFF71CFA042237212046FFF7DDF800263C
:1043A00006E01D48815D2046FFF72AF9701CC6B261
:1043B000042EF6D32046FFF75BFAA28AF03291B2C0
:1043C000E0680AF031FA0095432304F1240213480F
:1043D000E168006811F058FC2046FEF765FEA07AFF
:1043E000FF2802DAA07A401CA072A07A0A2804DA18
:1043F000A07A4FF4FA61484301E044F620601FFAC6
:1044000080F808F2F3104FF4FA7190FBF1F0E082BB
:104410003846BDE8F8830000240100202801002070
:104420002DE9FC4705462C6A0121204600F07AF868
:10443000032221462846FEF709FC0746002F48D1F3
:10444000022239212046FFF787F8E98C2046FFF742
:10445000BDF9042232212046FFF77EF8A06A08F059
:104460000BFC814649462046FFF730F904223621ED
:104470002046FFF771F8606A08F0FEFB8146494666
:104480002046FFF723F9042237212046FFF764F87E
:10449000002606E01F48815D2046FFF7B1F8701C3A
:1044A000C6B2042EF6D32046FFF7E2F9A28AF03214
:1044B00091B2E0680AF0B8F91748CDE900504323FB
:1044C000164A1748E168006811F008FC2046FEF71C
:1044D000EBFDA07AFF2802DAA07A401CA072A07A35
:1044E000062803DAA17A0120884000E03C2000EB96
:1044F0004001C1EBC0104FF6FF7101EAC00808F29D
:10450000F3104FF4FA7190FBF1F0E0823846BDE809
:10451000FC87000024010020D0E70108D4E701084F
:1045200028010020427A8A4203D04172002282721E
:10453000C282704770B5054600BF002D0BD100BF89
:1045400034A340F2D62241A144A0FDF7F7FF00BFFB
:104550006FF00F0070BD00BF00BF95F82F0000F096
:10456000010000280BD100BF2AA340F2D72245A1A9
:104570003AA0FDF7E3FF00BF6FF00F00EAE700BFCE
:104580002C6AE88CB0F5107F02DA4FF0FF30E1E7DB
:104590004CB9402008F07EFD044614B94FF0FF30BE
:1045A000D8E72C621DE000BFE06840B100BF19A34E
:1045B0004FF43C723CA129A0FDF7C0FF00BF00BF33
:1045C00000BF606840B100BF12A340F2F1223CA1DD
:1045D00022A0FDF7B3FF00BF00BF207A08B1FEF7AD
:1045E000B1FC40212046FBF740FEFEF705FF10B16D
:1045F0004FF0FF30AEE7012020722846FEF7F2FDB3
:1046000006462EB1284600F065F84FF0FF30A1E7CE
:1046100030469FE72E2E2F4D6964646C657761727A
:1046200065732F54686972645F50617274792F4C9E
:104630007749502F7372632F636F72652F6970769D
:10464000342F646863702E63000000006E65746927
:104650006620213D204E554C4C000000417373658F
:104660007274696F6E2022257322206661696C6501
:1046700064206174206C696E6520256420696E2059
:1046800025730A006E65746966206973206E6F7405
:104690002075702C206F6C64207374796C652070A9
:1046A0006F72743F000000007062756620705F6F6B
:1046B0007574207761736E27742066726565640077
:1046C0007265706C79207761736E277420667265ED
:1046D0006564000070B5054600BF002D09D100BF1C
:1046E00013A340F2425220A126A0FDF727FF00BFEE
:1046F00070BD00BF2C6A002C17D000BF6068002876
:1047000008D000BF0AA340F24F5228A11DA0FDF718
:1047100015FF00BF00BF00212046FFF703FF207AEE
:1047200018B1FEF70FFC0020207200BFE0E7000088
:104730002E2E2F4D6964646C6577617265732F54FA
:10474000686972645F50617274792F4C7749502F99
:104750007372632F636F72652F697076342F64688C
:1047600063702E6300000000646863705F73746F91
:10477000703A206E6574696620213D204E554C4C80
:1047800000000000417373657274696F6E2022250A
:104790007322206661696C6564206174206C696EA7
:1047A0006520256420696E2025730A007265706C8F
:1047B00079207761736E27742066726565640000E6
:1047C000014679B1086A68B10A6A507A0A2805D0A8
:1047D000507A052802D0507A042801D10120704770
:1047E0000020FCE70020FAE770B505462C6A607AE5
:1047F000012805D0607A0A2802D0607A052813D1F2
:104800002846FFF7AFFD618B228C881A00EBD07130
:104810000122B2EB610F07DC618B228C881A00EB5E
:10482000D071C1F34F01A18370BD70B505462C6AEC
:10483000607A012808D0607A0A2805D0607A0528B5
:1048400002D0607A042813D12846FFF789FB618CD7
:10485000228C881A00EBD0710122B2EB610F07DCC9
:10486000618C228C881A00EBD071C1F34F01E18377
:1048700070BD70B505462C6A607A0C2802D0607A4B
:10488000062803D12846FEF7ADFC2BE0607A01280C
:104890000DD1A07A052803DC2846FFF7C1FD21E0F1
:1048A0002846FFF709FD2846FEF79CFC1AE0607ACF
:1048B00008280AD1A07A012803DC2846FEF772F9FD
:1048C00010E02846FEF78EF80CE0607A032809D144
:1048D000A07A022803DA2846FFF7A0FB02E0284668
:1048E000FEF780FC70BD000070B5002406E019489A
:1048F00050F8240000B903E0601CC4B2042CF6DBBD
:1049000000BF042C0CDA00F029F8124941F8240009
:10491000084650F8240018B10F480470204670BDB6
:1049200000240D480078401CC5B20EE0042D00DBC9
:104930000025084850F8250018B10748057028469A
:10494000EDE7601CC4B2681CC5B2042CEEDB042089
:10495000E5E70000445000208000002070B52E20C4
:1049600011F01AF905460DB9002070BD00BFFBF724
:1049700051FC86B2B6F5806F02DA6FF0070406E0EC
:1049800032460B49284610F05DFF044600BF04F193
:1049900008000028EBD024B1284611F035F900209A
:1049A000E3E700220349284611F02AF92846DCE70C
:1049B000D0E70108315000082DE9F04105460E46C8
:1049C000002428E004EB44003A4951F8200000B3E9
:1049D00004EB440001EB8000007AA84219D104EBFB
:1049E0004401344F07EB81014A6805EB0511324F52
:1049F00007EB011101F1100004EB44012D4F57F8B2
:104A0000213031469847002004EB44013A4642F8F1
:104A10002100601CC4B2042CD4DB002421E0AC4291
:104A200000D11CE004EB0410234901EB0010807A54
:104A3000022813D104EB041001EB0010C07B05EB3E
:104A400005111D4A02EB0111C97B884206D10420E1
:104A500005EB051102EB0111C87304E000BF601CF7
:104A6000C4B2042CDBDB00BF05EB0510124901EBDF
:104A70000010C07B04281BDA05EB05110E4A02EB7F
:104A80000111C97B0D4A52F8210011F0BDF8002038
:104A900005EB0511084A02EB0111C97B074A42F8F0
:104AA0002100042005EB0511034A02EB0111C87334
:104AB000BDE8F08194540020545000204450002060
:104AC0002DE9F04106460C46174614210648FBF72F
:104AD000CCFB204604F010FE054629460248FBF7B1
:104AE0000DFCBDE8F08100004C01002010B5002451
:104AF00004E0204600F006F8601CC4B2042CF8DB89
:104B000010BD000070B5054605EB0510364901EBF8
:104B1000001400BF042D08DB00BF34A34FF47E72E5
:104B20003EA145A0FDF70AFD00BF00BFA07A002806
:104B30004BD0012804D0022812D0032846D13BE0F4
:104B400000F008F920810220A0720020E07201200C
:104B5000207300206073284600F052FB064641E0B7
:104B6000207B401EC0B2207328BB607B401CC0B2BB
:104B70006073042818D1E07A401C02280DDAE07A2C
:104B8000401C374951F8200038B1E07A401CE072EF
:104B9000012020730020607308E000212846FFF701
:104BA0000BFF0020A0721DE0607B2073284600F000
:104BB00027FB064600BF15E0206818B12068401E9C
:104BC000206008B90020A0720CE00BE000BF00BF1D
:104BD00006A340F2374223A117A0FDF7AFFC00BFA8
:104BE00000BF00BF00BF70BD545000202E2E2F4DBF
:104BF0006964646C6577617265732F546869726467
:104C00005F50617274792F4C7749502F7372632F04
:104C1000636F72652F646E732E6300006172726140
:104C20007920696E646578206F7574206F662062E4
:104C30006F756E6473000000417373657274696F01
:104C40006E2022257322206661696C656420617480
:104C5000206C696E6520256420696E2025730A002A
:104C600084000020756E6B6E6F776E20646E735FCC
:104C70007461626C6520656E7472792073746174FE
:104C8000653A00002DE9F04705460F469046464636
:104C900000BF3146721C96B238460AF044F804460A
:104CA000002C03DA4FF6FF70BDE8F08704F0C00077
:104CB000C02802D14FF6FF70F6E717E031463846BC
:104CC0000AF031F88146B9F1000F02DA4FF6FF70B1
:104CD000EAE7287809F0FF01884202D04FF6FF701A
:104CE000E2E7701C86B26D1C641E00BF002CE5DC80
:104CF0006D1C314638460AF016F80446002C02DADC
:104D00004FF6FF70D0E7002CC3D1701C80B2CBE708
:104D100070B505460E4605EB05100C4901EB001475
:104D20000320A07226600A492068884201D90846FB
:104D30002060211D2846FFF73FFE206820B9A07A99
:104D4000032801D10020A07270BD00005450002043
:104D5000803A090070B500BFFBF75CFA85B2002409
:104D600011E004EB04100A4901EB0010807A0228DC
:104D700007D104EB041001EB00100089A84200D118
:104D8000EAE7601CC4B2042CEBDB284670BD0000CF
:104D9000545000202DE9FF4F83B08B4691469A4630
:104DA0000025002436E004EB04105B4901EB001001
:104DB000807A02282CD104EB04100A4602EB001082
:104DC00000F110014FF48072039807F0D9FFF8B991
:104DD00000261BE006EB4600504951F8200098B928
:104DE00006EB460041F8209006EB460001EB800000
:104DF000C0F804A006EB460001EB800004726FF0DF
:104E0000040007B0BDE8F08F701CC6B2042EE1DBD1
:104E1000601CC4B2042CC6DB002002904FF00408D2
:104E2000002417E004EB04103B4901EB0015A87ABD
:104E300000B911E0A87A03280AD1A97B384A127870
:104E4000511AC8B20299884201DD0290A04600BF03
:104E5000601CC4B2042CE5DB00BF042C13D1B8F1F4
:104E6000040F07DA08EB08102B4901EB0010807AD9
:104E7000032802D04FF0FF30C3E7444604EB041090
:104E8000254901EB0015002700260CE006EB460043
:104E9000224951F8200020B906EB460001EB8007BB
:104EA00003E0701CC6B2042EF0DB00BF17B94FF050
:104EB000FF30A6E73C720120A87219480078A87359
:104EC000C7F80090C7F804A0BBF1FF0F01D2584605
:104ED00000E0FF20019005F11000019A0399FBF713
:104EE000ABF9002205F1100101980A54FFF7FCFC10
:104EF000E873E87B042804DB0020A8723860401EB9
:104F00007FE707480078401C054908702046FFF7F6
:104F1000F9FD6FF0040074E7545000209454002011
:104F200081000020F8B504460D4616461F460020B5
:104F30003B46324629460090204600F001F8F8BD75
:104F40002DE9F04705460E4617469846DDF82090B5
:104F500016B10DB1287818B96FF00F00BDE8F087D1
:104F60002846FBF7A9F90446FF2C02D96FF00F0081
:104F7000F4E73146284604F0B7FA08B10020EDE71F
:104F80003146284600F026F808B90020E6E7064832
:104F9000006810B96FF00500E0E743463A46214645
:104FA0002846FFF7F7FED9E78400002001460229D2
:104FB00003DA034800EB810070470248FCE7000079
:104FC00084000020D0E7010800BF00BF00BF00BF81
:104FD0007047000070B506460D46002421E004EB42
:104FE0000410124901EB0010807A032817D104EB5A
:104FF00004100A4602EB001000F110014FF4807219
:10500000304607F0BDFE50B900BF35B104EB0410C7
:10501000064901EB001040682860002070BD601C4C
:10502000C4B2042CDBDB6FF00F00F7E75450002014
:105030002DE9F04F89B016469A463089102800DADB
:10504000D5E000230C2206A9304609F06DF90C28A2
:105050007ED1BDF8180007F01CFE81460025C2E095
:1050600005EB0510644901EB001898F80A000228C6
:105070006FD1B8F808004845FAD1BDF81C0007F018
:1050800008FE8346BDF81E0007F003FE07469DF8A4
:105090001A0000F0800000B9A9E0BBF1010F00D0B8
:1050A000A5E098F80B10554A52F82110DAF80000E4
:1050B000884200D09BE00C22314608F11000FFF737
:1050C000E1FD04464FF6FF718C4200D18FE023468C
:1050D000042202A9304609F027F9042800D086E00E
:1050E000BDF80A00B0F5807F05D100BFBDF808000B
:1050F000B0F5807F00D07AE0201D84B29DF81B00BF
:1051000000F00F0000285DD157E02146304600F046
:1051100069F904464FF6FF70844200D167E02346E8
:105120000A2203A9304609F0FFF80A2800D05EE001
:1051300004F10A0084B2BDF80E00B0F5807F2BD1D7
:10514000BDF80C00B0F5807F25D1BDF8140001E05A
:105150004CE046E0B0F5806F1DD12346042201A942
:10516000304609F0E1F8042800D040E005EB0511D5
:10517000214A02EB011101984860304609F07EF99E
:10518000049807F079FD014600902846FFF7C0FD1E
:1051900009B0BDE8F08F00BFBDF8140007F079FD3D
:1051A0002044B0F5803F00DB21E0BDF8140007F09B
:1051B00070FD204484B2781E87B2002F02DD308952
:1051C000A042A2DC304609F059F900212846FFF739
:1051D000F3FB002005EB0511074A02EB0111887271
:1051E000D6E7681CC5B2042DFFF63AAF00BF3046C3
:1051F00009F044F900BFCBE75450002084000020A0
:105200002DE9F04F89B083460BEB0B104D4901EBB4
:10521000001500BFE87A022808DB00BF4AA340F26D
:10522000ED2255A15AA0FDF789F900BF00BFE87A29
:10523000614951F8200040B900215846FFF7BCFBF6
:105240000020A87209B0BDE8F08F05F11000FBF74F
:1052500033F8123080B2002201460290104608F066
:10526000EDFB0746002F69D00020069007900890BC
:10527000288907F00EFDADF8180001208DF81A00FE
:105280000002ADF81C000C2206A9384609F028FCE3
:1052900005F11004641E0C2600BF641CA0464FF0EC
:1052A000000A04E00AF1010000F0FF0A641C207803
:1052B0002E2802D020780028F4D1A4EB080080B278
:1052C000049052463146384609F098FA701C83B271
:1052D00041463846049A09F0EBFC0AF101003044DB
:1052E00086B220780028D8D100223146384609F00D
:1052F00085FA701C86B24FF48070ADF81400ADF8DA
:1053000016003346042205A9384609F0D1FCE97B92
:10531000039135200190E87A274901EB8000029043
:10532000264A039952F821003946DDE9013210F08E
:105330008DFC8146384609F0A1F801E04FF0FF39B5
:1053400048467FE7545000202E2E2F4D6964646C30
:105350006577617265732F54686972645F5061721A
:1053600074792F4C7749502F7372632F636F726576
:105370002F646E732E630000646E73207365727603
:105380006572206F7574206F66206172726179009A
:10539000417373657274696F6E20222573222066D3
:1053A00061696C6564206174206C696E6520256498
:1053B00020696E2025730A008400002044500020DC
:1053C00002280ADA21B1054A0B6842F8203004E0CD
:1053D000024A034B1B6842F82030704784000020CB
:1053E000D0E701082DE9F04106460F463D4600BFD3
:1053F00029466A1C95B2304609F095FC0446002CFB
:1054000003DA4FF6FF70BDE8F08104F0C000C02859
:1054100000D114E028193189884202DB4FF6FF7071
:10542000F1E7281985B22946304609F07CFC04468C
:10543000002C02DA4FF6FF70E5E7002CD8D100BF50
:10544000681C80B2DFE710B5FFF750FB10BD00000D
:1054500070B504460D4600BF05F00300002808D0D3
:1054600000BF08A34FF4CE7212A11AA0FDF766F890
:1054700000BF00BF2E46A06800683060A0680660CC
:1054800070BD00002E2E2F4D6964646C65776172CB
:1054900065732F54686972645F50617274792F4C20
:1054A0007749502F7372632F636F72652F6D656D2F
:1054B000702E63006D656D705F667265653A206D74
:1054C000656D2070726F7065726C7920616C6967B0
:1054D0006E656400417373657274696F6E20222576
:1054E0007322206661696C6564206174206C696E4A
:1054F0006520256420696E2025730A0070B5054675
:10550000A8680468002C13D02068A968086000BF50
:1055100004F00300002808D000BF06A34FF4A472D3
:1055200010A119A0FDF70AF800BF00BF204670BD0A
:105530000020FCE72E2E2F4D6964646C6577617244
:1055400065732F54686972645F50617274792F4C6F
:105550007749502F7372632F636F72652F6D656D7E
:10556000702E63006D656D705F6D616C6C6F633A7A
:10557000206D656D702070726F7065726C7920613E
:105580006C69676E65640000417373657274696F5E
:105590006E2022257322206661696C656420617427
:1055A000206C696E6520256420696E2025730A00D1
:1055B00070B50546002412E004EB4400094901EBF4
:1055C000C000067D4EB104EB440001EBC0008068D2
:1055D000A84202D1204600F077F9601CC4B20A2C20
:1055E000EADB70BDB08A00202DE9FE4F06468846F2
:1055F0004FF00A09CA460A270024BB460020029041
:105600000190009000BF6BE004EB44006F4901EB98
:10561000C000057D0A2F02D10DB967B25EE0002DF2
:105620005CD000BF012D0AD0022D08DA00BF68A3AC
:1056300040F2251274A184A0FCF780FF00BF00BFD8
:105640005EB104EB4401614A02EBC1013068496874
:10565000884202D160B2BDE8FE8F012D2AD104EB51
:1056600044005A4951F8300088B104EB440001EB82
:10567000C000418A0298814230DB4FFA84FB04EB80
:105680004400524901EBC000408A029026E004EB3E
:1056900044004E4901EBC000418A019881421DDB64
:1056A0004FFA84F904EB4400484901EBC000408AFA
:1056B000019013E0022D11DB04EB4400434901EBA0
:1056C000C000418A0098814208DB4FFA84FA04EB5B
:1056D00044003E4901EBC000408A0090601CC4B207
:1056E0000A2C91DB08F0020020B90A2F05D108F03E
:1056F000010010B94FF0FF30ADE70A2F01DAFCB21C
:1057000034E0BAF10A0F12DA0AF0FF0400BF04EB2A
:1057100044002E4951F8300040B100BF2CA340F2A4
:105720006F1253A148A0FCF709FF00BF0EE0B9F1CA
:105730000A0F02DA09F0FF0408E0BBF10A0F02DAEF
:105740000BF0FF0402E04FF0FF3084E700BF0A2CAB
:1057500008DB00BF1EA340F281124BA13AA0FCF768
:10576000EDFE00BF00BF204600F0AEF800BF0A2CDF
:1057700008DB00BF16A340F2851243A132A0FCF75C
:10578000DDFE00BF00BF00BF04EB44000F4901EB8A
:10579000C000007D40B100BF0DA34FF4C3723FA114
:1057A00029A0FCF7CBFE00BF00BF36B104EB4401DB
:1057B000064A02EBC10130684860002004EB440156
:1057C000024A02EBC101488260B244E7B08A00207D
:1057D0002E2E2F4D6964646C6577617265732F544A
:1057E000686972645F50617274792F4C7749502FE9
:1057F0007372632F636F72652F697076342F6574CF
:10580000686172702E6300007374617465203D3DA1
:10581000204554484152505F53544154455F5045D0
:105820004E44494E47207C7C207374617465203E51
:105830003D204554484152505F53544154455F53B5
:105840005441424C45000000417373657274696FA6
:105850006E2022257322206661696C656420617464
:10586000206C696E6520256420696E2025730A000E
:105870006172705F7461626C655B695D2E71203D61
:105880003D204E554C4C000069203C204152505F59
:105890005441424C455F53495A4500006172705F64
:1058A0007461626C655B695D2E7374617465203D23
:1058B0003D204554484152505F53544154455F4543
:1058C0004D5054590000000010B5044604EB44004C
:1058D0000C4951F8300060B104EB4401094A52F818
:1058E000310008F0CBFD002004EB4401054A42F8EA
:1058F0003100002004EB4401024A02EBC1010875AB
:1059000010BD0000B08A0020F0B587B007460D46F4
:1059100000BF002D0AD100BF30A34FF422723DA179
:1059200040A0FCF70BFE00BF07B0F0BD00BF7C68D5
:105930002088B0F5807F08D12079062805D16079CC
:10594000042802D16088082803D0384608F096FD64
:10595000EAE7D4F80E000690A0690590686808B9D7
:10596000002607E005986968884201D1012000E01F
:10597000002006460EB1012000E00220034604F19B
:10598000080206A9284600F0ADFCE088B0F5807F4B
:1059900003D0B0F5007F19D113E086B1022206AB27
:1059A00004F10800291DCDE90232CDE9001005F10E
:1059B000290302462531284600F040FB00E000BFE5
:1059C00005E006A92846FCF7B5FF00E000BF00BFD0
:1059D000384608F053FD00BFA6E700002E2E2F4DDD
:1059E0006964646C6577617265732F546869726469
:1059F0005F50617274792F4C7749502F7372632F07
:105A0000636F72652F697076342F65746861727088
:105A10002E6300006E6574696620213D204E554C52
:105A20004C000000417373657274696F6E2022250B
:105A30007322206661696C6564206174206C696EF4
:105A40006520256420696E2025730A002DE9FE4338
:105A500005460F461446A14600BF002D08D100BFE1
:105A600055A340F21B3262A165A0FCF767FD00BFA1
:105A700000BF00BF47B900BF4FA34FF447726AA1F0
:105A80005FA0FCF75BFD00BF00BF00BF002C08D18A
:105A900000BF49A340F21D3266A159A0FCF74EFD9C
:105AA00000BF00BF2946206803F07FF810B1DFF87F
:105AB000948176E0207800F0F000E02816D10120F3
:105AC0008DF8040000208DF805005E208DF806009A
:105AD000607800F07F008DF80700A0788DF808004E
