:020000040800F2
:10000000808A0020650100085B180008851500083B
:1000100059180008590300087D1900080000000065
:100020000000000000000000000000005F18000851
:100030005B030008000000005D180008611800085C
:100040007F0100087F0100087F0100087F01000890
:100050007F0100087F0100087F0100087F01000880
:100060007F0100087F0100087F0100087F01000870
:100070007F0100087F0100087F0100087F01000860
:100080007F0100087F0100087F0100087F01000850
:100090007F0100087F0100087F0100087F01000840
:1000A0007F0100087F0100087F0100087F01000830
:1000B0007F0100087F0100087F0100087F01000820
:1000C0007F0100087F0100087F0100087F01000810
:1000D0007F0100087F0100087F0100087F01000800
:1000E0007F0100087F0100087F0100080000000078
:1000F0000000000000000000000000000000000000
:1001000000000000000000007F0100087F010008DF
:100110007F0100087F0100087F0100087F010008BF
:100120007F0100087F0100087F0100087F010008AF
:100130007F010008AD0300087F0100087F0100086F
:100140007F0100087F0100087F0100087F0100088F
:10015000DFF80CD000F0EEF80048004751740008BA
:10016000808A00200648804706480047FEE7FEE7F1
:10017000FEE7FEE7FEE7FEE7FEE7FEE7FEE7FEE757
:1001800029190008510100082DE9F05F05460020FB
:1001900092469B4688460646814640241BE02846F8
:1001A00041464746224600F020F853465A46C01AB8
:1001B000914110D311461846224600F0ABF82D1A93
:1001C00067EB01084F4622460120002100F0A2F80B
:1001D00017EB00094E41201EA4F10104DFDC484664
:1001E00031462A464346BDE8F09F202A04DB203AE8
:1001F00021FA02F00021704721FA02F3D040C2F147
:10020000200291400843194670470000004870479B
:10021000905901080649074A0868504343F23902D9
:1002200010440860400870470149086070470000AA
:10023000000100206D4EC64140EA01039B0703D038
:1002400009E008C9121F08C0042AFAD203E011F815
:10025000013B00F8013B521EF9D27047D2B201E0D7
:1002600000F8012B491EFBD270470022F6E710B5BB
:1002700013460A4604461946FFF7F0FF204610BD14
:1002800030B505462A460B4612F8010B13F8014B10
:1002900008B1A042F8D01CB1002802D06D1CF1E7D3
:1002A000284630BD421C10F8011B0029FBD1801AE2
:1002B000704710B5002200E0521C835C8C5CA342A6
:1002C00001D1002BF8D1D8B2E1B2401A10BD30B53F
:1002D00004460020034600E05B1C934203D2E05C2E
:1002E000CD5C401BF8D030BD30B50B460146002038
:1002F0002022012409E021FA02F59D4205D303FAE8
:1003000002F5491B04FA02F52844151EA2F1010268
:10031000F1DC30BD202A04DB203A00FA02F1002093
:1003200070479140C2F1200320FA03F31943904033
:1003300070470000064C074D06E0E06840F00103FE
:1003400094E8070098471034AC42F6D3FFF704FF57
:10035000B45A0108D45A0108FEE77047064908B5A7
:1003600009684FF4FA52B1FBF2F14143009100BF2A
:10037000491E0091FBD208BD2800002038B5044674
:10038000006800F58050816941F480118161206826
:1003900000F58050806900900120FFF7DFFF2068A2
:1003A000009900F58050816138BD0000014800F0DF
:1003B0005AB90000684900202DE9F041044621B1F6
:1003C0004FF40060E060C000A060E06900260028F3
:1003D00061D035462068402702683A490A40D4E98E
:1003E00002131943294341F400711143016020684D
:1003F0000568012000F072F82068056020684760F9
:1004000020684568012000F069F820684560206890
:1004100086602068C660206881694FF6417211408D
:1004200041F08001816120688569012000F056F863
:10043000206885612068C6612068C569012000F0D8
:100440004DF82068C561206800F5805081691E4A1A
:1004500011401E4A0A438261206800F58050856978
:10046000012000F03BF8206800F58050856120688D
:10047000174900F580500160206800F5805005683C
:10048000012000F02BF8206800F580500560A0697D
:10049000012803D009E04FF480659BE7206800F550
:1004A0008050C1690B4A1143C16160690A4A818861
:1004B00011640178D0F8010041EA00205064BDE8E1
:1004C000F08100000F8120FF233FDEF804002002AE
:1004D0000020C102400001000080024070B50446C7
:1004E00000F08CFC0546601C02D0044800780444EF
:1004F00000F084FC401BA042FAD370BD1C00002019
:100500002DE9F04390F845500024012D0DD04FF017
:10051000010980F84590022580F8445044F2F45CCB
:100520004FF000485F1E816216E00220BDE8F083B4
:1005300001EB0415C5F80080C4EBC41606EB4606B3
:1005400002EB8606C5E901C6BC4203D205F11006DE
:10055000EE6000E0E960641C9C42E9D3026802F5A9
:100560008052D16080F84490002180F84510084600
:10057000DCE72DE9F04390F845400025012C0BD035
:100580004FF0010C80F845C0022480F844404FF43D
:1005900080195F1EC1621BE00220BDE8F08301EB01
:1005A0000514C4F80090C5EBC51606EB460602EB31
:1005B0008606A660C6691EB9266846F4400626600F
:1005C000BD4203D204F11006E66000E0E1606D1C5C
:1005D0009D42E4D3026802F58052116180F844C064
:1005E000002180F845100846D7E7704710B590F80D
:1005F0004510012913D0012380F84530022180F8ED
:100600004410816A0A680024002A27DB0A68D205A0
:1006100018D5826B521C8263012A02D002E00220AC
:1006200010BD016341630A68C2F30D42121FC26329
:10063000026B92680264C96840F8281F0377447708
:10064000002010BD0A68920503D58363C0E90C142D
:1006500002E0826B521C8263C968816200F8443FE9
:100660004470012010BD70B50446006800F580504C
:1006700041694FF0000649064FF0010508D52046B4
:1006800000F0C1F92068402100F58050416109E087
:100690004069C0070AD0204600F07CFA206800F5C7
:1006A0008050456184F8445084F8456020684FF4D8
:1006B000803100F580504161206800F5805040692C
:1006C00000040CD52046FFF790FF20684FF400414E
:1006D00000F58050416184F8445084F8456070BD55
:1006E0002DE9F8434FF000060400B146009603D010
:1006F00094F8440018B107E00120BDE8F88384F8BD
:100700004560204600F0BEF85948416821F40001D8
:1007100041604168226A11434160206800F58050C1
:10072000016841F00101016000F068FB05464FF4EB
:10073000FA7708E000F062FB401BB84203D90320BF
:1007400004F8440F57E0206800F580500068C007A7
:10075000F0D12068006920F01C0500F089FC4549B3
:10076000454A0144914202D245F0080506E043495A
:1007700008444349884201D245F00C0520680561D0
:100780004FF400420021204600F005FA0125A8BBE5
:10079000FF20FFF7A3FE606888B300F02FFB8046C0
:1007A00041F288376A460121204600F0EBF800F05C
:1007B00025FBA0EB0800B84217D800984007F1D5F8
:1007C0004FF480520021204600F0E5F9B0B900F066
:1007D00015FB80466A460121204600F0D3F800F060
:1007E0000DFBA0EB0800B8420AD901212046FFF713
:1007F000E3FD04F8445F032066707EE724E018E020
:1008000000988006E6D56A461021204600F0BAF826
:10081000D0B90098410703D54FF40061E16000E0D2
:10082000E660800701D5A66019E04FF48040A06023
:1008300015E0E068A168C00840EA510082B20021DA
:10084000204600F0A8F930B101212046FFF7B4FDA1
:1008500084F8445050E740F6FF70FFF73FFE4946EA
:100860002046FFF7A9FD84F84450002045E700002A
:100870000000014000D3CEFEC0E1E40040F1E9FDFC
:1008800040787D012DE9F04186B000240094019468
:100890000294039400683649884265D1354841691D
:1008A00041F480414161416901F480410491416911
:1008B00041F400414161416901F400410491416901
:1008C00041F480314161416901F4803104918169D1
:1008D00041F010018161816901F010010491816989
:1008E00041F004018161816901F004010491816991
:1008F00041F0080181618069022500F0080000953F
:1009000003260195CDE90360DFF86C806946404617
:1009100000F07CF98220CDE90004184F6946384682
:10092000029400F073F90420CDE9000569460396AE
:10093000384600F06BF93020CDE9000469464046A6
:10094000029400F063F94FF46050CDE90005694668
:1009500003960B4800F05AF9002211463D2000F0A2
:10096000B9FA3D2000F0A8FA06B0BDE8F081000019
:1009700000800240001002400010014000080140C9
:10098000000C01402DE9F047044690F844009146E0
:1009900082281DD0822084F84400206802694FF626
:1009A000FF7502F01C03228A05EAC2221A434FF4A3
:1009B000F86303EA8111114321F0020141F00105BE
:1009C000056100F01BFA064601274FF480380FE05E
:1009D0000220BDE8F08700F011FA801B404505D3E6
:1009E00004F8447F002060700320F2E72068056966
:1009F000E807F0D12068406981B2C9F8001084F896
:100A000044700020E5E77047F8B5044690F84500CB
:100A1000012839D0012584F84550022084F844008B
:100A200020680026016841F0080101602068006824
:100A300000902846FFF792FC216800980860206823
:100A4000016841F004010160206800680090012005
:100A5000FFF784FC2168009808602046FFF78EFCB1
:100A6000206800F58050816941F40051816120685F
:100A700000F58050816941F00201816184F84450A1
:100A800084F845600020F8BD0220F8BDF0B590F86C
:100A900045300022012B11D0012780F84570022338
:100AA00080F84430002559B1C46A2368002B0ADA63
:100AB000122100F8441F45700120F0BD0220F0BD56
:100AC00000F8447FF7E740F2F456B1420BD9B1FB8E
:100AD000F6FCB1FBF6F306FB1C1CBCF1000F00D0CA
:100AE0005B1C012B43D1226842F040522260C26A53
:100AF000C1F30C015160C16A0A6842F000420A6009
:100B0000C16AC968C16234E0D4F800C02CF0405C0E
:100B1000C4F800C032B9C46AD4F800C04CF0805C9C
:100B2000C4F800C0C46A66605C1EA24214D1C46AE4
:100B3000D4F800C04CF0005CC4F800C0C3F101045C
:100B4000C4EBC41404EB4404D0F82CC001EB8404BF
:100B5000C4F30C04CCF80440C46AD4F800C04CF0D0
:100B6000004CC4F800C0C46A521CE468C4629A42D3
:100B7000CAD3016801F580514A69520705D504229C
:100B80004A61016801F580514D6000F8447F45706D
:100B90000020F0BD70472DE9F041044690F8440074
:100BA00042281ED0422084F84400206803694FF692
:100BB000FF7603F01C05238A06EAC3232B434FF478
:100BC000F86505EA8111194341F0030591B24161CD
:100BD0002068056100F012F9064601274FF48038BD
:100BE0000FE00220BDE8F08100F008F9801B4045CD
:100BF00005D304F8447F002060700320F2E72068EA
:100C00000569E807F0D184F84470EBE72DE9F84F67
:100C1000DFF8A491002409F1040A0AF1040B234629
:100C20004FF00F080BF1040EBEE00127A7403A4039
:100C3000BA4272D1DFF884C14D68A5EB0C06654558
:100C40002BD00DDC032D34D005DC35B3012D19D0AC
:100C5000022D2FD11BE0112D16D0122D2AD119E013
:100C6000B6F5881F19D006DCB6F5803F15D0B6F56D
:100C7000801F1FD111E0B6F5001F0ED0B6F5041F7E
:100C800018D10AE0CB6815E0CB681B1D12E0CB68D9
:100C900008330FE0CB680C330CE08B682BB1012BD1
:100CA0004FF0080303D0476104E0042302E007612A
:100CB00000E00023FF2A01D8064601E000F1040607
:100CC0004FEA840501D9A5F12005376808FA05FC2B
:100CD00027EA0C0703FA05F547EA050737604D6870
:100CE000ED0060D5364DAE6946F00106AE61AD69E6
:100CF00024F0030605F001050095324D7719BE6812
:100D0000A5072D0F08FA05FC26EA0C06DFF8B8C087
:100D1000604503D14FF0000C17E044E0DFF8ACC0B1
:100D2000604502D14FF0010C0FE0DFF8A4C0604530
:100D300002D14FF0020C08E0DFF898C0604502D104
:100D40004FF0030C01E04FF0040C0CFA05FC4CEAE8
:100D5000060CC7F808C04D68D9F80060ED034D4691
:100D600001D5164300E096432E604D68DAF8006026
:100D7000AD03554601D5164300E096432E604D68FD
:100D8000DBF80060ED025D4601D5164300E09643B6
:100D90002E604D68DEF80060AD02754601D5164341
:100DA00000E096432E60641C0A6832FA04F57FF472
:100DB0003CAFBDE8F88F00000004014000001110B6
:100DC000001002400000014000080140000C0140FA
:100DD00000100140001401408068084000D001204C
:100DE0007047C2680A4201D0416170470161704793
:100DF0000AB1016170470904FBE7000001488068FF
:100E0000704700001C0000200248816802781144ED
:100E1000816070471C000020074810B5016841F050
:100E200010010160032000F075F8002000F006F8C2
:100E300000F024F8002010BD0020024070B50D4DD8
:100E400004464FF47A712878B1FBF0F00A4909683A
:100E5000B1FBF0F000F082FB48B9102C07D2002261
:100E60002146501E00F036F800206C6070BD012055
:100E700070BD00001C000020280000200C4808B5B0
:100E8000816941F001018161816901F001010091F5
:100E9000C16941F08051C161C069064900F08050CC
:100EA0000090486820F0E06040F00070486008BDA5
:100EB0000010024000000140002809DB00F01F0282
:100EC000012191404009800000F1E020C0F80011AC
:100ED00070470000F0B40E4B1B68C3F30223C3F14C
:100EE0000704042C00D904241D1D072D01D2002362
:100EF00000E0DB1E012606FA04F56D1E0D409D4044
:100F00009E40761E164045EA0601F0BC00F048BD42
:100F10000CED00E0064A00F0070110684FF6FF03F1
:100F2000184040EA01200349084310607047000060
:100F30000CED00E00000FA052DE9F0470D46040035
:100F400067D0DFF81881D8F8000000F00700A84249
:100F50000CD2D8F8001021F007012943C8F800107E
:100F6000D8F8000000F00700A84252D120683C4E9B
:100F7000810712D5400703D5706840F4E0607060C7
:100F80002078000703D5706840F460507060706886
:100F9000A16820F0F000084370602078C00727D0D7
:100FA0006068012810D03168022810D08907002914
:100FB0002FDA716821F0030101437160FFF71EFF12
:100FC000074641F288390CE031688903EFE789016F
:100FD000EDE7FFF713FFC11B494502D90320BDE828
:100FE000F0877068616800F00C00B0EB810FF0D101
:100FF000D8F80010404601F00701A9420BD901685A
:1010000021F0070129430160006800F00700A842B1
:1010100001D00120E3E72078400705D57068E1683A
:1010200020F4E060084370602078000706D57068FF
:10103000216920F4605040EAC100706000F01EF8A1
:101040007168084AC1F30311515CC8400649086041
:1010500006480068FFF7F2FE0020C0E700200240CB
:10106000001002401CEA0008280000202000002098
:10107000014800687047000028000020F0B524A057
:1010800089B00FC88DE80F0025A004AC0FC884E814
:101090000F00274B586800F00C01042904D00829E0
:1010A00004D0244809B0F0BD2348FBE7C0F38342D5
:1010B000C0031DF8024028D5D86A04A900F00F002B
:1010C000085CD96AC90316D5D96AC1F30312D96A73
:1010D000521CC1F30321891CA2FB0023A1FB0417AE
:1010E000154D0026A1FB050C07FB05C501FB0651AC
:1010F000FFF74AF803E010496143B1FBF0F09DF8B7
:101100000D10A142CED14008CCE70C486043C9E79E
:10111000000004050607080900000000000D00009B
:101120000102030405060708090A0B0C0D0E0F1037
:101130000010024000127A0040787D0100093D0055
:1011400030B585B00020029002200190032003906A
:101150000B4C4FF480700090A0690D4640F00400E5
:10116000A061A069694600F0040004900548FFF7FB
:101170004DFD606820F070602843606005B030BDB0
:1011800000100240000801402DE9F84F04006ED025
:101190002078ED4DC00747D06868C0F38100012872
:1011A00007D06868C0F38100022809D16868C003CD
:1011B00006D52868800337D5A0680028E7D033E03B
:1011C000A068B0F5803F0BD010B1B0F5A02F11D0C2
:1011D000286820F480302860286820F4802002E00D
:1011E000286840F480302860A06888B1FFF706FEC8
:1011F000064609E0286840F480202860F0E7FFF701
:10120000FDFD801B642874D828688003F7D50BE0A7
:10121000FFF7F4FD064604E0FFF7F0FD801B6428AD
:10122000F1D828688003F7D42078C84E80074FF0A3
:10123000010A4FF000073AD5686810F00C0F07D08C
:101240006868C0F38100022809D16868C00306D429
:101250002868800715D56069012808D111E0606908
:10126000B8B1C6F800A0FFF7C9FD804606E041E12D
:10127000FFF7C4FDA0EB08000228C4D82868800747
:10128000F6D52868A16920F0F80040EAC10028607E
:101290000DE03760FFF7B2FD804605E0FFF7AEFDD9
:1012A000A0EB08000228AED828688007F6D4207882
:1012B00000072DD5A648E169E1B1C0F800A0FFF70D
:1012C0009DFD804605E0FFF799FDA0EB0800022890
:1012D00099D8686A8007F6D59E484FF4FA5100689D
:1012E000B0FBF1F0009000BF0098411E0091FAD2CF
:1012F0000EE0B1E00760FFF781FD804605E0FFF7F3
:101300007DFDA0EB080002288AD8686A8007F6D421
:101310002078400762D5E8694FF00009C00009D481
:10132000E86940F08050E861E8694FF0010900F099
:101330008050009088480168C90512D4016883462E
:1013400041F480710160FFF759FD804605E0FFF729
:1013500055FDA0EB080064287ED8DBF80000C0052E
:10136000F5D5206901280AD008B1052813D0286ACC
:1013700020F001002862286A20F0040002E0286AB8
:1013800040F001002862206941F2883B90B1FFF7EC
:1013900035FD80460AE0286A40F004002862EEE746
:1013A000FFF72CFDA0EB0801594555D8286A8007A6
:1013B000F6D50CE0FFF722FD804605E0FFF71EFDA5
:1013C000A0EB0801594547D8286A8007F6D4B9F13F
:1013D000000F03D0E86920F08050E861E06AE0B3D4
:1013E0006968C90307D56968C1F38101022902D17F
:1013F000E96AC9037ED4022808D0E86A20F4803064
:10140000E862B766FFF7FAFC80463BE02868C00058
:1014100005D5E86A616B00F0F00088426AD1B766D2
:10142000FFF7ECFC804605E0FFF7E8FCA0EB0800C6
:10143000642871D828680001F6D4E86A616B20F04E
:10144000F0000843E862E86A216B20F4706008430A
:10145000E862C6F868A001E05EE016E0FFF7CEFCA7
:10146000804605E0FFF7CAFCA0EB0800642853D8CB
:1014700028680001F6D508E0FFF7C0FCA0EB0800E3
:10148000642849D828680001F6D4206A98B36968AE
:10149000C1F38101022946D00228376603D0FFF745
:1014A000ADFC04463BE0FFF7A9FC074604E0FFF76C
:1014B000A5FCC01B02282FD828688001F7D4606AD9
:1014C000B0F5803F09D1E86A61680843E862E86ADC
:1014D000E16820F00F000843E862D4E909010843FD
:1014E000696821F4741108436860C6F860A0FFF7CA
:1014F00085FC01E024E025E0044604E0FFF77EFCE3
:10150000001B022808D828688001F7D51AE0FFF7E9
:1015100075FC001B022802D90320BDE8F88F28685B
:101520008001F4D40EE00128F7D06868626A00F404
:101530008031914204D1A16A00F47010884201D038
:101540000120EAE70020E8E70010024000004242E4
:1015500080044242280000200070004010B5401E68
:10156000B0F1807F01D3012010BD4FF0E024606115
:101570000F21601700F014FA0020A06107202061FD
:10158000002010BDFEE7000070B50546046800F0BD
:101590003DF8287C092815D1E06AC00202D50AA0CE
:1015A00007F0C8FF2946134808F026FDE07C4FF4F9
:1015B0007A7148432A460F4908F068FCE06A40F413
:1015C0008010E06270BD0000617373657274696FB2
:1015D0006E206C63705F6563686F5F74696D6572C0
:1015E0005F72756E6E696E673D3D30206661696C35
:1015F00065640000F91500080168CA6AD30204D5C1
:1016000022F48012CA62FFF7BFBF70472DE9FC4188
:101610000468064604F18407207D002817D094F85A
:10162000F210814213D3307C254609280CD118A032
:1016300007F072FC1EA007F032FD092085F82D008E
:1016400025A1284604F058FE002084F8F200307CE2
:1016500009281AD1B86801AB010E8DF80410010CED
:101660008DF80510010A8DF806108DF8070004208A
:10167000009014F8F32F0921501C04F8010930469A
:1016800002F006F92078401C2070BDE8FC810000C3
:101690004E6F20726573706F6E736520746F2025B6
:1016A00064206563686F2D7265717565737473006E
:1016B00053657269616C206C696E6B206170706536
:1016C00061727320746F20626520646973636F6E4A
:1016D0006E65637465642E0050656572206E6F746C
:1016E00020726573706F6E64696E670070B586B046
:1016F00000241D480094019402940394816941F0F0
:1017000010018161816901F010010491816941F04A
:1017100004018161816901F004010491816941F052
:10172000080181618069114E00F008004FF40055F6
:101730000490002229463046FFF75AFB012000950D
:10174000CDE901040224694630460394FFF75EFAAE
:10175000E001CDE900040320039069460448FFF747
:1017600055FA06B070BD00000010024000100140A4
:10177000000801400EB505F039FE2E490868C97809
:1017800003BA0A0603F47F4342EA032203BA00BA0B
:101790000843284903F47F0342EA13220C3142EA4A
:1017A0001060086008390868C97803BA0A0603F4AB
:1017B0007F4342EA032203BA00BA08431D4903F4F7
:1017C0007F0342EA1322103142EA106008600839B0
:1017D0000868C97803BA0A0603F47F4342EA032281
:1017E00003BA03F47F0300BA42EA13220843114903
:1017F00042EA10601431104A0860104900208DE858
:1018000007000C4B0E4814331A1F111F06F09EF9E7
:101810000B4806F03DFA0A4890F82B0040070848AC
:1018200003D5BDE80E4006F089BABDE80E4006F0CB
:1018300035BA000000000020C52D0008812F0008E7
:101840000801002010B5034801F0DEFBBDE81040A0
:1018500008F0EABA08010020FEE7704770477047B9
:1018600010B5FFF7D1FA0A49087800280FD0488848
:10187000401C80B24880B0F5FA7F08D30020488031
:10188000BDE810404FF400510248FFF7AABA10BD5E
:10189000180000200010014030B593B03821684690
:1018A000FEF7E3FC14210EA8FEF7DFFC0124200460
:1018B0000421CDE902010225CDE9085000940190F0
:1018C00005944FF4E010CDE90A054FF4C0600C9088
:1018D00040200D906846FFF757FC0F20CDE90E051C
:1018E0000020A102CDE91001129002210EA8FFF7FD
:1018F00023FB00224FF030611046FFF721FC08481F
:10190000C16A21F0F00141F04001C162C16A21F4D5
:10191000704141F40041C1620248046713B030BD18
:1019200000100240000042421048016841F00101ED
:10193000016041680E4A1140416001680D4A114042
:101940000160016821F480210160416821F4FE01F9
:101950004160016821F0A05101604FF47F01816076
:101960000021C1620449C0030860704700100240B2
:101970000000FFF0FFFFF6FE08ED00E0FEE70000CC
:101980000FB4054B10B503A9044A029800F028F8DB
:1019900010BC5DF814FB00002B300008040100208F
:1019A0000907090E002804DB00F1E02080F800148C
:1019B000704700F00F0000F1E02080F8141D704720
:1019C00002E008C8121F08C1002AFAD17047704708
:1019D000002001E001C1121F002AFBD17047000066
:1019E0002DE9FF4F8BB09A460F460546002606E0CC
:1019F00025280BD052460D9990476D1C761C2878EF
:101A00000028F5D10FB03046BDE8F08F0024A04685
:101A10000122604900E0044315F8013F203B02FA2F
:101A200003F00842F7D128782E2817D115F8010FB6
:101A300044F004042A280ED06FF02F022878A0F179
:101A4000300109290AD808EB880102EB410100EBBB
:101A500001086D1CF2E757F8048B6D1C2878692883
:101A60003ED006DC0028CDD063280BD0642804D1FA
:101A700036E0732810D075284BD052460D99904708
:101A8000761C85E017F8040B8DF8000000208DF817
:101A90000100E946012003E057F8049B4FF0FF30B6
:101AA00061074FF0000401D40AE0641C44450DDADC
:101AB0008442FADB19F804100029F6D106E0641C10
:101AC0008442FCDB19F804100029F8D1264404E014
:101AD00019F8010B52460D999047641EF8D257E051
:101AE00001CF4FF00A0B002802DA40422D2102E01C
:101AF000210504D52B218DF82410012103E0E107F5
:101B000005D02021F7E70DF1200908910CE0002114
:101B1000F9E701CF4FF00A0BF9E75946FEF7E4FB6E
:101B200001F1300209F8012D0028F6D1ADEB0900D2
:101B300000F1200B600701D44FF00108D84502DD09
:101B4000A8EB0B0000E000208046002406E009A876
:101B50005246005D0D999047641C761C089884429B
:101B6000F5DB04E0302052460D999047761CB8F121
:101B70000001A8F10108F5DC05E019F8010B524657
:101B80000D999047761CBBF10001ABF1010BF4DC21
:101B90006D1C34E709280100072180F82D1001A1F0
:101BA00004F0AABB4661696C656420746F2061759E
:101BB0007468656E746963617465206F75727365AE
:101BC0006C76657320746F2070656572000000008C
:101BD00070B50446A1F540400DA6233813D00DA0E2
:101BE00007F0A8FC0025314615A007F058FA608ED2
:101BF00028436086208EA843208607D12046BDE872
:101C0000704008F006B9012514A6ECE770BD00008D
:101C100000000000617574685F77697468706565BD
:101C2000725F737563636573733A20756E6B6E6F65
:101C3000776E2070726F746F636F6C202578000070
:101C400025732061757468656E7469636174696F6A
:101C50006E20737563636565646564005041500070
:101C600070B515460C46002000F070F90068A042DF
:101C700003D10849002000F041FA012000F066F984
:101C80000068A84203D10349012000F037FA01207F
:101C900070BD00000459010810B5044B806A044A65
:101CA000194605F0D1FF012010BD000004590108BC
:101CB000085901082DE9F041054600244FF440473A
:101CC0000F4E0CE00188B94208D2816931B1284633
:101CD000884795F8F400401C85F8F400641C56F819
:101CE00024000028EED195F8F400002805D12846FC
:101CF000BDE8F04103A104F0FFBABDE8F0810000A7
:101D0000F0EA00084E6F206E6574776F726B20707A
:101D1000726F746F636F6C732072756E6E696E672D
:101D20000000000010B50446406880472246206845
:101D3000BDE81040014908F0A9B80000251D0008C1
:101D40002DE9F35FDFF88890064600EB0611A9F550
:101D5000886B00240BEB0115A24605F1100804EB7B
:101D60004407494659F8273053B101EB8700027AFE
:101D7000B24205D1426840460199984749F827A0E8
:101D8000641CE4B2042CEAD3002104245A46B14274
:101D90000DD001EB011002EB0010837A022B06D16B
:101DA000C07BEB7B984202D1EC73BDE8FC9F491CE1
:101DB000C9B20429EBD3E87B0428F6D2054E56F8C5
:101DC00020000CF083FBE97B46F821A0ECE7000043
:101DD000C44F0020744B00202DE9F0410646344FDB
:101DE00000EB061007EB0014042E06D331A34FF4CA
:101DF0007E723CA142A0FFF7C3FDA07A002854D018
:101E000000254FF0010801280CD0022821D003281A
:101E100045D0BDE8F04127A340F2374242A138A0A7
:101E2000FFF7AEBDFEF7F6F982B2002000EB00111D
:101E300007EB01118B7A022B02D109899142F1D073
:101E4000401CC0B20428F1D322810220A072E572A6
:101E50001CE0207B401E10F0FF00207325D1607B2A
:101E6000401CC0B26073042805D020733046BDE822
:101E7000F04100F079B8E07A0146401C022809D20E
:101E8000314A02EB8101496821B1E07284F80C808B
:101E90006573EBE700213046FFF752FF04E020684E
:101EA00010B1401E206000D1A572BDE8F081000095
:101EB000844B00202E2E2F4D6964646C657761720F
:101EC00065732F54686972645F50617274792F4C26
:101ED0007749502F7372632F636F72652F646E732F
:101EE0002E630000617272617920696E64657820EA
:101EF0006F7574206F6620626F756E6473000000EA
:101F0000417373657274696F6E2022257322206697
:101F100061696C6564206174206C696E652025645C
:101F200020696E2025730A00756E6B6E6F776E20C8
:101F3000646E735F7461626C6520656E7472792083
:101F400073746174653A000054000020022803D2C3
:101F5000024901EB8000704701487047540000209F
:101F600004590108704700002DE9FF5F0446454908
:101F700000EB041001EB0016F07A022806D342A30E
:101F800040F2ED224CA152A0FFF7FAFCF17A5A4838
:101F9000002550F8210038B306F110000446FEF782
:101FA00081F9123081B20022104605F00FFF5FEA7E
:101FB000000A62D0009501950295308905F014FA67
:101FC000ADF8000001208DF802004FF4807BADF8E1
:101FD00004B00C226946504606F0E4FD0C27641E4E
:101FE000641CA04600250BE000212046FFF7A8FE58
:101FF000B572002004B0BDE8F09F6D1CEDB2641C0A
:1020000020782E2801D00028F7D1A4EB08001FFA71
:1020100080F92A463946504606F094FC781C83B273
:102020004A464146504606F07BFE7819401C87B26E
:1020300020780028D4D100223946504606F082FC90
:102040007F1CADF80CB0BBB2ADF80EB0042203A9F2
:10205000504606F065FEF27A2749F07B01EB8202DA
:1020600008493523103951F8200051460CF046FA42
:102070000446504606F006FB01E04FF0FF342046D0
:10208000B8E70000844B00202E2E2F4D6964646C4D
:102090006577617265732F54686972645F5061720D
:1020A00074792F4C7749502F7372632F636F726569
:1020B0002F646E732E630000646E732073657276F6
:1020C0006572206F7574206F66206172726179008D
:1020D000417373657274696F6E20222573222066C6
:1020E00061696C6564206174206C696E652025648B
:1020F00020696E2025730A0054000020022805D2B2
:10210000044A02EB800011B109680160704702497E
:10211000FAE70000540000200459010810B500241B
:102120002046FFF759FE641CE4B2042CF8D310BD1E
:1021300070B505460C46880706D006A34FF4CE724C
:1021400010A118A0FFF71CFCA86800682060A86810
:10215000046070BD2E2E2F4D6964646C65776172CA
:1021600065732F54686972645F50617274792F4C83
:102170007749502F7372632F636F72652F6D656D92
:10218000702E63006D656D705F667265653A206DD7
:10219000656D2070726F7065726C7920616C696713
:1021A0006E656400417373657274696F6E202225D9
:1021B0007322206661696C6564206174206C696EAD
:1021C0006520256420696E2025730A0010B580689B
:1021D0000468002C0CD021680160A00706D005A37C
:1021E0004FF4A4720FA118A0FFF7CAFB204610BD40
:1021F000002010BD2E2E2F4D6964646C65776172CE
:1022000065732F54686972645F50617274792F4CE2
:102210007749502F7372632F636F72652F6D656DF1
:10222000702E63006D656D705F6D616C6C6F633AED
:10223000206D656D702070726F7065726C792061B1
:102240006C69676E65640000417373657274696FD1
:102250006E2022257322206661696C65642061749A
:10226000206C696E6520256420696E2025730A0044
:1022700070B50A4E0546002404EB440006EBC0008E
:10228000017D29B18068A84202D1204600F02CF9D6
:10229000641CE4B20A2CEFD370BD00008C850020D2
:1022A0002DE9F74F80460A2084B0002402900746AB
:1022B0000190A346A246A14600904C4904EB44007D
:1022C00001EBC0060390357D0A2F18D0002D24D0D5
:1022D000012D08D0022D06D245A340F2251252A1AD
:1022E00061A0FFF74DFBB8F1000F0CD0D8F800004B
:1022F0007168884207D160B207B0BDE8F08F002D49
:10230000E6D167B209E0012D15D0022D05D3708A00
:10231000484502D361B281460191641CE4B20A2CA3
:10232000CBD3059881074FF0FF30E5D40A2F15D0A5
:1023300017DAFCB23AE02D48039950F83100002832
:10234000708A05D05845E8D361B283460091E4E72E
:102350005045E2D361B282460291DEE70599C90792
:10236000CAD001990A290EDACCB2204804EB440104
:1023700050F8310070B11EA340F26F1244A13AA090
:10238000FFF7FEFA06E002990A2902DB00990A2902
:10239000B2DACCB20A2C06D315A340F2811242A1C4
:1023A00031A0FFF7EDFA204600F09EF80A2C06D384
:1023B0000FA340F285123CA12BA0FFF7E1FA0B48D6
:1023C00004EB440100EBC105287D30B108A34FF4B4
:1023D000C3723AA124A0FFF7D3FAB8F1000F02D0DC
:1023E000D8F8000068600020688284E78C850020AF
:1023F0002E2E2F4D6964646C6577617265732F545E
:10240000686972645F50617274792F4C7749502FFC
:102410007372632F636F72652F697076342F6574E2
:10242000686172702E6300007374617465203D3DB5
:10243000204554484152505F53544154455F5045E4
:102440004E44494E47207C7C207374617465203E65
:102450003D204554484152505F53544154455F53C9
:102460005441424C45000000417373657274696FBA
:102470006E2022257322206661696C656420617478
:10248000206C696E6520256420696E2025730A0022
:102490006172705F7461626C655B695D2E71203D75
:1024A0003D204E554C4C000069203C204152505F6D
:1024B0005441424C455F53495A4500006172705F78
:1024C0007461626C655B695D2E7374617465203D37
:1024D0003D204554484152505F53544154455F4557
:1024E0004D5054590000000070B5074D00EB4004FA
:1024F000002655F8340018B106F0C4F845F83460E9
:1025000005EBC400067570BD8C8500202DE9F043F5
:1025100085B00D00074609D07C684FF4807820888C
:1025200040453BD12079062838D109E01DA34FF45E
:1025300022722AA12DA0FFF723FA05B0BDE8F0838F
:10254000607904282AD16088082827D1D4F80E00A1
:102550000490A169686818B1814201D1012600E0A8
:1025600000260EB1012300E0022304F10802914687
:1025700004A9284600F098FBE08840450ED16EB1D2
:10258000022204ABCDE90232291DCDE9001905F183
:10259000250319464A46284600F088FA384606F0D0
:1025A00071F8CAE72E2E2F4D6964646C65776172ED
:1025B00065732F54686972645F50617274792F4C2F
:1025C0007749502F7372632F636F72652F6970762E
:1025D000342F6574686172702E6300006E657469D3
:1025E0006620213D204E554C4C0000004173736520
:1025F0007274696F6E2022257322206661696C6592
:1026000064206174206C696E6520256420696E20E9
:1026100025730A00FEB514460E46050006D141A3F7
:1026200040F21B324DA151A0FFF7AAF936B93DA3E4
:102630004FF4477257A14DA0FFF7A2F934B939A35F
:1026400040F21D3256A149A0FFF79AF929462068A9
:1026500001F05CFE08B1564B39E02068C0F303116D
:102660000E291FD0A9686B6800EA01020B409A424C
:1026700008D080B2A0F57E41A93903D0E86880B3C4
:1026800005F10C044B4B4C4A187800EB400102EB6F
:10269000C1010F7D022F28D3276849688F4224D1BA
:1026A000024630E001208DF8040000208DF805007E
:1026B0005E208DF80600607801AB00F07F008DF899
:1026C0000700A0788DF80800E0788DF809004FF435
:1026D0000060009005F125023146284600F0D4FB49
:1026E000FEBDFFE76FF00300FAE7002101EB4100B8
:1026F00002EBC000077D022F0AD32768406887429B
:1027000006D1CAB21A703146284600F057F8E7E7FA
:10271000491C49B20A29E9DB32462146284600F025
:10272000D5F8DDE72E2E2F4D6964646C65776172F4
:1027300065732F54686972645F50617274792F4CAD
:102740007749502F7372632F636F72652F697076AC
:10275000342F6574686172702E6300006E65746951
:102760006620213D204E554C4C000000417373659E
:102770007274696F6E2022257322206661696C6510
:1027800064206174206C696E6520256420696E2068
:1027900025730A007120213D204E554C4C0000004D
:1027A00069706164647220213D204E554C4C0000DC
:1027B00048EB0008F40000208C8500202DE9F84348
:1027C0000646154688461C4802EB450100EBC1044D
:1027D000207D022806D219A34FF43B7225A131A017
:1027E000FFF7CEF8144A05EB4501207D02EBC10549
:1027F0000C35022813D1608A0327B0F58E7F04D9E7
:10280000211D304600F00AFA07E0B0F5877F06D3B5
:102810002A46211D304600F007FA00B927754FF40B
:10282000006000902B4606F125024146304600F03C
:102830002BFBBDE8F88300008C8500202E2E2F4D49
:102840006964646C6577617265732F54686972643A
:102850005F50617274792F4C7749502F7372632FD8
:10286000636F72652F697076342F6574686172705A
:102870002E6300006172705F7461626C655B6172EF
:10288000705F6964785D2E7374617465203E3D20CD
:102890004554484152505F53544154455F5354414D
:1028A000424C4500417373657274696F6E20222536
:1028B0007322206661696C6564206174206C696EA6
:1028C0006520256420696E2025730A002DE9FC5FD0
:1028D0008246253001908846086816464FF0FF373B
:1028E0004FF0000B514601F011FD002828D1D8F817
:1028F0000000C0F303110E2922D0B8F1000F1FD041
:1029000000281DD0524601214046FFF7C9FC0400B3
:1029100018D43B4904EB440901EBC905287D002884
:1029200012D0012808D0022806D236A340F2C732BE
:1029300042A14CA0FFF724F8BBF1000F0AD108E038
:102940006FF00F00BDE8FC9F01202875C5F808A0B6
:1029500000E036B94146504600F060F90746002EC7
:10296000F0D0287D264902280DD3484805F10C03F4
:10297000314604704FF4006000905046019A00F018
:1029800083FA074639E08846012836D100253446C7
:102990004FF47B7760892189884207D1206828B16C
:1029A00018A33A463AA12FA0FEF7EAFF207B0128A0
:1029B00003D12468002CEDD175B1218900220220B9
:1029C00005F004FA050016D0314605F0D7FC40B1F9
:1029D000284605F057FE0EE03546304606F08EF8E4
:1029E0004DB158F83900444608B105F04BFE44F8A3
:1029F0003950002701E04FF0FF373846A2E70000CA
:102A00008C8500202E2E2F4D6964646C6577617271
:102A100065732F54686972645F50617274792F4CCA
:102A20007749502F7372632F636F72652F697076C9
:102A3000342F6574686172702E6300006172705F7C
:102A40007461626C655B695D2E7374617465203DB1
:102A50003D2050454E44494E47206F72205354410B
:102A6000424C4500417373657274696F6E20222574
:102A70007322206661696C6564206174206C696EE4
:102A80006520256420696E2025730A00F40000206B
:102A90006E6F207061636B65742071756575657309
:102AA00020616C6C6F776564210000002DE9FF4F99
:102AB00081B09846DDE90FA9DDF838B006004FF087
:102AC000000706D12BA34FF48B6238A13BA0FEF781
:102AD00057FF00221C21022005F078F9050046D09E
:102AE00068891C2806D223A340F263423DA133A08B
:102AF000FEF746FF6C68119804F076FCE08096F8CB
:102B00002400062806D01BA340F26A4242492BA0AB
:102B1000FEF736FFD8F80010A160B8F80400A081D5
:102B2000DAF80010C4F81210BAF80400E082DBF8FA
:102B30000000C4F80E00D9F80000A0614FF48070C6
:102B4000208008206080062020710420607140F6FB
:102B50000600DDE9022300902946304600F094F992
:102B6000284605F08FFD384605B0BDE8F08F4FF0E0
:102B7000FF30F9E72E2E2F4D6964646C6577617222
:102B800065732F54686972645F50617274792F4C59
:102B90007749502F7372632F636F72652F69707658
:102BA000342F6574686172702E6300006E657469FD
:102BB0006620213D204E554C4C000000417373654A
:102BC0007274696F6E2022257322206661696C65BC
:102BD00064206174206C696E6520256420696E2014
:102BE00025730A00636865636B20746861742066EE
:102BF0006972737420706275662063616E20686FFD
:102C00006C6420737472756374206574686172708B
:102C10005F68647200000000705A0108014A00F009
:102C200003B8000048EB00087FB5064D031D0124E2
:102C3000CDE90035CDE9021421331946FFF736FFFF
:102C400004B070BD4EEB000870B5164D002404EBC7
:102C5000440005EBC002117DF1B1508A401C80B2E6
:102C60005082B0F5967F0AD2012906D003290AD0F6
:102C700004290AD001290BD00EE0052808D32046EC
:102C8000FFF732FC08E0042000E00220107503E0AA
:102C9000111D9068FFF7C2FF641CE4B20A2CD6D362
:102CA00070BD00008C850020F8B5044690F8240023
:102CB0001F4615460E46062806D020A340F2AB124A
:102CC0002CA135A0FEF75CFE9EB3306888B3214688
:102CD00001F01CFB68BB3078C0F303100E2829D02C
:102CE000224639463046FFF7DBFA002820DB344A1B
:102CF00000EB400102EBC1000223037584602B68E6
:102D0000C360AB8803820023438252F8316076B1FE
:102D100042F831304FF4006000902B4604F1250258
:102D20003146204600F0B0F8304605F0ABFC0020FC
:102D3000F8BDFFE76FF00F00FAE700002E2E2F4DD1
:102D40006964646C6577617265732F546869726435
:102D50005F50617274792F4C7749502F7372632FD3
:102D6000636F72652F697076342F65746861727055
:102D70002E6300006E657469662D3E687761646439
:102D8000725F6C656E203D3D204554485F48574159
:102D90004444525F4C454E00417373657274696FD1
:102DA0006E2022257322206661696C65642061743F
:102DB000206C696E6520256420696E2025730A00E9
:102DC0008C85002070B5044640890E460E2844D9F3
:102DD000606801788589CA0714D0012905D00622C8
:102DE0002849FDF774FA48B10CE0417851B9807870
:102DF0005E2807D1607B40F0100002E0607B40F06D
:102E0000080060736FF00D01082D0BD0B5F5C16F90
:102E100018D0A5F56275B5F5C04527D0B5F5807F0A
:102E20001BD128E096F82B00000716D560890E28E4
:102E300013DB204605F0EEFC78B93146204601F060
:102E4000A9FB1CE096F82B00000706D560890E2828
:102E500003DB204605F0DEFC18B1204605F012FC2D
:102E60000DE031462046FFF751FB08E02146304691
:102E700006F000FC03E02146304606F09FFB0020F0
:102E800070BD000048EB00082DE9F04104461F46E4
:102E900090460E46069804F0A7FA05460E213046E5
:102EA00005F0B8FC18B16FF00100BDE8F081706862
:102EB000858139680160B9888180D8F80020C0F820
:102EC0000620B8F80410418194F82400062806D0A2
:102ED00006A340F22B1213A11FA0FEF751FD3146AD
:102EE0002046A269BDE8F041104700002E2E2F4D6C
:102EF0006964646C6577617265732F546869726484
:102F00005F50617274792F4C7749502F7372632F21
:102F10006E657469662F65746865726E65742E637C
:102F2000000000006E657469662D3E687761646418
:102F3000725F6C656E206D7573742062652036203B
:102F4000666F722065746865726E65745F6F757404
:102F50007075742100000000417373657274696FAD
:102F60006E2022257322206661696C65642061747D
:102F7000206C696E6520256420696E2025730A0027
:102F800010B5040006D10BA340F217220EA112A027
:102F9000FEF7F6FC732084F82C00742084F82D00D2
:102FA000174860611748A061204604F0E9F8002046
:102FB00010BD00002E2E2F5372632F65746865724A
:102FC0006E657469662E63006E6574696620213DC6
:102FD000204E554C4C000000417373657274696F4C
:102FE0006E2022257322206661696C6564206174FD
:102FF000206C696E6520256420696E2025730A00A7
:10300000152600083D73000870B5054604F038F930
:10301000040009D02A6929469047002804D0204698
:10302000BDE8704005F02EBB70BD38B504468DF884
:10303000000069460320ABBE204638BDD0E9011030
:10304000081A70477047000070B50E46050002D0A0
:103050000EB10D4C08E06FF00F0070BD3046616896
:10306000FDF727F920B12468002CF7D1A01F70BD0F
:10307000A0682860E0686860E068A8600020E860F8
:10308000207C2874002070BDEC57010870B50D003D
:103090000446856008D02846FDF704F9FF2805D2CC
:1030A0002846FDF7FFF802E0002000E0FF20207630
:1030B000207C0A280CD2DFE800F00B050B070B0977
:1030C0000C0C0C0C002002E0022000E00420207414
:1030D00070BD2046BDE8704004210BF075B800219A
:1030E0000268017441748174527CC2750176704724
:1030F000F8B5134604460E460A46042B31DB12F897
:10310000011B12F8010B12F8025B2F0212F8015C8E
:103110003D43042D25DB9D4223DC237C2D1F002B0A
:103120001FD0012B1DD0082939D2DFE801F0380467
:103130000C14141B2328014601B02B462046BDE881
:10314000F04000F0F1B9014601B02B462046BDE841
:10315000F04000F0E9B8134602462046009500F022
:1031600051F9F8BD014601B02B462046BDE8F040BC
:1031700000F06CBA2046BDE8F84000F039BA1046BD
:10318000042DEEDB027843786068816B0FA006F0B7
:10319000D1F9207C0728E4D106202074F8BD6368AB
:1031A0005F6B37B11346024620460095B8470028AA
:1031B000F4D12D1D0095A07C3346401CC2B2A274F0
:1031C0000721204600F064FBF8BD000025733A207B
:1031D0005263766420436F64652D52656A6563743B
:1031E00020666F7220636F64652025642C206964FB
:1031F0002025640070B50446007C00210125801E56
:10320000082806D2DFE800F004060F11111111188A
:10321000217470BD25746068416A0029F9D0204688
:10322000BDE870400847217400E025742146BDE8E0
:103230007040054806F0E0BE6068016A09B12046AA
:103240008847257470BD00001939000810B5044680
:10325000007C30B101280CD1607C400703D50320ED
:1032600006E0022004E00021204600F049FA062092
:10327000207410BD10B50446007C0A281BD2DFE87C
:1032800000F0051A0F1D1B1A1A1A1A1D01202074AE
:103290006068416A00290ED02046BDE8104008470A
:1032A000607C400701D5032004E00021204600F0A7
:1032B00027FA0620207410BD05202074607C80074A
:1032C000F9D52046FFF796FF2046BDE81040FFF7EE
:1032D000BDBF000010B50446007C801E08281FD228
:1032E000DFE800F0080E040A0A0A0A1821460D4811
:1032F00006F082FE022004E021460A4806F07CFE29
:10330000032020746068816A002909D02046BDE846
:10331000104008472046BDE8104005210AF054BF80
:1033200010BD0000193900082DE9F843044605686E
:10333000C07C0F461E469046B84229D1207B00280B
:1033400026D16068C3682BB1324641462046984773
:1033500008B107E036B132464146BDE8F84320A047
:1033600005F0D0BD012020730021A175207C062628
:10337000801E08280CD2DFE800F004040B0B0D12AD
:1033800017280091FAB200230621204600F080FAA7
:10339000BDE8F88307202074E87B2075F8E7214614
:1033A000174806F029FE15E02146154806F024FED0
:1033B00009202074E87B20756068C1690029E7D086
:1033C00001B02046BDE8F04308476068016A09B1D2
:1033D000204688470021204600F092F92674D7E75E
:1033E00052656365697665642062616420636F6E0F
:1033F0006669677572652D61636B3A202550000020
:10340000193900082DE9F8430446C07C1646DDF85A
:1034100020901F46B04244D1207B002841D18046F5
:1034200003290BD084F816806068436953B34A4679
:10343000394620469847050024D012E0A07D401C64
:10344000C0B2A075E17D884201D3012300E00023D2
:103450006068056995B14A4639462046A847050087
:103460000CD001202073207C0627801E082818D24B
:10347000DFE800F00F0F17171928192D4A463946B3
:1034800018A002E04A4639461EA0BDE8F84305F000
:1034900039BDF2B2002306212046CDF8008000F0AD
:1034A000F7F9BDE8F88321461E4806F0A5FD002D7A
:1034B00002DA03202074F4E72046BDE8F843002137
:1034C00000F01EB92146174806F096FD04E060683A
:1034D000016A09B1204688470021204600F010F912
:1034E0002774DEE75265636569766564206261640E
:1034F00020636F6E6669677572652D6E616B3A2029
:1035000025500000526563656976656420626164D8
:1035100020636F6E6669677572652D72656A3A2001
:1035200025500000193900082DE9FF430446007CAE
:1035300000270626801E81B091468846082819D2A9
:10354000DFE800F004130B0B1818180E0023424696
:1035500006212046009700F09BF905B0BDE8F083F6
:103560006068016A09B1204688470021204600F0C2
:10357000C7F826746068856965B1607DE17D884221
:1035800001D3012300E0002304AA49462046A847AE
:10359000054604E0049808B1042500E002250498DB
:1035A0000090E9B24B464246204600F071F9207C7B
:1035B000022D08D0072800D02674032DCDD1607DC0
:1035C000401C6075C9E7072803D008202074677580
:1035D000C3E72146054806F00FFD09202074606806
:1035E000C1690029F3D020468847F0E7193900085F
:1035F00070B50446007C042811D0052815D0062596
:1036000007280AD0092809D16068016A09B1204653
:1036100088470021204600F073F8257470BD2146CC
:10362000094806F0E9FC022004E02146064806F0BD
:10363000E3FC032020746068816A0029EED02046F4
:10364000BDE870400847000019390008F8B5044685
:103650000568007C00269C460F46072804D00828F1
:1036600002D0092825D102E00620207421E06068FC
:10367000BCF1000F816B05DD1346624611A005F019
:103680004BFC02E017A005F047FC267505202074CE
:103690006068016A09B1204688472146174806F04C
:1036A000ABFCA87B4FF47A7148432246134906F0DD
:1036B000EDFBFAB2002306212046009600F0E8F860
:1036C000F8BD00002573207465726D696E617465C4
:1036D000642062792070656572202825302E2A7654
:1036E000290000002573207465726D696E61746530
:1036F0006420627920706565720000001939000845
:10370000F8B504460668007C00250F4606280AD056
:10371000072808D0082806D06068016809B120464B
:1037200088476575A5752FB9F07B2075A07C401C76
:10373000A074E07425736068416859B1806848B12D
:10374000204688470090B6F8F010091F814202DA3F
:10375000009100E0009500980322083081B2042017
:1037600004F034FB050006D028896989884203D01B
:10377000284604F087FFF8BD6968FF2001F8010BB7
:10378000032001F8010BE089000A01F8020BA07B7D
:1037900001F8010C012001F8040BE07C01F8030C96
:1037A0000098001D000A01F8020C0098001D01F8A5
:1037B000010C0098002810D060686A468368204693
:1037C0009847688900990838884206D00DA340F2CE
:1037D000F22219A123A0FEF7D3F82946304605F0BE
:1037E000B3FE207D2146401E2075284806F004FCCB
:1037F000B07B4FF47A7148432246244906F046FBD9
:10380000F8BD00002E2E2F4D6964646C65776172DF
:1038100065732F54686972645F50617274792F4CBC
:103820007749502F7372632F6E657469662F7070BD
:10383000702F66736D2E630063696C656E203D3D6D
:1038400020702D3E6C656E202D2048454144455228
:103850004C454E202D205050505F4844524C454E10
:1038600000000000417373657274696F6E20222539
:103870007322206661696C6564206174206C696ED6
:103880006520256420696E2025730A001939000817
:103890002DE9FF5FD0F8009080468A46B9F8F00025
:1038A0000E9E011F9346B14200DA061F371D381DD8
:1038B00081B20322042004F089FA04002AD020896E
:1038C0006189884205D004B02046BDE8F05F04F06D
:1038D000D9BE65682EB1324605F108000399FCF7A0
:1038E000ABFCFF20287003206870B8F80E0021465A
:1038F000000AA87098F80E00E87085F804A085F812
:1039000005B0380AA871EF7104B04846BDE8F05F11
:1039100005F01ABEBDE8FF9F38B504460568007C77
:10392000011F052921D2DFE801F003032828280020
:10393000217DD9B1207E0090A07CA368401CC2B23A
:10394000A274E27405212046FFF7A2FF21461D481C
:1039500006F052FBA87B4FF47A714843224619497E
:1039600006F094FA207D401E207538BD042802D050
:10397000032020741CE00220FBE7207D0028606803
:103980000DD0016B09B12046884701212046FFF781
:10399000B7FE207C0728E8D10620207438BD816B53
:1039A00009A005F0C7FD03202074607CC007F5D195
:1039B0006068816A0029F1D001B02046BDE830403E
:1039C000084700001939000825733A2074696D65AD
:1039D0006F75742073656E64696E6720436F6E66E1
:1039E00069672D5265717565737473004FF0FF3010
:1039F0007047000070B50D462ABB25B3012128464B
:103A000009F050FCAC2003F0D9FD040002D0AC2139
:103A1000FCF72BFC210019D02846CD6106F05AFC9A
:103A20000C49284609F080F90B49284606F0BEFFEC
:103A300004220A49284608F0A7F90949284609F04E
:103A4000E1FB002070BD6FF0050070BD4FF0FF304E
:103A500070BD0000D93B0008993B0008A33B00085B
:103A60001F3E000870B5054648690C4620B1FFF7B7
:103A7000E5FA002805DC2146284600F08BF80020F6
:103A800070BD04A340F2834210A11EA0FDF778FF91
:103A9000012070BD2E2E2F4D6964646C65776172B4
:103AA00065732F54686972645F50617274792F4C2A
:103AB0007749502F7372632F617070732F6874741D
:103AC00070642F68747470642E630000535349202F
:103AD000616E642044594E414D49435F484541441D
:103AE000455253207475726E6564206F666620625D
:103AF000757420656F66206E6F74207265616368EF
:103B000065640000417373657274696F6E202225CD
:103B10007322206661696C6564206174206C696E33
:103B20006520256420696E2025730A00002200F0BC
:103B300001B8000070B50E4614460546002106F097
:103B4000C9FB0021284609F0EFF80021284606F0BD
:103B50002DFF00221146284608F016F900212846BC
:103B600009F050FB16B1304600F065F928461CB14B
:103B700006F020FB002070BD06F040FC040004D0DD
:103B800004220349284608F0FFF8204670BD0000D3
:103B9000A33B0008FFF7CABF002801D000F04BB9D3
:103BA000704710B50C46010012D091F82800401C57
:103BB000C0B281F8280004280AD0486930B12046F4
:103BC00000F0E2F810B1204607F040FD002010BDE3
:103BD0002046FFF7ABFFF9E72DE9F04F85B015461A
:103BE0008B46044663B135B12989584609F000F97E
:103BF000284604F047FD21465846FFF797FF0CE0A2
:103C0000002DF8D0002CEFD02989584609F0F0F8A3
:103C1000606930B1284604F035FD05B00020BDE8EC
:103C2000F08F206A002710B104F02CFD27621421C8
:103C30006846D5F80480FCF718FB2EA14046FCF737
:103C40001FFBDFF8BCA02F4E4FF40059E8B198F8E5
:103C50000A00312804D0322809D0332839D111E0A4
:103C6000002249465046FDF7C3F8377033E0012281
:103C700049465046FDF7BCF8377028E06846FFF724
:103C8000E3F92AE00120307023E01FA14046FCF751
:103C9000F7FA08B11DA1F1E721A14046FCF7F0FABF
:103CA00008B120A1EAE724A14046FCF7E9FA08B1EF
:103CB00022A1E3E727A14046FCF7E2FA68B1307899
:103CC000012806D049465046FDF786F818B122A1D2
:103CD000D4E725A1D2E729A1D0E70098A0610198F7
:103CE0006062284604F0CEFC2146584600F04CF8AD
:103CF00093E70000474554202F3F6C65643D00006A
:103D00000010014018000020474554202F696D61C4
:103D100067652F4C65644F6E2E6A70670000000067
:103D2000474554202F696D6167652F4C65644F6668
:103D3000662E6A7067000000474554202F696D6148
:103D400067652F4C6564466C69636B65722E6769A5
:103D500066000000474554002F4C65644F66662E90
:103D600068746D6C000000002F4C6564466C6963DC
:103D70006B65722E68746D6C000000002F4C6564DA
:103D80004F6E2E68746D6C0070B505460C0002D045
:103D9000606A10B106E0002070BD2846FFF762FEA1
:103DA0000028F9D02146284600F00FF80646606A40
:103DB00048B96069FFF742F9002804DC214628462B
:103DC000FFF7E8FEE7E7304670BDF8B50C4607465A
:103DD000496A00264FF6FF70814200D20846ADF8CE
:103DE0000000A5693DB1606928B1D0E90020104408
:103DF000401AA84201D0012300E000236A46294668
:103E0000384600F02DF840B9BDF80000A169012640
:103E10000144A161616A081A60623046F8BD10B5BC
:103E20000A46010005D0002081F828001046FFF75F
:103E3000ABFF002010BD70B504000FD060690025F5
:103E400010B1FFF7FFF86561206A10B104F01AFCA9
:103E500025622046BDE8704003F008BB70BD00003D
:103E60002DE9F0411F4616008846054607D1194B3B
:103E70004FF4047218A103F17000FDF781FD34883E
:103E8000B4B1B5F86000A04200D20446688E4FF687
:103E9000FF7101EA4000844200D904463B462246B5
:103EA0004146284609F034FD411C04D080B10CE0A5
:103EB0000020BDE8F081B5F8601031B1B5F86210AE
:103EC000092902D26408012CE8D800213180F0E7EA
:103ED0003480EEE7943A00086C656E6774682021C0
:103EE0003D204E554C4C000010B52E2007F039FBFC
:103EF000040006D115A340F63B2222A128A0FDF71D
:103F00003FFD0121204609F0CDF950222E492046DF
:103F100006F0E4F9002806D00CA34FF424622BA18C
:103F20001FA0FDF72DFDFF21204607F04DFA0400EC
:103F300006D106A340F642222BA119A0FDF720FDD1
:103F40002046BDE81040304906F037B92E2E2F4DDF
:103F50006964646C6577617265732F546869726413
:103F60005F50617274792F4C7749502F7372632FB1
:103F7000617070732F68747470642F6874747064E7
:103F80002E63000068747470645F696E69743A200F
:103F90007463705F6E6577206661696C65640000AC
:103FA000417373657274696F6E20222573222066D7
:103FB00061696C6564206174206C696E652025649C
:103FC00020696E2025730A00045901086874747012
:103FD000645F696E69743A207463705F62696E64CD
:103FE000206661696C65640068747470645F696EF2
:103FF00069743A207463705F6C697374656E2066CF
:1040000061696C6564000000F53900080A46032107
:1040100000F0F2B82DE9FE4F434A05468A46D2F831
:10402000088098F800000007840E142C76D3688965
:10403000042873D36868017800296FD008296DD1EE
:10404000506902F11407C0F303110E2966D091469E
:10405000116800F05BF9002860D1288908285DD339
:1040600004F10E010E46284604F0D4FB00282DD0A2
:1040700028890022204481B2022003F0A7FE060016
:104080004CD0718904F10800814216D32246414682
:104090007068FCF7D1F86142304604F0BBFB0028A1
:1040A00006D022A3AF222FA13CA0FDF769FC04E0BB
:1040B0002946304604F062F918B1304604F0E2FABD
:1040C0002CE0284604F0DEFA35460CE07142284622
:1040D00004F0A0FB002806D014A3C02239A12FA011
:1040E000FDF74EFC1AE0214628466E6804F092FB6C
:1040F000A0B968683968FF22C160D9F81010016161
:104100000021317071800272418101228DE8060424
:104110000A46FF233946284600F00CFB2846BDE836
:10412000FE4F04F0AFBA0000F44F00202E2E2F4DAA
:104130006964646C6577617265732F546869726431
:104140005F50617274792F4C7749502F7372632FCF
:10415000636F72652F697076342F69636D702E639B
:104160000000000069636D705F696E7075743A20BD
:104170006D6F76696E6720722D3E7061796C6F612C
:104180006420746F2069636D702068656164657276
:10419000206661696C65640A000000004173736504
:1041A0007274696F6E2022257322206661696C65C6
:1041B00064206174206C696E6520256420696E201E
:1041C00025730A0069636D705F696E7075743A20BB
:1041D000726573746F72696E67206F726967696E5A
:1041E000616C20702D3E7061796C6F616420666136
:1041F000696C65640A0000002DE9FF479146884616
:10420000064600222421012003F0E0FD050031D004
:104210006889242806D218A340F2611224A12FA095
:10422000FDF7AEFB6C6877681C2284F8008084F888
:1042300001904FF00008A4F80480A4F80680686894
:1042400071680830FBF7F8FFF868039003A800F0E6
:104250001BFC60B1A4F802800122CDF80080CDE9FA
:104260000120FF2303AA0021284600F063FA284614
:1042700004F008FABDE8FF872E2E2F4D6964646CA8
:104280006577617265732F54686972645F506172FB
:1042900074792F4C7749502F7372632F636F726557
:1042A0002F697076342F69636D702E6300000000F3
:1042B000636865636B2074686174206669727374E7
:1042C00020706275662063616E20686F6C6420697F
:1042D000636D70206D65737361676500417373650D
:1042E0007274696F6E2022257322206661696C6585
:1042F00064206174206C696E6520256420696E20DD
:1043000025730A000A460B21FFF776BF421C12D024
:1043100088B191F82B2092070BD54A68824208D0C9
:10432000896800EA01030A40934202D10143491C13
:1043300001D0002070470120704700002DE9F74FA1
:1043400088B00446099800271426408CBD1F1438F5
:10435000C11700EB5170C0F3CF0004906068069065
:10436000017801F00F01052904D057A340F2E122A2
:1043700064A10BE0C08803F037F8C0F30C0103918F
:1043800080040AD550A340F2E62268A16EA0FDF792
:10439000F7FA28460BB0BDE8F08F208914381FFAD1
:1043A00080F98CE00499B9EBC10F00D3C80080B24A
:1043B000059000221421022003F008FD029000283D
:1043C0004FD06089142806D23FA34FF4427268A1EF
:1043D0005DA0FDF7D5FA0298142206994068FBF714
:1043E0002BFF0298059DD0F804B02CE06089801B5B
:1043F00087B2BD4200D22F461FB3052003F054FB05
:104400005FEA00082AD0606843463044CDE90007DF
:1044100002223946042003F097FE5FEA000A23D007
:10442000204604F06BFB5A49C8E90414514602982F
:1044300003F0FAFEE81B05042D0C06D000262468C4
:10444000D4E724680026002DD0D1F01986B209984F
:10445000408C143848450BDB01210AE0029804F037
:1044600011F94FF0FF3095E7404600F03BFBF5E7D0
:1044700000210398C0F30C0009B940F4005002F089
:10448000B3FFABF806000598143080B202F0ACFF21
:10449000ABF802000021ABF80A1009980A9A0299B9
:1044A00043699847029804F0EDF80599A9EB0100DB
:1044B0001FFA80F9DDE90301084480B20390B9F1E5
:1044C00000007FF46FAF65E72E2E2F4D6964646C9A
:1044D0006577617265732F54686972645F506172A9
:1044E00074792F4C7749502F7372632F636F726505
:1044F0002F697076342F6970345F667261672E633E
:10450000000000006970345F6672616728292064CA
:104510006F6573206E6F7420737570706F72742086
:104520004950206F7074696F6E73000069705F6628
:1045300072616728293A204D4620616C726561647A
:104540007920736574000000417373657274696F3C
:104550006E2022257322206661696C656420617477
:10456000206C696E6520256420696E2025730A0021
:1045700074686973206E656564732061207062756C
:104580006620696E206F6E65207069656365210025
:10459000F95E00082DE9F05F456806460F46287869
:1045A0000421B1EB101F03D0304604F06BF88CE00F
:1045B00000F00F004FF6FF7101EA8009688802F0F1
:1045C00013FF04463089A04203D92146304604F047
:1045D000C9F971894945E7D33089A042E4D3B9F1DB
:1045E000140FE1D3DFF844A12869CAF81400EA687F
:1045F000C0F30310CAF810200E2813D0DFF830B132
:104600004FF001083C4694F82B00C00712D06168B7
:1046100081B1DAF81400884220D02146FFF776FEF7
:10462000E0B907E097F82B00C0070FD0786868B1B1
:104630003C4613E0B8F1000F0AD09AF814007F2826
:1046400004D04FF00008DBF8004002E0002405E051
:104650002468BC4200D12468002CD4D13946DAF851
:104660001000FFF753FE00289ED19AF81000D046A4
:10467000C0F303100E2897D0002C95D0E88830F0B6
:10468000C00005D0304600F01BF906001DD075684B
:10469000C8F80850C8E90047297830460907890E4C
:1046A000A8F80C10C9F1000104F0B4F8687A0128E8
:1046B00018D0062811D011280AD047462146D8F82C
:1046C0001400FFF723FE90B11FE00020BDE8F09F2B
:1046D0003946304609F016FE1AE03946304606F0F3
:1046E00007FA15E039463046FFF794FC10E0387DB4
:1046F000C0F303100E2808D04946304604F08DF868
:10470000022130467560FFF781FC304603F0BAFFA6
:104710000021C8F80010C8F80410C8F80810A8F85C
:104720000C10C8F81010C8F81410CEE7F44F002091
:1047300090000020FEB5DDE90954089E1AB109B1C8
:104740000F6807B9211D0096CDE9015400F002F869
:10475000FEBD00002DE9F84F0546DDE90BA8C08934
:10476000DDF828B01F4616468946012806D02CA33E
:1047700040F2333237A13AA0FDF702F9002E38D0CB
:104780001421284604F046F818B16FF00100BDE886
:10479000F88F68896C68142806D221A34FF45872E8
:1047A00039A12FA0FDF7ECF8277284F809A0306832
:1047B00020614520207084F801B0288902F014FEA1
:1047C0003D4F60804FF0000AA4F806A0388802F040
:1047D0000BFEA0803888401C3880B9F1000F05D04E
:1047E000D9F80000E060A4F80AA006E033480068A9
:1047F000F8E768686E4600690090B8F8220040B19A
:104800002989814205D9324641462846FFF796FD5F
:10481000BDE7D8F814304046324629469847B6E7F7
:104820002E2E2F4D6964646C6577617265732F5409
:10483000686972645F50617274792F4C7749502FA8
:104840007372632F636F72652F697076342F69708E
:10485000342E6300702D3E726566203D3D20310090
:10486000417373657274696F6E202225732220660E
:1048700061696C6564206174206C696E65202564D3
:1048800020696E2025730A00636865636B20746875
:10489000617420666972737420706275662063614A
:1048A0006E20686F6C642073747275637420697015
:1048B0005F68647200000000F600002004590108DF
:1048C0002DE9F05F44688346207800F00F0005284A
:1048D0007ED1E08802F088FDC004070C608802F0F9
:1048E00083FD217801F00F01494200EB81001FFA9E
:1048F00080F8584603F039FD624D0646288830445A
:104900000A2809D93146204600F088FB00285FD0EC
:10491000288830440A285BD8A9466D684FF0000A01
:104920000CE06869E168884207D1A869216988427A
:1049300003D1A889A188884203D02D68002DF0D129
:1049400006E02DB1E08802F04FFDC00425D02FE035
:10495000042003F0A9F805000AD13146204600F0F2
:104960005DFBB04217DB042003F09EF8050012D077
:104970002021FBF77AFC0320E877D9F8041029609E
:104980001422214605F10800C9F80450FBF754FC35
:10499000002D72D00CE05546FAE7E88902F024FDBC
:1049A000C00405D01422214605F10800FBF744FCA1
:1049B000A07940F34014641C08D007EB080080B2D3
:1049C000B8425AD34FF6EB71884256D8224600E0DF
:1049D00053E05946284600F0CDF8411C4DD0B9F8B7
:1049E00000203244A9F8002034B107EB0801A98364
:1049F000A97F41F00101A97701283CD1A88B14229D
:104A00001430A883686805F10801466830463468A8
:104A1000FBF712FCA88B02F0E7FC7080A6F806A05A
:104A2000A6F80AA06FF013086E6809E04146204618
:104A3000676803F0EFFE2146304603F0F5FB3C6863
:104A4000002CF3D1D9F804104C468D4205D1002139
:104A500005E00868A84202D001460029F9D128469D
:104A600000F0B6F9304603F080FC2188081A208057
:104A70003046BDE8F09F0020FBE7584603F002FEF9
:104A8000F9E70000F800002070B50546134813E070
:104A900090F82B10CA070FD04A070DD543685BB1B9
:104AA00084682A68234002EA04069E4214D08907DB
:104AB00002D4C1688A420FD000680028E8D10848B3
:104AC000006840B190F82B10CA0704D0490702D5FE
:104AD0004168002900D1002070BD00009000002036
:104AE0009400002010B5040006D106A340F2AE22C7
:104AF00013A116A0FCF744FF2146BDE81040052095
:104B000002F01CBF2E2E2F4D6964646C65776172B4
:104B100065732F54686972645F50617274792F4CA9
:104B20007749502F7372632F636F72652F697076A8
:104B3000342F6970345F667261672E630000000075
:104B40007020213D204E554C4C0000004173736590
:104B50007274696F6E2022257322206661696C650C
:104B600064206174206C696E6520256420696E2064
:104B700025730A002DE9F0474C68064692468846A0
:104B800000250127608802F02FFC217801F00F0139
:104B9000494200EB8109E08802F026FCC004D8F805
:104BA0000440020C0020206002EB0900A2801FFAE2
:104BB00080FCA4F806C0716824E0486883889A42A3
:104BC00015D2216065B1EB889A427AD380888445FA
:104BD00077D8C5F80080A088834206D0002704E07B
:104BE000808884456DD8C6F8048069B12DE068D00E
:104BF000C1888A4265D31DB1E988994200D0002757
:104C0000016805460029D8D1002D12D0E888A18876
:104C1000884206D931A340F2AB123FA146A0FCF76F
:104C2000AFFEC5F80080E888A18888420DD0002733
:104C30000BE07068002806D028A340F2B31248A108
:104C40003DA0FCF79DFEC6F80480BAF1000F02D12A
:104C5000B07FC00730D0002F31D07268002A2ED02C
:104C60005068808800282AD12068214628B14468ED
:104C7000C888A1888842F7D021E0002F1FD032B920
:104C800016A34FF4EA7244A12BA0FCF779FE7068DA
:104C90004068A04206D111A340F2D5123EA126A041
:104CA000FCF76EFE206830B10CA340F2D7123EA193
:104CB00021A0FCF765FE0120BDE8F08701E000209F
:104CC000FAE7404603F051FB40490A88101A088071
:104CD000404603F0D7FC4FF0FF30EDE72E2E2F4D6E
:104CE0006964646C6577617265732F546869726476
:104CF0005F50617274792F4C7749502F7372632F14
:104D0000636F72652F697076342F6970345F6672D5
:104D100061672E6300000000636865636B20667244
:104D200061676D656E747320646F6E2774206F7693
:104D300065726C6170000000417373657274696F15
:104D40006E2022257322206661696C65642061747F
:104D5000206C696E6520256420696E2025730A0029
:104D60006E6F2070726576696F7573206672616709
:104D70006D656E742C2074686973206D7573742072
:104D8000626520746865206669727374206672615A
:104D9000676D656E7421000073616E6974792063BC
:104DA0006865636B0000000076616C69646174651E
:104DB0005F646174616772616D3A6E6578745F708B
:104DC000627566213D4E554C4C000000F8000020F5
:104DD00070B504460C480D464168A14202D12168D5
:104DE00041600AE0002D06D108A340F2451216A149
:104DF0001CA0FCF7C5FD206828602146BDE8704076
:104E0000042002F09BBD0000F80000202E2E2F4D44
:104E10006964646C6577617265732F546869726444
:104E20005F50617274792F4C7749502F7372632FE2
:104E3000636F72652F697076342F6970345F6672A4
:104E400061672E630000000073616E6974792063EE
:104E50006865636B206C696E6B6564206C69737444
:104E600000000000417373657274696F6E20222523
:104E70007322206661696C6564206174206C696EC0
:104E80006520256420696E2025730A002DE9F0470E
:104E9000064600250F46B14205D12FA3AB223DA106
:104EA0003FA0FCF76DFD002F08D03868B04205D058
:104EB00029A3AD2244A13AA0FCF762FD74684FF427
:104EC00080386068818800291AD1006870601422D7
:104ED00006F108016068FBF7AFF901212046FFF7F2
:104EE00011FA204603F041FA0546404505D31AA3BE
:104EF000BC223AA12AA0FCF743FD204603F0C2FBE6
:104F0000C146746812E06068A0460468404603F039
:104F10002CFA05444D4505D30FA3CC222FA120A088
:104F2000FCF72EFDADB2404603F0ACFB002CEAD1FD
:104F300039463046FFF74CFF304C2088A84205D256
:104F400005A3D2222EA116A0FCF71AFD2088401B33
:104F500020802846BDE8F0872E2E2F4D6964646CB2
:104F60006577617265732F54686972645F5061720E
:104F700074792F4C7749502F7372632F636F72656A
:104F80002F697076342F6970345F667261672E63A3
:104F9000000000007072657620213D20697072006B
:104FA000417373657274696F6E20222573222066C7
:104FB00061696C6564206174206C696E652025648C
:104FC00020696E2025730A00707265762D3E6E652D
:104FD0007874203D3D206970720000007062756633
:104FE000735F6672656564202B20636C656E203C80
:104FF0003D2030786666666600000000F8000020FC
:1050000069705F72656173735F70627566636F75F7
:105010006E74203E3D20636C656E00002DE9F04704
:10502000DFF878900F460546002600221146134609
:105030001446D9F8040022E0D0F814C0D5F80C804A
:10504000C4450BD1D0F818C0D5F81080C44505D19F
:10505000B0F80CC0B5F80480C44509D0641C2AB16E
:1050600090F81FC092F81F80C44501D802460B4635
:10507000D0F800C0BCF1000F00D001466046002807
:10508000DAD122B119461046FFF700FF0644BE42AE
:1050900001DA012CC9DC3046BDE8F087F8000020B9
:1050A00070B50948002544680BE0E07F20B1401E40
:1050B000E0772546246804E0204624682946FFF767
:1050C000E5FE002CF1D170BDF800002070B5056838
:1050D0000C461646D5F8280105F59475C10735D15B
:1050E000800750D5B2F10A067ED414F8011B14F8DB
:1050F000010B0A2878D1012976D114F8010B01029D
:1051000014F8010B0843010214F8020B08430102D2
:1051100014F8010C084302F065F96968814271D105
:1051200014F8010B010214F8010B0843010214F8F2
:10513000020B0843010214F8010C084302F052F973
:10514000A96881425ED12878C0071CD0B61F59D407
:1051500014F8010B14F8011B062953D1032851D16F
:1051600014F8010B010214F8010B0843010214F8B2
:10517000020B0843010214F8010C084302F032F953
:10518000696881423ED1287880061CD5B61F39D483
:1051900014F8010B14F8011B062933D1812831D1F1
:1051A00014F8010B14F8011B41EA002114F8020B5A
:1051B00040EA0120010214F8010C084302F012F940
:1051C000E96881421ED1287840061AD5B61F19D445
:1051D00014F8010B14F8011B062913D1832811D1EF
:1051E00020780102607800E00CE008430102A0781A
:1051F00008430102E078084302F0F4F8296981428B
:1052000000D10EB1002070BD012070BD2DE9F0412C
:10521000046816461568D4F828014FF00608C2073E
:1052200004F5947426D1820740D50A2D1CDB012099
:1052300008700A2048704F1C606802F0D3F8010E15
:105240007970010CB970010AF9703871A06802F028
:10525000C9F8010E7971010CB971010AF97107F8E9
:10526000080F791C0A3D02E020F00200206020783F
:10527000C0071BD0062D15DB032001F8010B01F838
:10528000018B0F46606802F0ADF8010E3970791C91
:10529000020C01F8012B020A01F8012BAD1F01F8E5
:1052A000010B03E0206820F00100206020688206E6
:1052B0001AD5062D15DB812001F8010B01F8018BB1
:1052C0000F46E06802F08EF8010E3970791C020C6E
:1052D00001F8012B020A01F8012BAD1F01F8010BA7
:1052E00002E020F0200020602068420616D5062D3E
:1052F00011DB832001F8010B01F8018B0F462069B7
:1053000002F070F8010E3970020C7A70020ABA705D
:10531000F870AD1F02E020F0400020603068401BB4
:105320003060BDE8F081016801F5947001F5A87264
:105330000168CB070BD08B070ED51268D3070BD1B2
:10534000920709D521F001010160C90704D1017854
:10535000890701D50A2105E002780021D20701D092
:10536000062200E0002200680A44810601D50621D9
:1053700000E000211144400601D5062000E0002095
:1053800008447047F830FDF781BE70B5046804F535
:10539000A876E06A04F59475410306D520F48020D0
:1053A000E0622121204602F0DAFC204604F013FDE1
:1053B00020466968B268FCF76FFCD5E90312204605
:1053C000BDE87040FCF74CBC0068C16A8A0305D593
:1053D00021F40031C162212102F0CEBC70470000EF
:1053E00070B500F1F80400F58A7600F59E7520602E
:1053F00048F22100E0810B4860602046FDF76FFE17
:105400006420E075306840F00201480860F3000154
:105410003160286840F00200410861F30000286014
:1054200070BD00002CEA0008F830FDF761BEF830CE
:10543000FDF7E0BEF830FDF709BF2DE9F043056840
:105440008BB00C4681461F461646142105A805F56B
:105450009475FAF70AFF142229466846FAF7ECFE1B
:105460002868C1073ED1800761D560780A285ED1DF
:105470000A2E5CDB2078012859D1A0780A3E01026F
:10548000E07808430102207908430102607908436B
:1054900001F0A8FF8046A0790102E07908430102EB
:1054A000207A08430102607A0A34084301F09AFF27
:1054B000059941F00201059127B1009820F0020002
:1054C00000900CE02978090704D5B8F1000F01D04D
:1054D000CDF804802978C90601D500B1029028785A
:1054E000C00724D06078062821D1062E1FDB207843
:1054F00003281CD1A078B61F0102E07808430102FE
:105500002079084301026079A41D084301F06AFF75
:10551000059941F00101059127B1009820F00300A1
:10552000009004E02978090701D500B1019028789E
:10553000800620D5607806281DD1062E1BDB20783A
:10554000812818D1A078B61F0102E0780843010233
:10555000207908436179A41D41EA002001F042FF4F
:10556000059941F02001059127B1009820F0200015
:10557000009000E00390287840061ED56078062849
:105580001BD1062E19DB2078832816D1A078B61FF0
:105590000102E0780843217941EA0021080261799B
:1055A000A41D084301F01EFF059941F0400105913B
:1055B00027B1009820F04000009075E0049073E05F
:1055C00014F8011B14F8010B02287CD3361A7AD484
:1055D0002718BF1E012906D003293CD0812974D089
:1055E000832960D18EE02968CA0701D189076AD46E
:1055F0000599890767D40A2865D1009820F0010031
:10560000009014F8010B010214F8010B0843010289
:1056100014F8020B084314F8011C41EA002001F0C1
:10562000E1FE18B12978090700D501902078010220
:10563000607808430102A07808430102E07808433B
:1056400001F0D0FE18B12978C90600D5029005985E
:1056500040F0020026E02978C9075BD10599C90707
:1056600058D1062856D1009820F0020000902078EA
:105670000102607808430102A07808430102E07843
:10568000084301F0AFFE20B12978090701D5019048
:1056900001E0019818B1009840F0010000900598D1
:1056A00040F0010005903C46022E89DA99F810007E
:1056B000092804D0142269462846FAF7BDFD0120C6
:1056C0000BB0BDE8F08325E0FFE72978890621D4F7
:1056D000059989061ED406281CD12078010260781D
:1056E00008430102A07808430102E078084301F072
:1056F00079FE0390009840F020000090059840F05B
:105700002000CFE72978490604D40599490601D439
:10571000062801D00020D3E72078010260780843F2
:105720000102A07808430102E078084301F05AFE24
:105730000490009840F040000090059840F0400030
:10574000B0E710B50446F830FDF794FDE06A40F488
:105750000030E06210BDF830FDF74CBDF0B50668D2
:1057600085B015460C46074606F594761422314658
:105770006846FAF761FD3068C10734D180074FD51C
:1057800060780A284CD10A2D4ADB2078012847D1BD
:10579000A0780A3D0102E07808430102207908431D
:1057A00001026079A41D084301F01CFE716881426A
:1057B00076D114F8010B010214F8010B0843010221
:1057C00014F8020B0843010214F8010C084301F01D
:1057D00009FEB168814263D1009820F00200009078
:1057E0003078C0071CD06078062819D1062D17DB49
:1057F0002078032814D1A078AD1F0102E078084377
:1058000001022079084301026079A41D084301F0D8
:10581000E9FD7168814243D1009820F001000090B9
:10582000307880061CD56078062819D1062D17DB44
:105830002078812814D1A078AD1F0102E0780843B8
:1058400001022079084301026079A41D084301F098
:10585000C9FDF168814223D1009820F0200000901A
:10586000307840061BD56078062818D1062D16DB47
:105870002078832813D1A078AD1F0102E078084377
:1058800001022079084301026079084301F0AAFD72
:105890003169814204D1009820F04000009015B198
:1058A000002005B0F0BD387C092804D014226946D8
:1058B0003046FAF7C1FC0120F3E72DE9FF4F0468F9
:1058C00087B004F59E7004900998029404F5A875B9
:1058D000D0F800904FF002081421284604F58A748D
:1058E000FAF7C3FC089E03962DE103984FF0020AD5
:1058F0000590B9F1020F04DB4778022F01D34F4521
:1059000004DD1FFA89F74FF000090DE1039A10F842
:10591000021B3A44A9EB07090392012906D0032987
:1059200075D0812974D08329EFD1CAE00499097810
:105930008907EAD52978C907E7D10A2FE5D110F8F8
:10594000011B0A0210F8011B11430A0210F8021B86
:1059500011430A0210F8011C00901143084601F09F
:1059600041FD8346A06858451AD0BBF1000F02D014
:105970002178C90618D40A994FF0030AA1B90099F1
:10598000091F009101F02EFD0099020E0A70009986
:10599000020C4A70020A8A70C870091D009103E067
:1059A000BBF1000F00D1F0B100980078020200981E
:1059B000417811430A02817811430A02C178001D1F
:1059C00011430090084601F00DFD019060680199B7
:1059D000884220D011B1217809071AD40A994FF0D2
:1059E000030A29B117E0206820F0040020609BE042
:1059F0000099091F009101F0F5FC0099020E0A7050
:105A00000099020C4A70020A8A70C87003E00BE029
:105A100059E0019860602868C5F808B040F00200BD
:105A200028600198686042E004990978C9077BD032
:105A30002978890778D4062F76D110F8011B0A023D
:105A400010F8011B11430A0210F8021B11430A024D
:105A500010F8011C00901143084601F0C3FC834676
:105A6000A068584518D0BBF1000F02D02178C906B4
:105A700017D40A994FF0030A99B90099091F0091A8
:105A800001F0B0FC0099020E0A700099020C4A70F5
:105A9000020A8A70C87004E0BBF1000F01D100282F
:105AA000A1D02868C5F808B040F001002860BAF11C
:105AB000020F53D0BAF1030F34D0BAF1040F33D030
:105AC00038E0012100E00021049A02EB810BDBF8B1
:105AD0000C1049B3062F27D110F8011B0A0210F849
