:020000040800F2
:10000000008B002065010008FF1700089515000807
:10001000FD1700086903000821190008000000000E
:1000200000000000000000000000000003180008AD
:100030006B03000800000000011800080518000804
:100040007F0100087F0100087F0100087F01000890
:100050007F0100087F0100087F0100087F01000880
:100060007F0100087F0100087F0100087F01000870
:100070007F0100087F0100087F0100087F01000860
:100080007F0100087F0100087F0100087F01000850
:100090007F0100087F0100087F0100087F01000840
:1000A0007F0100087F0100087F0100087F01000830
:1000B0007F0100087F0100087F0100087F01000820
:1000C0007F0100087F0100087F0100087F01000810
:1000D0007F0100087F0100087F0100087F01000800
:1000E0007F0100087F0100087F0100080000000078
:1000F0000000000000000000000000000000000000
:1001000000000000000000007F0100087F010008DF
:100110007F0100087F0100087F0100087F010008BF
:100120007F0100087F0100087F0100087F010008AF
:100130007F010008BD0300087F0100087F0100085F
:100140007F0100087F0100087F0100087F0100088F
:10015000DFF80CD000F0F6F800480047D59600080C
:10016000008B00200648804706480047FEE7FEE770
:10017000FEE7FEE7FEE7FEE7FEE7FEE7FEE7FEE757
:10018000CD180008510100082DE9F05F0546002058
:1001900092469B4688460646814640241BE02846F8
:1001A00041464746224600F020F853465A46C01AB8
:1001B000914110D311461846224600F0B4F82D1A8A
:1001C00067EB01084F4622460120002100F0ABF802
:1001D00017EB00094E41201EA4F10104DFDC484664
:1001E00031462A464346BDE8F09F202A04DB203AE8
:1001F00021FA02F00021704721FA02F3D040C2F147
:10020000200291400843194670470000004870479B
:100210006C8A01080649074A0868504343F23902CC
:1002200010440860400870470149086070470000AA
:10023000080100206D4EC64140EA01039B0703D030
:1002400009E008C9121F08C0042AFAD203E011F815
:10025000013B00F8013B521EF9D27047D2B201E0D7
:1002600000F8012B491EFBD270470022F6E710B5BB
:1002700013460A4604461946FFF7F0FF204610BD14
:1002800030B505462A460B4612F8010B13F8014B10
:1002900008B1A042F8D01CB1002802D06D1CF1E7D3
:1002A000284630BD421C10F8011B0029FBD1801AE2
:1002B000704710B5002200E0521C835C8C5CA342A6
:1002C00001D1002BF8D1D8B2E1B2401A10BD30B53F
:1002D00004460020034600E05B1C934203D2E05C2E
:1002E000CD5C401BF8D030BD034611F8012B00F85F
:1002F000012B002AF9D11846704730B50B4601464C
:1003000000202022012409E021FA02F59D4205D3B4
:1003100003FA02F5491B04FA02F52844151EA2F15E
:100320000102F1DC30BD202A04DB203A00FA02F1A0
:10033000002070479140C2F1200320FA03F31943D3
:1003400090407047064C074D06E0E06840F001031E
:1003500094E8070098471034AC42F6D3FFF7FCFE50
:100360001C8C01083C8C0108FEE77047064908B563
:1003700009684FF4FA52B1FBF2F14143009100BF1A
:10038000491E0091FBD208BD2000002038B504466C
:10039000006800F58050816941F480118161206816
:1003A00000F58050806900900120FFF7DFFF206892
:1003B000009900F58050816138BD0000014800F0CF
:1003C0005AB90000884900202DE9F041044621B1C6
:1003D0004FF40060E060C000A060E06900260028E3
:1003E00061D035462068402702683A490A40D4E97E
:1003F00002131943294341F400711143016020683D
:100400000568012000F072F82068056020684760E8
:1004100020684568012000F069F820684560206880
:1004200086602068C660206881694FF6417211407D
:1004300041F08001816120688569012000F056F853
:10044000206885612068C6612068C569012000F0C8
:100450004DF82068C561206800F5805081691E4A0A
:1004600011401E4A0A438261206800F58050856968
:10047000012000F03BF8206800F58050856120687D
:10048000174900F580500160206800F5805005682C
:10049000012000F02BF8206800F580500560A0696D
:1004A000012803D009E04FF480659BE7206800F540
:1004B0008050C1690B4A1143C16160690A4A818851
:1004C00011640178D0F8010041EA00205064BDE8D1
:1004D000F08100000F8120FF233FDEF8040020029E
:1004E0000020C102400001000080024070B50446B7
:1004F00000F08CFC0546601C02D0044800780444DF
:1005000000F084FC401BA042FAD370BD1400002010
:100510002DE9F04390F845500024012D0DD04FF007
:10052000010980F84590022580F8445044F2F45CBB
:100530004FF000485F1E816216E00220BDE8F083A4
:1005400001EB0415C5F80080C4EBC41606EB4606A3
:1005500002EB8606C5E901C6BC4203D205F11006CE
:10056000EE6000E0E960641C9C42E9D3026802F599
:100570008052D16080F84490002180F845100846F0
:10058000DCE72DE9F04390F845400025012C0BD025
:100590004FF0010C80F845C0022480F844404FF42D
:1005A00080195F1EC1621BE00220BDE8F08301EBF1
:1005B0000514C4F80090C5EBC51606EB460602EB21
:1005C0008606A660C6691EB9266846F440062660FF
:1005D000BD4203D204F11006E66000E0E1606D1C4C
:1005E0009D42E4D3026802F58052116180F844C054
:1005F000002180F845100846D7E7704710B590F8FD
:100600004510012913D0012380F84530022180F8DC
:100610004410816A0A680024002A27DB0A68D20590
:1006200018D5826B521C8263012A02D002E002209C
:1006300010BD016341630A68C2F30D42121FC26319
:10064000026B92680264C96840F8281F03774477F8
:10065000002010BD0A68920503D58363C0E90C141D
:1006600002E0826B521C8263C968816200F8443FD9
:100670004470012010BD70B50446006800F580503C
:1006800041694FF0000649064FF0010508D52046A4
:1006900000F0C1F92068402100F58050416109E077
:1006A0004069C0070AD0204600F07CFA206800F5B7
:1006B0008050456184F8445084F8456020684FF4C8
:1006C000803100F580504161206800F5805040691C
:1006D00000040CD52046FFF790FF20684FF400413E
:1006E00000F58050416184F8445084F8456070BD45
:1006F0002DE9F8434FF000060400B146009603D000
:1007000094F8440018B107E00120BDE8F88384F8AC
:100710004560204600F0BEF85948416821F40001C8
:1007200041604168226A11434160206800F58050B1
:10073000016841F00101016000F068FB05464FF4DB
:10074000FA7708E000F062FB401BB84203D90320AF
:1007500004F8440F57E0206800F580500068C00797
:10076000F0D12068006920F01C0500F089FC4549A3
:10077000454A0144914202D245F0080506E043494A
:1007800008444349884201D245F00C0520680561C0
:100790004FF400420021204600F005FA0125A8BBD5
:1007A000FF20FFF7A3FE606888B300F02FFB8046B0
:1007B00041F288376A460121204600F0EBF800F04C
:1007C00025FBA0EB0800B84217D800984007F1D5E8
:1007D0004FF480520021204600F0E5F9B0B900F056
:1007E00015FB80466A460121204600F0D3F800F050
:1007F0000DFBA0EB0800B8420AD901212046FFF703
:10080000E3FD04F8445F032066707EE724E018E00F
:1008100000988006E6D56A461021204600F0BAF816
:10082000D0B90098410703D54FF40061E16000E0C2
:10083000E660800701D5A66019E04FF48040A06013
:1008400015E0E068A168C00840EA510082B20021CA
:10085000204600F0A8F930B101212046FFF7B4FD91
:1008600084F8445050E740F6FF70FFF73FFE4946DA
:100870002046FFF7A9FD84F84450002045E700001A
:100880000000014000D3CEFEC0E1E40040F1E9FDEC
:1008900040787D012DE9F04186B000240094019458
:1008A0000294039400683649884265D1354841690D
:1008B00041F480414161416901F480410491416901
:1008C00041F400414161416901F4004104914169F1
:1008D00041F480314161416901F4803104918169C1
:1008E00041F010018161816901F010010491816979
:1008F00041F004018161816901F004010491816981
:1009000041F0080181618069022500F0080000952E
:1009100003260195CDE90360DFF86C806946404607
:1009200000F07CF98220CDE90004184F6946384672
:10093000029400F073F90420CDE90005694603969E
:10094000384600F06BF93020CDE900046946404696
:10095000029400F063F94FF46050CDE90005694658
:1009600003960B4800F05AF9002211463D2000F092
:10097000B9FA3D2000F0A8FA06B0BDE8F081000009
:1009800000800240001002400010014000080140B9
:10099000000C01402DE9F047044690F844009146D0
:1009A00082281DD0822084F84400206802694FF616
:1009B000FF7502F01C03228A05EAC2221A434FF493
:1009C000F86303EA8111114321F0020141F00105AE
:1009D000056100F01BFA064601274FF480380FE04E
:1009E0000220BDE8F08700F011FA801B404505D3D6
:1009F00004F8447F002060700320F2E72068056956
:100A0000E807F0D12068406981B2C9F8001084F885
:100A100044700020E5E77047F8B5044690F84500BB
:100A2000012839D0012584F84550022084F844007B
:100A300020680026016841F0080101602068006814
:100A400000902846FFF792FC216800980860206813
:100A5000016841F0040101602068006800900120F5
:100A6000FFF784FC2168009808602046FFF78EFCA1
:100A7000206800F58050816941F40051816120684F
:100A800000F58050816941F00201816184F8445091
:100A900084F845600020F8BD0220F8BDF0B590F85C
:100AA00045300022012B11D0012780F84570022328
:100AB00080F84430002559B1C46A2368002B0ADA53
:100AC000122100F8441F45700120F0BD0220F0BD46
:100AD00000F8447FF7E740F2F456B1420BD9B1FB7E
:100AE000F6FCB1FBF6F306FB1C1CBCF1000F00D0BA
:100AF0005B1C012B43D1226842F040522260C26A43
:100B0000C1F30C015160C16A0A6842F000420A60F8
:100B1000C16AC968C16234E0D4F800C02CF0405CFE
:100B2000C4F800C032B9C46AD4F800C04CF0805C8C
:100B3000C4F800C0C46A66605C1EA24214D1C46AD4
:100B4000D4F800C04CF0005CC4F800C0C3F101044C
:100B5000C4EBC41404EB4404D0F82CC001EB8404AF
:100B6000C4F30C04CCF80440C46AD4F800C04CF0C0
:100B7000004CC4F800C0C46A521CE468C4629A42C3
:100B8000CAD3016801F580514A69520705D504228C
:100B90004A61016801F580514D6000F8447F45705D
:100BA0000020F0BD70472DE9F041044690F8440064
:100BB00042281ED0422084F84400206803694FF682
:100BC000FF7603F01C05238A06EAC3232B434FF468
:100BD000F86505EA8111194341F0030591B24161BD
:100BE0002068056100F012F9064601274FF48038AD
:100BF0000FE00220BDE8F08100F008F9801B4045BD
:100C000005D304F8447F002060700320F2E72068D9
:100C10000569E807F0D184F84470EBE72DE9F84F57
:100C2000DFF8A491002409F1040A0AF1040B234619
:100C30004FF00F080BF1040EBEE00127A7403A4029
:100C4000BA4272D1DFF884C14D68A5EB0C06654548
:100C50002BD00DDC032D34D005DC35B3012D19D09C
:100C6000022D2FD11BE0112D16D0122D2AD119E003
:100C7000B6F5881F19D006DCB6F5803F15D0B6F55D
:100C8000801F1FD111E0B6F5001F0ED0B6F5041F6E
:100C900018D10AE0CB6815E0CB681B1D12E0CB68C9
:100CA00008330FE0CB680C330CE08B682BB1012BC1
:100CB0004FF0080303D0476104E0042302E007611A
:100CC00000E00023FF2A01D8064601E000F10406F7
:100CD0004FEA840501D9A5F12005376808FA05FC1B
:100CE00027EA0C0703FA05F547EA050737604D6860
:100CF000ED0060D5364DAE6946F00106AE61AD69D6
:100D000024F0030605F001050095324D7719BE6801
:100D1000A5072D0F08FA05FC26EA0C06DFF8B8C077
:100D2000604503D14FF0000C17E044E0DFF8ACC0A1
:100D3000604502D14FF0010C0FE0DFF8A4C0604520
:100D400002D14FF0020C08E0DFF898C0604502D1F4
:100D50004FF0030C01E04FF0040C0CFA05FC4CEAD8
:100D6000060CC7F808C04D68D9F80060ED034D4681
:100D700001D5164300E096432E604D68DAF8006016
:100D8000AD03554601D5164300E096432E604D68ED
:100D9000DBF80060ED025D4601D5164300E09643A6
:100DA0002E604D68DEF80060AD02754601D5164331
:100DB00000E096432E60641C0A6832FA04F57FF462
:100DC0003CAFBDE8F88F00000004014000001110A6
:100DD000001002400000014000080140000C0140EA
:100DE00000100140001401408068084000D001203C
:100DF0007047C2680A4201D0416170470161704783
:100E00000AB1016170470904FBE7000001488068EE
:100E100070470000140000200248816802781144E5
:100E20008160704714000020074810B5016841F048
:100E300010010160032000F075F8002000F006F8B2
:100E400000F024F8002010BD0020024070B50D4DC8
:100E500004464FF47A712878B1FBF0F00A4909682A
:100E6000B1FBF0F000F082FB48B9102C07D2002251
:100E70002146501E00F036F800206C6070BD012045
:100E800070BD000014000020200000200C4808B5B0
:100E9000816941F001018161816901F001010091E5
:100EA000C16941F08051C161C069064900F08050BC
:100EB0000090486820F0E06040F00070486008BD95
:100EC0000010024000000140002809DB00F01F0272
:100ED000012191404009800000F1E020C0F800119C
:100EE00070470000F0B40E4B1B68C3F30223C3F13C
:100EF0000704042C00D904241D1D072D01D2002352
:100F000000E0DB1E012606FA04F56D1E0D409D4033
:100F10009E40761E164045EA0601F0BC00F012BD68
:100F20000CED00E0064A00F0070110684FF6FF03E1
:100F3000184040EA01200349084310607047000050
:100F40000CED00E00000FA052DE9F0470D46040025
:100F500067D0DFF81881D8F8000000F00700A84239
:100F60000CD2D8F8001021F007012943C8F800106E
:100F7000D8F8000000F00700A84252D120683C4E8B
:100F8000810712D5400703D5706840F4E0607060B7
:100F90002078000703D5706840F460507060706876
:100FA000A16820F0F000084370602078C00727D0C7
:100FB0006068012810D03168022810D08907002904
:100FC0002FDA716821F0030101437160FFF71EFF02
:100FD000074641F288390CE031688903EFE789015F
:100FE000EDE7FFF713FFC11B494502D90320BDE818
:100FF000F0877068616800F00C00B0EB810FF0D1F1
:10100000D8F80010404601F00701A9420BD9016849
:1010100021F0070129430160006800F00700A842A1
:1010200001D00120E3E72078400705D57068E1682A
:1010300020F4E060084370602078000706D57068EF
:10104000216920F4605040EAC100706000F01EF891
:101050007168084AC1F30311515CC8400649086031
:1010600006480068FFF7F2FE0020C0E700200240BB
:1010700000100240800D0108200000201800002010
:10108000014800687047000020000020F0B524A04F
:1010900089B00FC88DE80F0025A004AC0FC884E804
:1010A0000F00274B586800F00C01042904D00829D0
:1010B00004D0244809B0F0BD2348FBE7C0F38342C5
:1010C000C0031DF8024028D5D86A04A900F00F001B
:1010D000085CD96AC90316D5D96AC1F30312D96A63
:1010E000521CC1F30321891CA2FB0023A1FB04179E
:1010F000154D0026A1FB050C07FB05C501FB06519C
:10110000FFF742F803E010496143B1FBF0F09DF8AE
:101110000D10A142CED14008CCE70C486043C9E78E
:10112000000004050607080900000000000D00008B
:101130000102030405060708090A0B0C0D0E0F1027
:101140000010024000127A0040787D0100093D0045
:1011500030B585B00020029002200190032003905A
:101160000B4C4FF480700090A0690D4640F00400D5
:10117000A061A069694600F0040004900548FFF7EB
:101180004DFD606820F070602843606005B030BDA0
:1011900000100240000801402DE9F84F04006ED015
:1011A0002078ED4DC00747D06868C0F38100012862
:1011B00007D06868C0F38100022809D16868C003BD
:1011C00006D52868800337D5A0680028E7D033E02B
:1011D000A068B0F5803F0BD010B1B0F5A02F11D0B2
:1011E000286820F480302860286820F4802002E0FD
:1011F000286840F480302860A06888B1FFF706FEB8
:10120000064609E0286840F480202860F0E7FFF7F0
:10121000FDFD801B642874D828688003F7D50BE097
:10122000FFF7F4FD064604E0FFF7F0FD801B64289D
:10123000F1D828688003F7D42078C84E80074FF093
:10124000010A4FF000073AD5686810F00C0F07D07C
:101250006868C0F38100022809D16868C00306D419
:101260002868800715D56069012808D111E06069F8
:10127000B8B1C6F800A0FFF7C9FD804606E041E11D
:10128000FFF7C4FDA0EB08000228C4D82868800737
:10129000F6D52868A16920F0F80040EAC10028606E
:1012A0000DE03760FFF7B2FD804605E0FFF7AEFDC9
:1012B000A0EB08000228AED828688007F6D4207872
:1012C00000072DD5A648E169E1B1C0F800A0FFF7FD
:1012D0009DFD804605E0FFF799FDA0EB0800022880
:1012E00099D8686A8007F6D59E484FF4FA5100688D
:1012F000B0FBF1F0009000BF0098411E0091FAD2BF
:101300000EE0B1E00760FFF781FD804605E0FFF7E2
:101310007DFDA0EB080002288AD8686A8007F6D411
:101320002078400762D5E8694FF00009C00009D471
:10133000E86940F08050E861E8694FF0010900F089
:101340008050009088480168C90512D4016883461E
:1013500041F480710160FFF759FD804605E0FFF719
:1013600055FDA0EB080064287ED8DBF80000C0051E
:10137000F5D5206901280AD008B1052813D0286ABC
:1013800020F001002862286A20F0040002E0286AA8
:1013900040F001002862206941F2883B90B1FFF7DC
:1013A00035FD80460AE0286A40F004002862EEE736
:1013B000FFF72CFDA0EB0801594555D8286A800796
:1013C000F6D50CE0FFF722FD804605E0FFF71EFD95
:1013D000A0EB0801594547D8286A8007F6D4B9F12F
:1013E000000F03D0E86920F08050E861E06AE0B3C4
:1013F0006968C90307D56968C1F38101022902D16F
:10140000E96AC9037ED4022808D0E86A20F4803053
:10141000E862B766FFF7FAFC80463BE02868C00048
:1014200005D5E86A616B00F0F00088426AD1B766C2
:10143000FFF7ECFC804605E0FFF7E8FCA0EB0800B6
:10144000642871D828680001F6D4E86A616B20F03E
:10145000F0000843E862E86A216B20F470600843FA
:10146000E862C6F868A001E05EE016E0FFF7CEFC97
:10147000804605E0FFF7CAFCA0EB0800642853D8BB
:1014800028680001F6D508E0FFF7C0FCA0EB0800D3
:10149000642849D828680001F6D4206A98B369689E
:1014A000C1F38101022946D00228376603D0FFF735
:1014B000ADFC04463BE0FFF7A9FC074604E0FFF75C
:1014C000A5FCC01B02282FD828688001F7D4606AC9
:1014D000B0F5803F09D1E86A61680843E862E86ACC
:1014E000E16820F00F000843E862D4E909010843ED
:1014F000696821F4741108436860C6F860A0FFF7BA
:1015000085FC01E024E025E0044604E0FFF77EFCD2
:10151000001B022808D828688001F7D51AE0FFF7D9
:1015200075FC001B022802D90320BDE8F88F28684B
:101530008001F4D40EE00128F7D06868626A00F4F4
:101540008031914204D1A16A00F47010884201D028
:101550000120EAE70020E8E70010024000004242D4
:1015600080044242200000200070004010B5401E60
:10157000B0F1807F01D3012010BD4FF0E024606105
:101580000F21601700F0DEF90020A0610720206124
:10159000002010BDFEE7000070B50546046800F0AD
:1015A0003DF8287C092815D1E06AC00202D50AA0BE
:1015B0000AF038F9294613480AF096FEE07C4FF409
:1015C0007A7148432A460F490AF0D8FDE06A40F490
:1015D0008010E06270BD0000617373657274696FA2
:1015E0006E206C63705F6563686F5F74696D6572B0
:1015F0005F72756E6E696E673D3D30206661696C25
:1016000065640000091600080168CA6AD30204D59F
:1016100022F48012CA62FFF7BFBF70472DE9FC4178
:101620000468064604F18407207D002817D094F84A
:10163000F210814213D3307C254609280CD118A022
:1016400009F0E2FD1EA009F0A2FE092085F82D0098
:1016500025A1284606F07AFF002084F8F200307CAD
:1016600009281AD1B86801AB010E8DF80410010CDD
:101670008DF80510010A8DF806108DF8070004207A
:10168000009014F8F32F0921501C04F8010930468A
:1016900004F008F92078401C2070BDE8FC810000AF
:1016A0004E6F20726573706F6E736520746F2025A6
:1016B00064206563686F2D7265717565737473005E
:1016C00053657269616C206C696E6B206170706526
:1016D00061727320746F20626520646973636F6E3A
:1016E0006E65637465642E0050656572206E6F745C
:1016F00020726573706F6E64696E670070B586B036
:1017000000241D480094019402940394816941F0DF
:1017100010018161816901F010010491816941F03A
:1017200004018161816901F004010491816941F042
:10173000080181618069114E00F008004FF40055E6
:101740000490002229463046FFF75AFB01200095FD
:10175000CDE901040224694630460394FFF75EFA9E
:10176000E001CDE900040320039069460448FFF737
:1017700055FA06B070BD0000001002400010014094
:10178000000801400EB507F05BFF13490020144A22
:101790000860091D104B0860091D08330860CDE979
:1017A00000020E4902911A1F111F0E4808F02CFB6F
:1017B0000C4808F0CBFB0B4890F82F004007094875
:1017C00002D508F023FC01E008F0C6FBBDE80E409E
:1017D000044801F0D7BE000004000020D94D0008E5
:1017E000954F00082401002010B5034803F016FCB3
:1017F000BDE810400AF090BC24010020FEE77047CD
:101800007047704710B5FFF707FB0A4908780028B2
:101810000FD04888401C80B24880B0F5FA7F08D3CA
:1018200000204880BDE810404FF400510248FFF707
:10183000E0BA10BD100000200010014030B593B098
:1018400038216846FEF711FD14210EA8FEF70DFDA4
:10185000012420040421CDE902010225CDE908502C
:101860000094019005944FF4E010CDE90A054FF47F
:10187000C0600C9040200D906846FFF78DFC0F2053
:10188000CDE90E050020A102CDE910011290022140
:101890000EA8FFF759FB00224FF030611046FFF70A
:1018A00057FC0848C16A21F0F00141F04001C162D3
:1018B000C16A21F4704141F40041C16202480467E9
:1018C00013B030BD001002400000424210480168D1
:1018D00041F00101016041680E4A11404160016818
:1018E0000D4A11400160016821F4802101604168C6
:1018F00021F4FE014160016821F0A05101604FF424
:101900007F0181600021C1620449C0030860704703
:10191000001002400000FFF0FFFFF6FE08ED00E0BF
:10192000FEE700000FB4054B10B503A9044A029866
:1019300000F028F810BC5DF814FB00003F500008D0
:101940000C0100200907090E002804DB00F1E0204B
:1019500080F80014704700F00F0000F1E02080F8DC
:10196000141D704702E008C8121F08C1002AFAD1EE
:1019700070477047002001E001C1121F002AFBD10F
:10198000704700002DE9FF4F8BB09A460F46054681
:10199000002606E025280BD052460D9990476D1C75
:1019A000761C28780028F5D10FB03046BDE8F08FBE
:1019B0000024A0460122604900E0044315F8013FDD
:1019C000203B02FA03F00842F7D128782E2817D1DD
:1019D00015F8010F44F004042A280ED06FF02F02EE
:1019E0002878A0F1300109290AD808EB880102EB18
:1019F000410100EB01086D1CF2E757F8048B6D1CE8
:101A0000287869283ED006DC0028CDD063280BD08A
:101A1000642804D136E0732810D075284BD0524684
:101A20000D999047761C85E017F8040B8DF800009F
:101A300000208DF80100E946012003E057F8049BDF
:101A40004FF0FF3061074FF0000401D40AE0641C3E
:101A500044450DDA8442FADB19F804100029F6D166
:101A600006E0641C8442FCDB19F804100029F8D15C
:101A7000264404E019F8010B52460D999047641E64
:101A8000F8D257E001CF4FF00A0B002802DA4042AB
:101A90002D2102E0210504D52B218DF824100121F0
:101AA00003E0E10705D02021F7E70DF120090891B7
:101AB0000CE00021F9E701CF4FF00A0BF9E7594696
:101AC000FEF71BFC01F1300209F8012D0028F6D1C8
:101AD000ADEB090000F1200B600701D44FF00108C5
:101AE000D84502DDA8EB0B0000E000208046002472
:101AF00006E009A85246005D0D999047641C761CCB
:101B000008988442F5DB04E0302052460D99904756
:101B1000761CB8F10001A8F10108F5DC05E019F820
:101B2000010B52460D999047761CBBF10001ABF1B9
:101B3000010BF4DC6D1C34E709280100072180F853
:101B40002D1001A106F002BD4661696C6564207428
:101B50006F2061757468656E746963617465206F68
:101B6000757273656C76657320746F20706565722D
:101B70000000000070B50446A1F540400DA62338D2
:101B800013D00DA009F04EFE0025314615A009F036
:101B9000FEFB608E28436086208EA843208607D1F6
:101BA0002046BDE870400AF0ACBA012514A6ECE767
:101BB00070BD000000000000617574685F77697493
:101BC00068706565725F737563636573733A2075DA
:101BD0006E6B6E6F776E2070726F746F636F6C20B8
:101BE0002578000025732061757468656E746963DB
:101BF0006174696F6E207375636365656465640005
:101C00005041500070B515460C46002002F0A8F86F
:101C10000068A04203D10849002002F06FFA0120B9
:101C200002F09EF80068A84203D10349012002F0A7
:101C300065FA012070BD0000E089010810B5044B71
:101C4000806A044A194608F05DF9012010BD0000C1
:101C5000E0890108E48901082DE9F04105460024E6
:101C60004FF440470F4E0CE00188B94208D2816919
:101C700031B12846884795F8F400401C85F8F400F7
:101C8000641C56F824000028EED195F8F4000028D2
:101C900005D12846BDE8F04103A106F057BCBDE8D8
:101CA000F0810000540E01084E6F206E6574776F4E
:101CB000726B2070726F746F636F6C732072756ECD
:101CC0006E696E670000000010B5044640688047EA
:101CD00022462068BDE8104001490AF04FBA0000D2
:101CE000C91C000858B1026A002A0FD0537A082B89
:101CF0000CD10968926A914208D100F035BB04A367
:101D000040F27B3210A114A0FFF70CBE7047000018
:101D10002E2E2F4D6964646C6577617265732F5444
:101D2000686972645F50617274792F4C7749502FE3
:101D30007372632F636F72652F697076342F6468D6
:101D400063702E63000000006E6574696620213D9B
:101D5000204E554C4C000000417373657274696FDE
:101D60006E2022257322206661696C65642061748F
:101D7000206C696E6520256420696E2025730A0039
:101D80002DE9FC4105001BD02C6AF4B14FF0000E88
:101D9000A4F820E0606B4FF03C02411C4FF4803C03
:101DA0004FF001074FF6FF7619D01E30B0FBF2F06E
:101DB000604500D330460004000C60840ED00EE075
:101DC0002DA340F2FE323AA103E02BA34FF4806230
:101DD0003EA144A0FFF7A6FDBDE8FC816784A36B8C
:101DE000581C0CD01E33B3FBF2F1614500D33146D1
:101DF0000804000C208300D12783208BA083E06B94
:101E0000411C0CD01E30B0FBF2F2624500D33246CA
:101E10001004000C608300D16783608BE083218B0A
:101E2000608B814202D308B1A4F818E0E07A08B1CF
:101E3000E06A09E094F828307F2B01D8FF2003E006
:101E4000C02B03D36FF07F40009000E00096206B22
:101E5000019028B9A06A0099084040F08070019074
:101E60000A21204601F086FB01AB6A4604F12801F5
:101E7000284608F047F8AFE72E2E2F4D6964646CB2
:101E80006577617265732F54686972645F5061721F
:101E900074792F4C7749502F7372632F636F72657B
:101EA0002F697076342F646863702E630000000021
:101EB000646863705F62696E643A206E6574696617
:101EC00020213D204E554C4C00000000646863709A
:101ED0005F62696E643A206468637020213D204E21
:101EE000554C4C00417373657274696F6E202225E6
:101EF0007322206661696C6564206174206C696E70
:101F00006520256420696E2025730A0070B5046A77
:101F100005460821204601F02DFB002204F128018E
:101F2000284602F0DDFCA07AFF2801D2401CA072F6
:101F30004FF4FA7140F2E730B0FBF1F0E08270BD8F
:101F400070B5294804684CE0216AA1B3487A90B37F
:101F5000488C68B1088C401C80B208844A8C90423E
:101F600006D1204601F0DCF9204600F0D3FA37E034
:101F7000C88B18B1421ECA83012806D0888BD0B105
:101F8000421E8A83012817D02AE0256A2046697AF2
:101F9000012905D00A2903D0052901D004291FD120
:101FA00001F022F8688C298C401A022818DB00EB1B
:101FB000D0704008E88313E0256A2046697A012939
:101FC00003D00A2901D005290AD101F0FDF9688B57
:101FD000298C401A022803DB00EBD0704008A8834C
:101FE0002468002CB0D170BD880000202DE9F0419C
:101FF00016460C4605002CD0002C35D0E068002891
:1020000006D05DA340F21F7269A173A0FFF78AFC9E
:102010002069002806D058A34FF4E46278A16EA08E
:10202000FFF780FC00224FF49A773946104608F0FB
:1020300035F8E060002821D04089B84206D24EA38E
:1020400040F2277278A164A0FFF76CFC032E1BD12D
:1020500017E049A340F21D7283A15FA0FFF762FC65
:102060006FF00F00BDE8F08143A340F21E7286A11D
:1020700059A0FFF757FC6FF00500F3E74FF0FF3072
:10208000F0E7607A032808D1A07A874F08B1B868D2
:1020900002E0FEF7BFF8B8602060E0680121002789
:1020A00040682061017020694170216995F828001D
:1020B00088702069C770206807F0BEFA2169082E71
:1020C000486020690781206947812069C7600AD07C
:1020D000042E08D0072E06D0032E07D1607A0528DB
:1020E00001D0042802D121696868C86020690761AD
:1020F0002069476120698761002095F82810814296
:1021000005D9062803D2291891F8291000E00021EA
:1021100000F11C022369401C80B299541028ECD3B2
:10212000002000F12C012269401C80B25754402845
:10213000F7D3002000F16C012269401C80B2575493
:102140008028F7D321695948C1F8EC00A782002004
:10215000226900F1F0015054401C80B24428F7D3AA
:1021600001223521204600F029FB3146204600F0AF
:1021700077FB002076E700002E2E2F4D6964646CFB
:102180006577617265732F54686972645F5061721C
:1021900074792F4C7749502F7372632F636F726578
:1021A0002F697076342F646863702E63000000001E
:1021B000646863705F6372656174655F6D73673ACD
:1021C00020646863702D3E705F6F7574203D3D2004
:1021D0004E554C4C00000000417373657274696F7A
:1021E0006E2022257322206661696C65642061740B
:1021F000206C696E6520256420696E2025730A00B5
:10220000646863705F6372656174655F6D73673A7C
:1022100020646863702D3E6D73675F6F7574203D39
:102220003D204E554C4C0000646863705F637265DE
:102230006174655F6D73673A20636865636B2074D2
:1022400068617420666972737420706275662063B9
:10225000616E20686F6C642073747275637420649F
:102260006863705F6D736700646863705F63726555
:102270006174655F6D73673A206E657469662021CD
:102280003D204E554C4C0000646863705F6372657E
:102290006174655F6D73673A206468637020213DE7
:1022A000204E554C4C000000EC000020638253632C
:1022B00010B50B4C2078002805D10AA3F32217A1F2
:1022C0001FA0FFF72FFB2078401E10F0FF002070AA
:1022D00004D1E0680EF0ACFA0020E06010BD000010
:1022E000EC0000202E2E2F4D6964646C65776172BE
:1022F00065732F54686972645F50617274792F4CF2
:102300007749502F7372632F636F72652F697076F0
:10231000342F646863702E6300000000646863708B
:102320005F7063625F726566636F756E7428293AC9
:1023300020726566636F756E74206572726F7200CD
:10234000417373657274696F6E2022257322206653
:1023500061696C6564206174206C696E6520256418
:1023600020696E2025730A007CB5046A06460C219C
:10237000204601F0FFF8042221463046FFF736FEE2
:10238000050021D104223221204600F017FAA06A6C
:1023900007F052F90146204600F0C6FA204600F048
:1023A00091FBA08AF03081B2E06808F043FC0D4850
:1023B0004323CDE900600D480B4AE168C0680EF088
:1023C00083FA204600F014F8A07AFF2801D2401CBE
:1023D000A07242F603104FF4FA71B0FBF1F0E08204
:1023E00028467CBDE0890108E4890108EC00002052
:1023F00010B5040003D0E068002809D00FE0BDE864
:10240000104010A340F26D721CA124A0FFF78ABAFD
:102410000CA340F26E722BA120A0FFF783FA206973
:10242000002806D107A340F26F7230A11BA0FFF76E
:1024300079FAE06808B108F08DFA0020E0602061C8
:1024400010BD00002E2E2F4D6964646C657761729B
:1024500065732F54686972645F50617274792F4C90
:102460007749502F7372632F636F72652F6970768F
:10247000342F646863702E6300000000646863702A
:102480005F64656C6574655F6D73673A206468634B
:102490007020213D204E554C4C0000004173736567
:1024A0007274696F6E2022257322206661696C65E3
:1024B00064206174206C696E6520256420696E203B
:1024C00025730A00646863705F64656C6574655F9A
:1024D0006D73673A20646863702D3E705F6F75742A
:1024E00020213D204E554C4C000000006468637074
:1024F0005F64656C6574655F6D73673A20646863DB
:10250000702D3E6D73675F6F757420213D204E55B1
:102510004C4C00002DE9FC41046A07460020A062F3
:102520000621204601F026F8012221463846FFF711
:102530005DFD060030D102223921204600F03EF92F
:10254000F98C204600F06EFA04223721204600F074
:1025500035F9DFF880800025204618F8051000F0D6
:102560007FF96D1CEDB2042DF6D3204600F0AAFAD7
:10257000A08AF03081B2E06808F05CFB1648432383
:10258000CDE900701348154A401EE168C0680EF09E
:102590009BF92046FFF72CFFA07AFF2801D2401CB0
:1025A000A072C1B2062902D20120884000E03C207E
:1025B00000EB4001C1EBC0104FF6FF7101EAC00013
:1025C0004FF4FA7100F2F310B0FBF1F0E082304604
:1025D000BDE8FC81ED000020E0890108E4890108E4
:1025E00070B50B48002504680EE0216A59B1C88A0D
:1025F000012803D9A0F10100C88204E003D1CD82F3
:10260000204601F0EBF82468002CEED170BD0000EC
:1026100088000020F8B5046A0021204DE1622163A2
:10262000E878A5F1280608B1F0686063287908B158
:10263000306901E0606B4008A063687908B1706997
:1026400003E0606BC0EBC000C008E0636068006935
:10265000A062A87930B1B06906F0EEFFE062012017
:10266000E07200E0E172E87918B1F06906F0E4FF89
:10267000206300240DE006EB8400006A06F0DCFF16
:1026800000906946204601F039FD641CE4B2022C3A
:1026900003D22819007A0028EDD1F8BDF485002076
:1026A00010B5154C207800281ED1E068002805D010
:1026B00012A3D9221FA129A0FFF734F90EF0A6F822
:1026C000E060B0B1017A442241F0200101722D494D
:1026D0000DF036FF43222B49E0680DF089FF002200
:1026E0002949E0680EF0A1F82078401C20700020F5
:1026F00010BD4FF0FF3010BDEC0000202E2E2F4DEE
:102700006964646C6577617265732F54686972647B
:102710005F50617274792F4C7749502F7372632F19
:10272000636F72652F697076342F646863702E63EF
:1027300000000000646863705F696E635F706362CD
:102740005F726566636F756E7428293A206D656DDA
:102750006F7279206C65616B0000000041737365D6
:102760007274696F6E2022257322206661696C6520
:1027700064206174206C696E6520256420696E2078
:1027800025730A00E089010871310008026A002AF5
:1027900013D0517A002304290CD004DC00290CD07A
:1027A000032904D106E0052904D00A2902D0937236
:1027B000FFF7B0BE937200F073BC704770B50E4661
:1027C0000446818A901C08441546442806D90BA368
:1027D0004FF4AE62174918A0FFF7A4F8A08A216948
:1027E0000144401CA08281F8F060A08A2169014464
:1027F000401CA08281F8F05070BD00002E2E2F4D9D
:102800006964646C6577617265732F54686972647A
:102810005F50617274792F4C7749502F7372632F18
:10282000636F72652F697076342F646863702E63EE
:1028300000000000908B0108417373657274696F2A
:102840006E2022257322206661696C6564206174A4
:10285000206C696E6520256420696E2025730A004E
:1028600070B50446808A0D46442806D307A340F27B
:102870007B5214A122A0FFF755F8A08A21690144D8
:10288000401CA08281F8F05070BD00002E2E2F4D0C
:102890006964646C6577617265732F5468697264EA
:1028A0005F50617274792F4C7749502F7372632F88
:1028B000636F72652F697076342F646863702E635E
:1028C00000000000646863705F6F7074696F6E5F12
:1028D000627974653A20646863702D3E6F70746924
:1028E0006F6E735F6F75745F6C656E203C2044483B
:1028F00043505F4F5054494F4E535F4C454E00007C
:10290000417373657274696F6E202225732220668D
:1029100061696C6564206174206C696E6520256452
:1029200020696E2025730A0070B50446808A0D4622
:10293000001D442806D913A340F28A521FA12FA0DC
:10294000FEF7F0FFA08A2269290E0244401CA082F3
:1029500082F8F010A08A2269290C0244401CA0824F
:1029600082F8F010A08A2269290A0244401CA08241
:1029700082F8F010A08A21690144401CA08281F8ED
:10298000F05070BD2E2E2F4D6964646C65776172B6
:1029900065732F54686972645F50617274792F4C4B
:1029A0007749502F7372632F636F72652F6970764A
:1029B000342F646863702E630000000064686370E5
:1029C0005F6F7074696F6E5F6C6F6E673A206468DA
:1029D00063702D3E6F7074696F6E735F6F75745F97
:1029E0006C656E202B2034203C3D20444843505FD2
:1029F0004F5054494F4E535F4C454E0041737365E1
:102A00007274696F6E2022257322206661696C657D
:102A100064206174206C696E6520256420696E20D5
:102A200025730A0070B50446808A0D46801C442830
:102A300006D90BA340F28252174918A0FEF772FF85
:102A4000A08A2269290A0244401CA08282F8F01060
:102A5000A08A21690144401CA08281F8F05070BD19
:102A60002E2E2F4D6964646C6577617265732F54E7
:102A7000686972645F50617274792F4C7749502F86
:102A80007372632F636F72652F697076342F646879
:102A900063702E63000000004C8B01084173736566
:102AA0007274696F6E2022257322206661696C65DD
:102AB00064206174206C696E6520256420696E2035
:102AC00025730A0010B5040003D02069002809D03E
:102AD0000FE0BDE8104016A340F2827222A12BA0A5
:102AE000FEF720BF12A340F2837232A127A0FEF7A7
:102AF00019FFA08A442806D30DA340F2847238A19E
:102B000022A0FEF70FFFA08A2269FF210244401C89
:102B1000A08282F8F010002105E022690244401CE6
:102B2000A08282F8F010A08A4428F6D310BD0000DD
:102B30002E2E2F4D6964646C6577617265732F5416
:102B4000686972645F50617274792F4C7749502FB5
:102B50007372632F636F72652F697076342F6468A8
:102B600063702E6300000000646863705F6F7074B0
:102B7000696F6E5F747261696C65723A2064686334
:102B80007020213D204E554C4C0000004173736570
:102B90007274696F6E2022257322206661696C65EC
:102BA00064206174206C696E6520256420696E2044
:102BB00025730A00646863705F6F7074696F6E5F7D
:102BC000747261696C65723A20646863702D3E6D41
:102BD00073675F6F757420213D204E554C4C0A0081
:102BE000646863705F6F7074696F6E5F747261693F
:102BF0006C65723A20646863702D3E6F7074696F03
:102C00006E735F6F75745F6C656E203C2044484343
:102C1000505F4F5054494F4E535F4C454E0A000091
:102C20002DE9F34F85B000210446039101910A215B
:102C3000AA48FDF71AFB069840892C2875D30699F7
:102C40004FF0F0084868606006980089069F06E02B
:102C5000A8EB0102401A3F681FFA82F880B2002FE9
:102C600063D0798942464145F2D916468146FBE058
:102C7000B01C1FFA80FA7A89701C4FF0FF34824230
:102C800003D90BEB0600407803E0386808B14068D0
:102C90000078342905465ED00CDC032935D004DCED
:102CA000002925D001290DD127E0062936D0332966
:102CB00008D147E035295ED0362965D03A296BD056
:102CC0003B2972D000253044801C86B2002D0ED0E6
:102CD000002000900A2C06D381A340F236628EA118
:102CE00092A0FEF71FFE7D48005D002865D0ABE096
:102CF0000020761E0546B6B2E5E7042803D078A387
:102D000040F2F65223E00624DDE70425042803D22E
:102D100073A340F2FB5211E00724D4E7810705D0EA
:102D20006FA340F201628BA1A5E056E0082800D312
:102D30000825A84204D26AA340F2046289A19AE05D
:102D40000824C0E7042804D065A340F209628AA1E0
:102D500091E00324B7E7012803D061A340F2176292
:102D60000EE0B8F1F00F04D05DA340F2196285A126
:102D700081E00024A7E7012804D059A340F21D6296
:102D800086A178E001249EE7042803D054A340F2F2
:102D90002162DCE7022496E7042804D050A340F225
:102DA0002562D4E701E004248DE7042803D04CA376
:102DB00040F22962CBE7052485E7042D01D228469D
:102DC00000E004200246029053466946384607F068
:102DD00033FD01460298814204D06FF0010007B034
:102DE000BDE8F08F042D18D9A80704D03CA340F209
:102DF0003E626DA13FE0394901200855009806F078
:102E00001BFC36492D1F2839EDB241F824000AF188
:102E100004001FFA80FA641C5CE7042D06D0012D23
:102E200008D02FA34FF4C96265A124E0009806F0F2
:102E300003FC01E09DF800000090284801210155A5
:102E40002838009940F824107889B04219D8311AEE
:102E5000A9EB00008EB21FFA80F94E4519D2B9F1E4
:102E6000000F16D03F6817B1D7F804B00AE01CA3D2
:102E700040F2546257A12DA0FEF754FD6FF00500FB
:102E8000ADE737B14E4504D21BF80610FF297FF499
:102E9000EFAE1249087868B1A1F12800002200685D
:102EA0000A70012808D0022802D003280AD001E0C5
:102EB00001200190039840B1002003904FF06C086E
:102EC000EC20C3E601200190F6E70198002886D0A7
:102ED000002001904FF02C086C20B7E6F48500200C
:102EE0002E2E2F4D6964646C6577617265732F5463
:102EF000686972645F50617274792F4C7749502F02
:102F00007372632F636F72652F697076342F6468F4
:102F100063702E6300000000636865636B20646566
:102F2000636F64655F6964780000000041737365D6
:102F30007274696F6E2022257322206661696C6548
:102F400064206174206C696E6520256420696E20A0
:102F500025730A006C656E2025252034203D3D2018
:102F6000300000006C656E203E3D206465636F6438
:102F7000655F6C656E0000006C656E203D3D203421
:102F8000000000006F7665726C6F616420696E20CE
:102F900066696C652F736E616D6500006C656E20EF
:102FA0003D3D2031000000006465636F64655F6C27
:102FB000656E2025252034203D3D20300000000096
:102FC000696E76616C6964206465636F64655F6CCB
:102FD000656E00006E65787420706275662077619A
:102FE00073206E756C6C00002DE9F843056A064687
:102FF0000421284600F0BEFA032229463046FEF797
:10300000F5FF07002ED1022239212846FFF7D6FB13
:10301000F18C2846FFF706FD042237212846FFF7EA
:10302000CDFBDFF874800024284618F80410FFF761
:1030300017FC641CE4B2042CF6D32846FFF742FDCB
:10304000A88AF03081B2E86807F0F4FD12480096D3
:10305000401E4323114AE968C0680DF01AFC284657
:10306000FFF7C6F9A87AFF2801D2401CA872C0B2A7
:103070000A2803D24FF47A71484301E042F21070FB
:1030800080B24FF4FA7100F2F310B0FBF1F0E88275
:103090003846BDE8F8830000ED000020E48901080F
:1030A0002DE9F843046A07460321204600F062FA3E
:1030B000032221463846FEF799FF06003BD1022243
:1030C00039212046FFF77AFB4FF410712046FFF7B5
:1030D000A9FC042232212046FFF770FBA06A06F00B
:1030E000ABFA01462046FFF71FFC04223721204699
:1030F000FFF764FBDFF870800025204618F8051004
:10310000FFF7AEFB6D1CEDB2042DF6D32046FFF7A2
:10311000D9FCA08AF03081B2E06807F08BFD12483C
:103120000097401E4323114AE168C0680DF0B1FBCF
:103130002046FFF75DF9A07AFF2801D2401CA0725B
:10314000C0B20A2803D24FF47A71484301E042F238
:10315000107080B24FF4FA7100F2F310B0FBF1F08E
:10316000E0823046BDE8F883ED000020E4890108E4
:103170002DE9F0414A485668174645682C6A002CEC
:1031800071D0207A4FF0000800286DD0606830B10F
:1031900044A34FF4D56251A155A0FEF7C3FB788933
:1031A0002C2876D33078022873D1002095F8281087
:1031B00001E0401CC0B2814209D9062807D22A1872
:1031C000331892F829201B7F9A4261D1F1E7706889
:1031D00006F032FA216888425AD139462046FFF774
:1031E0001FFD00BB4C494878E8B1A1F128021079D5
:1031F000052804D006281FD0022836D048E0607A7F
:10320000012806D0032813D0042811D005280FD098
:103210003EE02846FFF7FEF995F82F00000703D59A
:103220002846FEF773FE33E02846FEF7A9FD2FE09F
:103230002846FFF7EFF9F7E7607A032805D0012861
:1032400003D0042801D0052822D10C21286A00F0DF
:1032500091F9324B28461A46114606F053FE28468D
:10326000FFF758F914E016E013E0607A06280FD152
:10327000A4F816802E462D6A887848B1906806F02A
:10328000DBF9686268680069A862304600F0F6F809
:103290000CB1C4F804803846BDE8F04107F05ABBD1
:1032A000145000202E2E2F4D6964646C6577617276
:1032B00065732F54686972645F50617274792F4C22
:1032C0007749502F7372632F636F72652F69707621
:1032D000342F646863702E63000000007265706CA8
:1032E00079207761736E27742066726565640000CB
:1032F000417373657274696F6E2022257322206694
:1033000061696C6564206174206C696E6520256458
:1033100020696E2025730A00F4850020E0890108E9
:103320007CB5046A0546F4B1606A0190284600F055
:1033300047FA06460021204600F01CF90020606292
:10334000A062E0622063E063A06360636084208425
:10335000E083A08356B1072221462846FEF746FEA9
:10336000060005D024E06FF00F007CBD00207CBD7E
:10337000042236212046FFF721FA019806F05CF975
:1033800001462046FFF7D0FA2046FFF79BFBA08AB4
:10339000F03081B2E06807F04DFC09480095432306
:1033A00001AAE168C0680DF074FA2046FFF720F822
:1033B000044B28461A46114606F0A4FD30467CBD53
:1033C000EC000020E08901082DE9F843046A064674
:1033D0000521204600F0CEF8032221463046FEF7B4
:1033E00005FE07002FD1022239212046FFF7E6F91A
:1033F000F18C2046FFF716FB042237212046FFF709
:10340000DDF9DFF874800025204618F80510FFF775
:1034100027FA6D1CEDB2042DF6D32046FFF752FBC0
:10342000A08AF03081B2E06807F004FC12480096F0
:10343000401E432304F12402E168C0680DF029FA1C
:103440002046FEF7D5FFA07AFF2801D2401CA072CB
:10345000C0B20A2803D24FF4FA61484301E044F6AF
:10346000206080B24FF4FA7100F2F310B0FBF1F07B
:10347000E0823846BDE8F883ED0000202DE9FC41EC
:10348000046A07460121204600F074F80322214611
:103490003846FEF7ABFD060048D10222392120460E
:1034A000FFF78CF9F98C2046FFF7BCFA0422322191
:1034B0002046FFF783F9A06A06F0BEF801462046D1
:1034C000FFF732FA042236212046FFF777F9606AC7
:1034D00006F0B2F801462046FFF726FA042237210B
:1034E0002046FFF76BF9DFF880800025204618F8AA
:1034F0000510FFF7B5F96D1CEDB2042DF6D320468B
:10350000FFF7E0FAA08AF03081B2E06807F092FBA2
:1035100016484323CDE900701348154A401EE16860
:10352000C0680DF0D1F92046FEF762FFA07AFF28AF
:1035300001D2401CA072C1B2062902D201208840EB
:1035400000E03C2000EB4001C1EBC0104FF6FF71E2
:1035500001EAC0004FF4FA7100F2F310B0FBF1F091
:10356000E0823046BDE8FC81ED000020E0890108E2
:10357000E4890108427A8A4203D0417200218172B3
:10358000C182704770B505006FF00F042CD095F81C
:103590002F00C0072DD0E88C2C6A4FF0FF36B0F515
:1035A000107F1FD3002C2DD0E06830B11EA34FF444
:1035B0003C722BA130A0FEF7B5F9606830B11AA3B8
:1035C00040F2F12236A12CA0FEF7ACF9207A08B126
:1035D000FEF76EFE40212046FCF747FEFFF760F83D
:1035E000002816D0304670BD0FA340F2D62231A17C
:1035F00003E00DA340F2D72232A11FA0FEF792F9FB
:10360000204670BD402006F037F90400EAD02C6255
:10361000E0E7012020722846FEF77CFF0028F0D06A
:10362000284600F061F8DDE72E2E2F4D6964646CAA
:103630006577617265732F54686972645F50617257
:1036400074792F4C7749502F7372632F636F7265B3
:103650002F697076342F646863702E630000000059
:103660007062756620705F6F7574207761736E2766
:103670007420667265656400417373657274696F66
:103680006E2022257322206661696C656420617456
:10369000206C696E6520256420696E2025730A0000
:1036A0007265706C79207761736E2774206672651D
:1036B000656400006E6574696620213D204E554C9E
:1036C0004C0000006E65746966206973206E6F742B
:1036D0002075702C206F6C64207374796C65207079
:1036E0006F72743F0000000010B5002817D0046A04
:1036F000002C13D0606830B10DA340F24F521AA1D4
:103700001EA0FEF70FF900212046FFF733FF207AB5
:10371000002803D0FEF7CCFD0020207210BDBDE8CC
:10372000104003A340F242521EA114A0FEF7FAB8C3
:103730002E2E2F4D6964646C6577617265732F540A
:10374000686972645F50617274792F4C7749502FA9
:103750007372632F636F72652F697076342F64689C
:1037600063702E63000000007265706C79207761D1
:10377000736E27742066726565640000417373651B
:103780007274696F6E2022257322206661696C65F0
:1037900064206174206C696E6520256420696E2048
:1037A00025730A00646863705F73746F703A206EEB
:1037B0006574696620213D204E554C4C0000000088
:1037C00040B1006A30B1407A0A2805D0052803D0FC
:1037D000042801D0002070470120704710B5026A0C
:1037E0000446517A0C290FD006290DD001290FD09B
:1037F000082919D0032923D1907A022812D2204611
:10380000BDE81040FFF74CBCBDE81040FEF782BE9B
:10381000907A0528204603D8BDE81040FFF72EBE59
:10382000FFF77EFD2046EFE7907A0128204603D877
:10383000BDE81040FEF76ABBBDE81040FEF7A0BA35
:1038400010BD00002DE9F047DFF8A080284D0024CE
:1038500055F8240020B1641CE4B2042CF8D32EE007
:10386000042C2CD22E200CF0DEFF06004FF00009B5
:103870000AD04FF4806A6FF00707FCF7CBFC82B2E6
:10388000524503D2384605E04E4610E0194930460D
:103890000CF056FE10F1080FEFD018B130460CF0C6
:1038A000C7FFF1E70022144930460CF0BEFF45F88F
:1038B000246026B188F800402046BDE8F08798F8DB
:1038C00000000021401CC0B2042800D3002055F89D
:1038D000203013B188F80000EFE7491C401CC9B242
:1038E000C0B20429F0D30420E7E70000480000201C
:1038F000944B0020E08901087D3D00082DE9F35F2D
:10390000DFF88890064600EB0611A9F5886B0024C5
:103910000BEB0115A24605F1100804EB44074946DC
:1039200059F8273053B101EB8700027AB24205D132
:10393000426840460199984749F827A0641CE4B2C0
:10394000042CEAD3002104245A46B1420DD001EBE5
:10395000011002EB0010837A022B06D1C07BEB7BB7
:10396000984202D1EC73BDE8FC9F491CC9B20429FE
:10397000EBD3E87B0428F6D2054E56F820000CF075
:1039800057FFE97B46F821A0ECE70000E44F002058
:10399000944B002010B5084603F08CF90146BDE8B1
:1039A00010400148FCF7A0BC100100202DE9F041B7
:1039B0000646344F00EB061007EB0014042E06D326
:1039C00031A34FF47E723CA142A0FDF7ABFFA07A79
:1039D000002854D000254FF0010801280CD00228FF
:1039E00021D0032845D0BDE8F04127A340F237425B
:1039F00042A138A0FDF796BFFCF70CFC82B2002074
:103A000000EB001107EB01118B7A022B02D109891F
:103A10009142F1D0401CC0B20428F1D3228102208F
:103A2000A072E5721CE0207B401E10F0FF002073A6
:103A300025D1607B401CC0B26073042805D0207380
:103A40003046BDE8F04100F08FBAE07A0146401CF4
:103A5000022809D2314A02EB8101496821B1E072A2
:103A600084F80C806573EBE700213046FFF746FFD2
:103A700004E0206810B1401E206000D1A572BDE8AE
:103A8000F0810000A44B00202E2E2F4D6964646C41
:103A90006577617265732F54686972645F506172F3
:103AA00074792F4C7749502F7372632F636F72654F
:103AB0002F646E732E630000617272617920696EEB
:103AC000646578206F7574206F6620626F756E6410
:103AD00073000000417373657274696F6E20222554
:103AE0007322206661696C6564206174206C696E64
:103AF0006520256420696E2025730A00756E6B6E43
:103B00006F776E20646E735F7461626C6520656EA2
:103B10007472792073746174653A00004C0000205F
:103B20002DE9F0411546884606464FF6FF772946AF
:103B30006D1CADB2404607F085FA040019D4C4F3F9
:103B40008110032815D00BE007F07CFA002810DB69
:103B50003178C0B281420CD16D1C641EADB2761CAE
:103B6000002C29464046EFDC761C07F06BFA002853
:103B700002DA3846BDE8F081D9D105F10105A8B2D5
:103B8000F8E700002DE9FF5F4B4D994692468846C5
:103B900000244FF4807705F5886604EB041005EBEC
:103BA0000011887A02280ED13A461031009805F0AB
:103BB0005AFD40B900EB400156F82110A9B1401C54
:103BC000C0B20428F6D3641CE4B2042CE5D34FF051
:103BD000000C3A4B0420644604EB041105EB01177A
:103BE000BA7AC2B1032A0AD011E000EB400046F8CD
:103BF00020A006EB8000C0F80490047259E0B97B65
:103C00005A78511AC9B2614501D98C462046641CC4
:103C1000E4B2042CE0D3042C09D1042826D200EB12
:103C2000001105EB0117B97A03291FD104460025BD
:103C3000284600EB400156F8211091B1401CC0B25B
:103C40000428F6D395B101202C72B8725878B87355
:103C5000C5E900A99B464046B8F1FF0F0BD20646C6
:103C60000AE000EB400006EB8005EBE74FF0FF3089
:103C700004B0BDE8F09FFF26324607F1100000991E
:103C8000FCF7DAFAB9194FF0000881F81080FFF755
:103C9000D9FDF873042804D387F80A80C5F800809A
:103CA000E4E79BF801102046491C8BF80110FFF750
:103CB0007DFE6FF00400DBE7A44B002048000020ED
:103CC00038B50024009400F001F838BD2DE9F05F0C
:103CD0009A4693460D0006466FF00F0408D03EB199
:103CE000307828B13046FCF7DDFA8046FF2802D94B
:103CF0002046BDE8F09F2946304602F00DFF30BB5C
:103D0000154F00244FF4807904EB041007EB0011E9
:103D1000887A032805D14A463046103105F0A3FCC5
:103D200070B1641CE4B2042CEED30C48006880B17E
:103D300053465A4641463046BDE8F05FFFF722BF82
:103D40002DB104EB041007EB001040682860002040
:103D5000CFE76FF00500CCE7A44B00204C0000201B
:103D6000022803D2024901EB8000704701487047E6
:103D70004C000020E0890108704700002DE9F04F59
:103D8000108989B09A461746102871D300230C2257
:103D900003A9384606F050FD0C2869D1BDF80C0087
:103DA00005F04CFCDFF8B491002505EB051209EB9A
:103DB0000214A17A02297CD121898142FBD1BDF86C
:103DC000100005F03BFC8046BDF8120005F036FC03
:103DD00006469DF80E0000064AD5B8F1010F47D1FE
:103DE000E17A5F4ADAF8000052F8211088423FD1A8
:103DF0000C22394604F11000FFF792FE4FF6FF78CF
:103E00000446404534D02346042206A9384606F02D
:103E100013FD04282CD1BDF81A004FF4807188429C
:103E200026D1BDF818008A46504521D1241D9DF8A1
:103E30000F00A4B200074FF0000B4DD148E021461F
:103E4000641CA4B2384607F0FDF800280EDBC0F36E
:103E5000811103290ED039892044884206DA84B2C0
:103E60002146384607F0EEF8002802DA444604E01E
:103E70006FE0E4D104F10104A4B2444569D02346C3
:103E80000A226946384606F0D7FC0A2861D10A346E
:103E9000BDF80200A4B2504508D1BDF8000050455D
:103EA00004D1BDF80800B0F5806F25D0BDF808003A
:103EB00000E049E005F0C2FB2044B0F5803F48D265
:103EC000BDF8080005F0BAFB2044761E84B2B6B2F5
:103ED00016B13889A042B2D8384606F03BFD002121
:103EE0002846FFF70BFD05EB051209EB021181F8DF
:103EF0000AB009B0BDE8F08F2346042207A938466E
:103F000006F09AFC042824D105EB051209EB0214F3
:103F100007993846616006F01DFD019805F08CFB9D
:103F20000321A1720F492060884200D92160211D20
:103F30002846FFF7E3FC20680028DAD1A07A03289E
:103F4000D7D184F80AB0D4E76D1CEDB2042DFFF48C
:103F50002CAF384606F0FEFCCBE70000A44B002057
:103F60004C000020803A09002DE9FF5F04464549D6
:103F700000EB041001EB0016F07A022806D342A3EE
:103F800040F2ED224CA152A0FDF7CCFCF17A5A4848
:103F9000002550F8210038B306F110000446FCF764
:103FA00081F9123081B20022104606F077F85FEAFC
:103FB000000A62D0009501950295308905F03EFB1C
:103FC000ADF8000001208DF802004FF4807BADF8C1
:103FD00004B00C226946504606F04CFF0C27641EC4
:103FE000641CA04600250BE000212046FFF786FC5C
:103FF000B572002004B0BDE8F09F6D1CEDB2641CEA
:1040000020782E2801D00028F7D1A4EB08001FFA51
:1040100080F92A463946504606F0FCFD781C83B2EA
:104020004A464146504606F0E3FF7819401C87B2E5
:1040300020780028D4D100223946504606F0EAFD07
:104040007F1CADF80CB0BBB2ADF80EB0042203A9D2
:10405000504606F0CDFFF27A2749F07B01EB820251
:1040600008493523103951F8200051460CF0F8FB6F
:104070000446504606F06EFC01E04FF0FF34204647
:10408000B8E70000A44B00202E2E2F4D6964646C0D
:104090006577617265732F54686972645F506172ED
:1040A00074792F4C7749502F7372632F636F726549
:1040B0002F646E732E630000646E732073657276D6
:1040C0006572206F7574206F66206172726179006D
:1040D000417373657274696F6E20222573222066A6
:1040E00061696C6564206174206C696E652025646B
:1040F00020696E2025730A004C000020022805D29A
:10410000044A02EB800011B109680160704702495E
:10411000FAE700004C000020E089010810B50024F7
:104120002046FFF743FC641CE4B2042CF8D310BD16
:1041300070B505460C46880706D006A34FF4CE722C
:1041400010A118A0FDF7EEFBA86800682060A86821
:10415000046070BD2E2E2F4D6964646C65776172AA
:1041600065732F54686972645F50617274792F4C63
:104170007749502F7372632F636F72652F6D656D72
:10418000702E63006D656D705F667265653A206DB7
:10419000656D2070726F7065726C7920616C6967F3
:1041A0006E656400417373657274696F6E202225B9
:1041B0007322206661696C6564206174206C696E8D
:1041C0006520256420696E2025730A0010B580687B
:1041D0000468002C0CD021680160A00706D005A35C
:1041E0004FF4A4720FA118A0FDF79CFB204610BD50
:1041F000002010BD2E2E2F4D6964646C65776172AE
:1042000065732F54686972645F50617274792F4CC2
:104210007749502F7372632F636F72652F6D656DD1
:10422000702E63006D656D705F6D616C6C6F633ACD
:10423000206D656D702070726F7065726C79206191
:104240006C69676E65640000417373657274696FB1
:104250006E2022257322206661696C65642061747A
:10426000206C696E6520256420696E2025730A0024
:1042700070B50A4E0546002404EB440006EBC0006E
:10428000017D29B18068A84202D1204600F02CF9B6
:10429000641CE4B20A2CEFD370BD0000008600203D
:1042A0002DE9F74F80460A2084B00024029007468B
:1042B0000190A346A246A14600904C4904EB44005D
:1042C00001EBC0060390357D0A2F18D0002D24D0B5
:1042D000012D08D0022D06D245A340F2251252A18D
:1042E00061A0FDF71FFBB8F1000F0CD0D8F800005B
:1042F0007168884207D160B207B0BDE8F08F002D29
:10430000E6D167B209E0012D15D0022D05D3708AE0
:10431000484502D361B281460191641CE4B20A2C83
:10432000CBD3059881074FF0FF30E5D40A2F15D085
:1043300017DAFCB23AE02D48039950F83100002812
:10434000708A05D05845E8D361B283460091E4E70E
:104350005045E2D361B282460291DEE70599C90772
:10436000CAD001990A290EDACCB2204804EB4401E4
:1043700050F8310070B11EA340F26F1244A13AA070
:10438000FDF7D0FA06E002990A2902DB00990A2912
:10439000B2DACCB20A2C06D315A340F2811242A1A4
:1043A00031A0FDF7BFFA204600F09EF80A2C06D394
:1043B0000FA340F285123CA12BA0FDF7B3FA0B48E6
:1043C00004EB440100EBC105287D30B108A34FF494
:1043D000C3723AA124A0FDF7A5FAB8F1000F02D0EC
:1043E000D8F8000068600020688284E7008600201A
:1043F0002E2E2F4D6964646C6577617265732F543E
:10440000686972645F50617274792F4C7749502FDC
:104410007372632F636F72652F697076342F6574C2
:10442000686172702E6300007374617465203D3D95
:10443000204554484152505F53544154455F5045C4
:104440004E44494E47207C7C207374617465203E45
:104450003D204554484152505F53544154455F53A9
:104460005441424C45000000417373657274696F9A
:104470006E2022257322206661696C656420617458
:10448000206C696E6520256420696E2025730A0002
:104490006172705F7461626C655B695D2E71203D55
:1044A0003D204E554C4C000069203C204152505F4D
:1044B0005441424C455F53495A4500006172705F58
:1044C0007461626C655B695D2E7374617465203D17
:1044D0003D204554484152505F53544154455F4537
:1044E0004D5054590000000070B5074D00EB4004DA
:1044F000002655F8340018B106F02CFA45F834605F
:1045000005EBC400067570BD008600202DE9F04360
:1045100085B00D00074609D07C684FF4807820886C
:10452000404544D12079062841D109E022A34FF427
:1045300022722FA132A0FDF7F5F905B0BDE8F08396
:104540006079042833D16088082830D1D4F80E006F
:104550000490A169686818B1814201D1012600E088
:1045600000260EB1012300E0022304F10802914667
:1045700004A9284600F0A2FBE088404503D0B0F52E
:10458000007F14D10FE096B1022204ABCDE90232D4
:10459000291DCDE9001905F1290319464A46284687
:1045A00000F08EFA03E004A92846FDF79BFB38468D
:1045B00006F0D0F9C1E700002E2E2F4D6964646C1F
:1045C0006577617265732F54686972645F506172B8
:1045D00074792F4C7749502F7372632F636F726514
:1045E0002F697076342F6574686172702E630000D5
:1045F0006E6574696620213D204E554C4C000000CC
:10460000417373657274696F6E2022257322206670
:1046100061696C6564206174206C696E6520256435
:1046200020696E2025730A00FEB514460E4605006B
:1046300006D141A340F21B324DA151A0FDF772F902
:1046400036B93DA34FF4477257A14DA0FDF76AF963
:1046500034B939A340F21D3256A149A0FDF762F9E1
:104660002946206801F05CFE08B1564B39E020680D
:10467000C0F303110E291FD0A9686B6800EA01027C
:104680000B409A4208D080B2A0F57E41A93903D0F0
:10469000E86880B305F10C044B4B4C4A187800EBEA
:1046A000400102EBC1010F7D022F28D32768496822
:1046B0008F4224D1024630E001208DF80400002012
:1046C0008DF805005E208DF80600607801AB00F0E3
:1046D0007F008DF80700A0788DF80800E0788DF84D
:1046E00009004FF40060009005F129023146284688
:1046F00000F0D4FBFEBDFFE76FF00300FAE70021F6
:1047000001EB410002EBC000077D022F0AD32768AE
:104710004068874206D1CAB21A703146284600F076
:1047200057F8E7E7491C49B20A29E9DB3246214636
:10473000284600F0D5F8DDE72E2E2F4D6964646C15
:104740006577617265732F54686972645F50617236
:1047500074792F4C7749502F7372632F636F726592
:104760002F697076342F6574686172702E63000053
:104770006E6574696620213D204E554C4C0000004A
:10478000417373657274696F6E20222573222066EF
:1047900061696C6564206174206C696E65202564B4
:1047A00020696E2025730A007120213D204E554C52
:1047B0004C00000069706164647220213D204E55F8
:1047C0004C4C0000AC0E0108FC00002000860020CC
:1047D0002DE9F8430646154688461C4802EB45017C
:1047E00000EBC104207D022806D219A34FF43B72CE
:1047F00025A131A0FDF796F8144A05EB4501207D6F
:1048000002EBC1050C35022813D1608A0327B0F5ED
:104810008E7F04D9211D304600F00AFA07E0B0F57A
:10482000877F06D32A46211D304600F007FA00B9DB
:1048300027754FF4006000902B4606F1290241468F
:10484000304600F02BFBBDE8F88300000086002016
:104850002E2E2F4D6964646C6577617265732F54D9
:10486000686972645F50617274792F4C7749502F78
:104870007372632F636F72652F697076342F65745E
:10488000686172702E6300006172705F7461626CA7
:10489000655B6172705F6964785D2E7374617465C5
:1048A000203E3D204554484152505F5354415445A9
:1048B0005F535441424C4500417373657274696F94
:1048C0006E2022257322206661696C656420617404
:1048D000206C696E6520256420696E2025730A00AE
:1048E0002DE9FC5F8246293001908846086816460B
:1048F0004FF0FF374FF0000B514601F011FD00283B
:1049000028D1D8F80000C0F303110E2922D0B8F145
:10491000000F1FD000281DD0524601214046FFF74E
:10492000BFFC040018D43B4904EB440901EBC90562
:10493000287D002812D0012808D0022806D236A3EC
:1049400040F2C73242A14CA0FCF7ECFFBBF1000FD4
:104950000AD108E06FF00F00BDE8FC9F0120287528
:10496000C5F808A000E036B94146504600F060F9AD
:104970000746002EF0D0287D264902280DD348484E
:1049800005F10C03314604704FF40060009050466E
:10499000019A00F083FA074639E08846012836D1AB
:1049A000002534464FF47B7760892189884207D1FE
:1049B000206828B118A33A463AA12FA0FCF7B2FF0D
:1049C000207B012803D12468002CEDD175B1218909
:1049D0000022022005F062FB050016D0314605F0EA
:1049E00035FE40B1284605F0B5FF0EE035463046AD
:1049F00006F0ECF94DB158F83900444608B105F01D
:104A0000A9FF44F83950002701E04FF0FF3738463E
:104A1000A2E70000008600202E2E2F4D6964646CF2
:104A20006577617265732F54686972645F50617253
:104A300074792F4C7749502F7372632F636F7265AF
:104A40002F697076342F6574686172702E63000070
:104A50006172705F7461626C655B695D2E73746115
:104A60007465203D3D2050454E44494E47206F72AD
:104A700020535441424C4500417373657274696F11
:104A80006E2022257322206661696C656420617442
:104A9000206C696E6520256420696E2025730A00EC
:104AA000FC0000206E6F207061636B65742071756F
:104AB0006575657320616C6C6F776564210000001B
:104AC0002DE9FF4F81B09846DDE90FA9DDF838B038
:104AD00006004FF0000706D12BA34FF48B6238A1DC
:104AE0003BA0FCF71FFF00221C21022005F0D6FA94
:104AF000050046D068891C2806D223A340F26342F1
:104B00003DA133A0FCF70EFF6C68119804F096FDF0
:104B1000E08096F82800062806D01BA340F26A42DF
:104B200042492BA0FCF7FEFED8F80010A160B8F8AF
:104B30000400A081DAF80010C4F81210BAF80400DA
:104B4000E082DBF80000C4F80E00D9F80000A06194
:104B50004FF480702080082060800620207104209F
:104B6000607140F60600DDE90223009029463046D8
:104B700000F094F9284605F0EDFE384605B0BDE892
:104B8000F08F4FF0FF30F9E72E2E2F4D6964646CE3
:104B90006577617265732F54686972645F506172E2
:104BA00074792F4C7749502F7372632F636F72653E
:104BB0002F697076342F6574686172702E630000FF
:104BC0006E6574696620213D204E554C4C000000F6
:104BD000417373657274696F6E202225732220669B
:104BE00061696C6564206174206C696E6520256460
:104BF00020696E2025730A00636865636B20746802
:104C000061742066697273742070627566206361D6
:104C10006E20686F6C6420737472756374206574A1
:104C2000686172705F68647200000000D88B0108D0
:104C3000014A00F003B80000AC0E01087FB5064D34
:104C4000031D0124CDE90035CDE9021425331946B1
:104C5000FFF736FF04B070BDB20E010870B5164DF7
:104C6000002404EB440005EBC002117DF1B1508A31
:104C7000401C80B25082B0F5967F0AD2012906D03E
:104C800003290AD004290AD001290BD00EE00528F7
:104C900008D32046FFF728FC08E0042000E00220AB
:104CA000107503E0111D9068FFF7C2FF641CE4B2A9
:104CB0000A2CD6D370BD000000860020F8B504464B
:104CC00090F828001F4615460E46062806D020A359
:104CD00040F2AB122CA135A0FCF724FE9EB3306845
:104CE00088B3214601F01CFB68BB3078C0F3031089
:104CF0000E2829D0224639463046FFF7D1FA00283F
:104D000020DB344A00EB400102EBC10002230375B3
:104D100084602B68C360AB8803820023438252F80F
:104D2000316076B142F831304FF4006000902B468C
:104D300004F129023146204600F0B0F8304605F073
:104D400009FE0020F8BDFFE76FF00F00FAE7000052
:104D50002E2E2F4D6964646C6577617265732F54D4
:104D6000686972645F50617274792F4C7749502F73
:104D70007372632F636F72652F697076342F657459
:104D8000686172702E6300006E657469662D3E68FE
:104D900077616464725F6C656E203D3D20455448C8
:104DA0005F4857414444525F4C454E004173736520
:104DB0007274696F6E2022257322206661696C65AA
:104DC00064206174206C696E6520256420696E2002
:104DD00025730A000086002070B5044640890E46FF
:104DE0000E2844D9606801788589CA0714D0012942
:104DF00005D006222849FBF76AFA48B10CE0417851
:104E000051B980785E2807D1607B40F0100002E045
:104E1000607B40F0080060736FF00D01082D0BD02F
:104E2000B5F5C16F18D0A5F56275B5F5C04527D0A9
:104E3000B5F5807F1BD128E096F82F00000716D526
:104E400060890E2813DB204605F04CFE78B9314608
:104E5000204601F0A9FB1CE096F82F00000706D5BC
:104E600060890E2803DB204605F03CFE18B1204681
:104E700005F070FD0DE031462046FFF747FB08E0E6
:104E80002146304606F06EFD03E02146304606F02E
:104E90000DFD002070BD0000AC0E01082DE9F041B1
:104EA00004461F4690460E46069804F0C7FB05468A
:104EB0000E21304605F016FE18B16FF00100BDE876
:104EC000F0817068858139680160B9888180D8F87F
:104ED0000020C0F80620B8F80410418194F828009A
:104EE000062806D006A340F22B1213A11FA0FCF740
:104EF00019FD31462046A269BDE8F0411047000087
:104F00002E2E2F4D6964646C6577617265732F5422
:104F1000686972645F50617274792F4C7749502FC1
:104F20007372632F6E657469662F65746865726E3F
:104F300065742E63000000006E657469662D3E681E
:104F400077616464725F6C656E206D757374206246
:104F500065203620666F722065746865726E6574B0
:104F60005F6F757470757421000000004173736584
:104F70007274696F6E2022257322206661696C65E8
:104F800064206174206C696E6520256420696E2040
:104F900025730A0010B5040006D10BA340F21722B6
:104FA0000EA112A0FCF7BEFC732084F83000742020
:104FB00084F83100174860611748A061204604F06A
:104FC00009FA002010BD00002E2E2F5372632F65AA
:104FD000746865726E657469662E63006E657469C7
:104FE0006620213D204E554C4C00000041737365F6
:104FF0007274696F6E2022257322206661696C6568
:1050000064206174206C696E6520256420696E20BF
:1050100025730A00294600089195000870B50546D9
:1050200004F058FA040009D02A692946904700285C
:1050300004D02046BDE8704005F08CBC70BD38B58A
:1050400004468DF8000069460320ABBE204638BDFB
:10505000D0E90110081A70477047000070B50E467D
:10506000050002D00EB10D4C08E06FF00F0070BDCE
:1050700030466168FBF71DF920B12468002CF7D198
:10508000A01F70BDA0682860E0686860E068A86044
:105090000020E860207C2874002070BDB8880108DA
:1050A00070B50D000446856008D02846FBF7FAF875
:1050B000FF2805D22846FBF7F5F802E0002000E0C3
:1050C000FF202076207C0A280CD2DFE800F00B05B8
:1050D0000B070B090C0C0C0C002002E0022000E076
:1050E0000420207470BD2046BDE8704004210BF000
:1050F000E3B900210268017441748174527CC27565
:1051000001767047F8B5134604460E460A46042B4E
:1051100031DB12F8011B12F8010B12F8025B2F02AF
:1051200012F8015C3D43042D25DB9D4223DC237CEA
:105130002D1F002B1FD0012B1DD0082939D2DFE8ED
:1051400001F038040C14141B2328014601B02B462F
:105150002046BDE8F04000F0F1B9014601B02B4611
:105160002046BDE8F04000F0E9B81346024620466C
:10517000009500F051F9F8BD014601B02B462046DC
:10518000BDE8F04000F06CBA2046BDE8F84000F001
:1051900039BA1046042DEEDB027843786068816BE3
:1051A0000FA006F03FFB207C0728E4D106202074E6
:1051B000F8BD63685F6B37B1134602462046009521
:1051C000B8470028F4D12D1D0095A07C3346401C23
:1051D000C2B2A2740721204600F064FBF8BD0000B3
:1051E00025733A205263766420436F64652D5265BF
:1051F0006A65637420666F7220636F64652025643E
:105200002C2069642025640070B50446007C0021D0
:105210000125801E082806D2DFE800F004060F11E1
:1052200011111118217470BD25746068416A00293C
:10523000F9D02046BDE870400847217400E025748D
:105240002146BDE87040054807F04EB86068016A25
:1052500009B120468847257470BD00002D5900080B
:1052600010B50446007C30B101280CD1607C4007A9
:1052700003D5032006E0022004E00021204600F0D0
:1052800049FA0620207410BD10B50446007C0A2897
:105290001BD2DFE800F0051A0F1D1B1A1A1A1A1D7F
:1052A000012020746068416A00290ED02046BDE8C4
:1052B00010400847607C400701D5032004E000212E
:1052C000204600F027FA0620207410BD0520207427
:1052D000607C8007F9D52046FFF796FF2046BDE8A1
:1052E0001040FFF7BDBF000010B50446007C801ED3
:1052F00008281FD2DFE800F0080E040A0A0A0A187C
:1053000021460D4806F0F0FF022004E021460A483D
:1053100006F0EAFF032020746068816A002909D042
:105320002046BDE8104008472046BDE81040052152
:105330000BF0C2B810BD00002D5900082DE9F8434C
:1053400004460568C07C0F461E469046B84229D1E7
:10535000207B002826D16068C3682BB132464146C5
:105360002046984708B107E036B132464146BDE8CD
:10537000F84320A005F03EBF012020730021A17555
:10538000207C0626801E08280CD2DFE800F00404EA
:105390000B0B0D1217280091FAB2002306212046AC
:1053A00000F080FABDE8F88307202074E87B2075C0
:1053B000F8E72146174806F097FF15E02146154803
:1053C00006F092FF09202074E87B20756068C169AF
:1053D0000029E7D001B02046BDE8F04308476068E7
:1053E000016A09B1204688470021204600F092F961
:1053F0002674D7E7526563656976656420626164E7
:1054000020636F6E6669677572652D61636B3A2004
:10541000255000002D5900082DE9F8430446C07CB2
:105420001646DDF820901F46B04244D1207B00286C
:1054300041D1804603290BD084F816806068436907
:1054400053B34A46394620469847050024D012E017
:10545000A07D401CC0B2A075E17D884201D301232C
:1054600000E000236068056995B14A463946204648
:10547000A84705000CD001202073207C0627801E41
:10548000082818D2DFE800F00F0F17171928192D78
:105490004A46394618A002E04A4639461EA0BDE8F1
:1054A000F84305F0A7BEF2B2002306212046CDF84E
:1054B000008000F0F7F9BDE8F88321461E4806F0A9
:1054C00013FF002D02DA03202074F4E72046BDE824
:1054D000F843002100F01EB92146174806F004FFEA
:1054E00004E06068016A09B120468847002120462F
:1054F00000F010F92774DEE752656365697665642C
:105500002062616420636F6E6669677572652D6ED7
:10551000616B3A20255000005265636569766564C9
:105520002062616420636F6E6669677572652D72B3
:10553000656A3A20255000002D5900082DE9FF43E7
:105540000446007C00270626801E81B091468846CE
:10555000082819D2DFE800F004130B0B1818180EF6
:105560000023424606212046009700F09BF905B033
:10557000BDE8F0836068016A09B1204688470021D0
:10558000204600F0C7F826746068856965B1607DC3
:10559000E17D884201D3012300E0002304AA4946AB
:1055A0002046A847054604E0049808B1042500E019
:1055B000022504980090E9B24B464246204600F08E
:1055C00071F9207C022D08D0072800D02674032D05
:1055D000CDD1607D401C6075C9E7072803D0082045
:1055E00020746775C3E72146054806F07DFE092053
:1055F00020746068C1690029F3D020468847F0E72D
:105600002D59000870B50446007C042811D00528E7
:1056100015D0062507280AD0092809D16068016A33
:1056200009B1204688470021204600F073F8257410
:1056300070BD2146094806F057FE022004E02146CD
:10564000064806F051FE032020746068816A002934
:10565000EED02046BDE87040084700002D590008F4
:10566000F8B504460568007C00269C460F460728CE
:1056700004D0082802D0092825D102E00620207491
:1056800021E06068BCF1000F816B05DD13466246C6
:1056900011A005F0B9FD02E017A005F0B5FD2675D3
:1056A000052020746068016A09B1204688472146B8
:1056B000174806F019FEA87B4FF47A71484322463A
:1056C000134906F05BFDFAB200230621204600963E
:1056D00000F0E8F8F8BD00002573207465726D696C
:1056E0006E6174656420627920706565722028257A
:1056F000302E2A76290000002573207465726D69AA
:105700006E617465642062792070656572000000C6
:105710002D590008F8B504460668007C00250F46A0
:1057200006280AD0072808D0082806D06068016833
:1057300009B1204688476575A5752FB9F07B20759E
:10574000A07C401CA074E07425736068416859B166
:10575000806848B1204688470090B6F8F010091FCD
:10576000814202DA009100E000950098032208309F
:1057700081B2042004F092FC050006D028896989D2
:10578000884203D0284605F0E5F8F8BD6968FF2097
:1057900001F8010B032001F8010BE089000A01F870
:1057A000020BA07B01F8010C012001F8040BE07C46
:1057B00001F8030C0098001D000A01F8020C009883
:1057C000001D01F8010C0098002810D060686A469E
:1057D000836820469847688900990838884206D02F
:1057E0000DA340F2F22219A123A0FCF79BF8294651
:1057F000304606F021F8207D2146401E20752848BD
:1058000006F072FDB07B4FF47A714843224624497A
:1058100006F0B4FCF8BD00002E2E2F4D6964646CB8
:105820006577617265732F54686972645F50617245
:1058300074792F4C7749502F7372632F6E6574699A
:10584000662F7070702F66736D2E630063696C65D0
:105850006E203D3D20702D3E6C656E202D2048450C
:10586000414445524C454E202D205050505F4844F5
:10587000524C454E00000000417373657274696FAD
:105880006E2022257322206661696C656420617434
:10589000206C696E6520256420696E2025730A00DE
:1058A0002D5900082DE9FF5FD0F8009080468A4608
:1058B000B9F8F0000E9E011F9346B14200DA061FB0
:1058C000371D381D81B20322042004F0E7FB0400D9
:1058D0002AD020896189884205D004B02046BDE8DD
:1058E000F05F05F037B865682EB1324605F1080063
:1058F0000399FAF7A1FCFF20287003206870B8F81C
:105900000E002146000AA87098F80E00E87085F88D
:1059100004A085F805B0380AA871EF7104B04846B4
:10592000BDE8F05F05F088BFBDE8FF9F38B50446CD
:105930000568007C011F052921D2DFE801F003037F
:1059400028282800217DD9B1207E0090A07CA36862
:10595000401CC2B2A274E27405212046FFF7A2FFE8
:1059600021461D4806F0C0FCA87B4FF47A714843DD
:105970002246194906F002FC207D401E207538BDE4
:10598000042802D0032020741CE00220FBE7207DC5
:10599000002860680DD0016B09B1204688470121BD
:1059A0002046FFF7B7FE207C0728E8D106202074A8
:1059B00038BD816B09A005F035FF03202074607CA1
:1059C000C007F5D16068816A0029F1D001B0204696
:1059D000BDE83040084700002D59000825733A20E3
:1059E00074696D656F75742073656E64696E672088
:1059F000436F6E6669672D526571756573747300C8
:105A00004FF0FF307047000070B50D462ABB25B33C
:105A10000121284609F0BEFDAC2003F02DFF040053
:105A200002D0AC21FAF721FC210019D02846CD6123
:105A300006F0C8FD0C49284609F0EEFA0B49284645
:105A400007F02CF904220A49284608F015FB0949F9
:105A5000284609F04FFD002070BD6FF0050070BDB5
:105A60004FF0FF3070BD0000ED5B0008AD5B00083B
:105A7000B75B0008335E000870B5054648690C4600
:105A800020B1FFF7E5FA002805DC2146284600F0A2
:105A90008BF8002070BD04A340F2834210A11EA029
:105AA000FBF740FF012070BD2E2E2F4D6964646C02
:105AB0006577617265732F54686972645F506172B3
:105AC00074792F4C7749502F7372632F6170707304
:105AD0002F68747470642F68747470642E6300008F
